{
  "_format": "hh-sol-artifact-1",
  "contractName": "Launchpool",
  "sourceName": "src/non-upgradeable/Launchpool.sol",
  "abi": [
    {
      "inputs": [
        {
          "internalType": "address",
          "name": "xcmOracleAddress",
          "type": "address"
        },
        {
          "internalType": "address",
          "name": "_projectOwner",
          "type": "address"
        },
        {
          "internalType": "address",
          "name": "_projectToken",
          "type": "address"
        },
        {
          "internalType": "address",
          "name": "_acceptedVAsset",
          "type": "address"
        },
        {
          "internalType": "address",
          "name": "_acceptedNativeAsset",
          "type": "address"
        },
        {
          "internalType": "uint128",
          "name": "_startBlock",
          "type": "uint128"
        },
        {
          "internalType": "uint128",
          "name": "_endBlock",
          "type": "uint128"
        },
        {
          "internalType": "uint256",
          "name": "_maxTokenPerStaker",
          "type": "uint256"
        },
        {
          "internalType": "uint128[]",
          "name": "_changeBlocks",
          "type": "uint128[]"
        },
        {
          "internalType": "uint256[]",
          "name": "_emissionRateChanges",
          "type": "uint256[]"
        }
      ],
      "stateMutability": "nonpayable",
      "type": "constructor"
    },
    {
      "inputs": [],
      "name": "ArraysLengthMismatch",
      "type": "error"
    },
    {
      "inputs": [
        {
          "internalType": "address",
          "name": "tokenAddress",
          "type": "address"
        }
      ],
      "name": "DecimalsTooHigh",
      "type": "error"
    },
    {
      "inputs": [],
      "name": "EndBlockMustBeAfterstartBlock",
      "type": "error"
    },
    {
      "inputs": [],
      "name": "EnforcedPause",
      "type": "error"
    },
    {
      "inputs": [],
      "name": "ExceedMaxTokensPerStaker",
      "type": "error"
    },
    {
      "inputs": [],
      "name": "ExceedNativeStake",
      "type": "error"
    },
    {
      "inputs": [],
      "name": "ExceedWithdrawableVTokens",
      "type": "error"
    },
    {
      "inputs": [],
      "name": "ExpectedPause",
      "type": "error"
    },
    {
      "inputs": [],
      "name": "FailedToReadTokenDecimals",
      "type": "error"
    },
    {
      "inputs": [],
      "name": "FirstChangeBlockMustBeStartBlock",
      "type": "error"
    },
    {
      "inputs": [],
      "name": "MaxAndMinTokensPerStakerMustBeGreaterThanZero",
      "type": "error"
    },
    {
      "inputs": [],
      "name": "MustBeAfterPoolEnd",
      "type": "error"
    },
    {
      "inputs": [],
      "name": "MustBeDuringPoolTime",
      "type": "error"
    },
    {
      "inputs": [],
      "name": "NoEmissionRateChangesProvided",
      "type": "error"
    },
    {
      "inputs": [],
      "name": "NotPlatformAdmin",
      "type": "error"
    },
    {
      "inputs": [
        {
          "internalType": "address",
          "name": "owner",
          "type": "address"
        }
      ],
      "name": "OwnableInvalidOwner",
      "type": "error"
    },
    {
      "inputs": [
        {
          "internalType": "address",
          "name": "account",
          "type": "address"
        }
      ],
      "name": "OwnableUnauthorizedAccount",
      "type": "error"
    },
    {
      "inputs": [],
      "name": "PlatformFeeAlreadyClaimed",
      "type": "error"
    },
    {
      "inputs": [],
      "name": "ProjectTokenNotRecoverable",
      "type": "error"
    },
    {
      "inputs": [],
      "name": "ReentrancyGuardReentrantCall",
      "type": "error"
    },
    {
      "inputs": [
        {
          "internalType": "address",
          "name": "token",
          "type": "address"
        }
      ],
      "name": "SafeERC20FailedOperation",
      "type": "error"
    },
    {
      "inputs": [],
      "name": "StartBlockMustBeInFuture",
      "type": "error"
    },
    {
      "inputs": [],
      "name": "TotalProjectTokensMustBeGreaterThanZero",
      "type": "error"
    },
    {
      "inputs": [],
      "name": "ZeroAddress",
      "type": "error"
    },
    {
      "inputs": [],
      "name": "ZeroAmountNotAllowed",
      "type": "error"
    },
    {
      "anonymous": false,
      "inputs": [
        {
          "indexed": true,
          "internalType": "address",
          "name": "claimer",
          "type": "address"
        },
        {
          "indexed": false,
          "internalType": "uint256",
          "name": "ownerClaims",
          "type": "uint256"
        },
        {
          "indexed": false,
          "internalType": "uint256",
          "name": "platformFee",
          "type": "uint256"
        }
      ],
      "name": "OwnerInterestsClaimed",
      "type": "event"
    },
    {
      "anonymous": false,
      "inputs": [
        {
          "indexed": true,
          "internalType": "address",
          "name": "previousOwner",
          "type": "address"
        },
        {
          "indexed": true,
          "internalType": "address",
          "name": "newOwner",
          "type": "address"
        }
      ],
      "name": "OwnershipTransferred",
      "type": "event"
    },
    {
      "anonymous": false,
      "inputs": [
        {
          "indexed": false,
          "internalType": "address",
          "name": "account",
          "type": "address"
        }
      ],
      "name": "Paused",
      "type": "event"
    },
    {
      "anonymous": false,
      "inputs": [
        {
          "indexed": true,
          "internalType": "address",
          "name": "claimer",
          "type": "address"
        },
        {
          "indexed": false,
          "internalType": "uint256",
          "name": "platformFee",
          "type": "uint256"
        }
      ],
      "name": "PlatformFeeClaimed",
      "type": "event"
    },
    {
      "anonymous": false,
      "inputs": [
        {
          "indexed": true,
          "internalType": "address",
          "name": "user",
          "type": "address"
        },
        {
          "indexed": false,
          "internalType": "uint256",
          "name": "amount",
          "type": "uint256"
        }
      ],
      "name": "ProjectTokensClaimed",
      "type": "event"
    },
    {
      "anonymous": false,
      "inputs": [
        {
          "indexed": true,
          "internalType": "address",
          "name": "user",
          "type": "address"
        },
        {
          "indexed": false,
          "internalType": "uint256",
          "name": "amount",
          "type": "uint256"
        }
      ],
      "name": "Staked",
      "type": "event"
    },
    {
      "anonymous": false,
      "inputs": [
        {
          "indexed": false,
          "internalType": "address",
          "name": "account",
          "type": "address"
        }
      ],
      "name": "Unpaused",
      "type": "event"
    },
    {
      "anonymous": false,
      "inputs": [
        {
          "indexed": true,
          "internalType": "address",
          "name": "user",
          "type": "address"
        },
        {
          "indexed": false,
          "internalType": "uint256",
          "name": "amount",
          "type": "uint256"
        }
      ],
      "name": "Unstaked",
      "type": "event"
    },
    {
      "inputs": [],
      "name": "BASE_PRECISION",
      "outputs": [
        {
          "internalType": "uint256",
          "name": "",
          "type": "uint256"
        }
      ],
      "stateMutability": "view",
      "type": "function"
    },
    {
      "inputs": [],
      "name": "MAX_DECIMALS",
      "outputs": [
        {
          "internalType": "uint256",
          "name": "",
          "type": "uint256"
        }
      ],
      "stateMutability": "view",
      "type": "function"
    },
    {
      "inputs": [],
      "name": "ONE_VTOKEN",
      "outputs": [
        {
          "internalType": "uint256",
          "name": "",
          "type": "uint256"
        }
      ],
      "stateMutability": "view",
      "type": "function"
    },
    {
      "inputs": [],
      "name": "SCALING_FACTOR",
      "outputs": [
        {
          "internalType": "uint256",
          "name": "",
          "type": "uint256"
        }
      ],
      "stateMutability": "view",
      "type": "function"
    },
    {
      "inputs": [],
      "name": "acceptedNativeAsset",
      "outputs": [
        {
          "internalType": "contract IERC20",
          "name": "",
          "type": "address"
        }
      ],
      "stateMutability": "view",
      "type": "function"
    },
    {
      "inputs": [],
      "name": "acceptedVAsset",
      "outputs": [
        {
          "internalType": "contract IERC20",
          "name": "",
          "type": "address"
        }
      ],
      "stateMutability": "view",
      "type": "function"
    },
    {
      "inputs": [],
      "name": "avgNativeExRateGradient",
      "outputs": [
        {
          "internalType": "uint256",
          "name": "",
          "type": "uint256"
        }
      ],
      "stateMutability": "view",
      "type": "function"
    },
    {
      "inputs": [
        {
          "internalType": "uint256",
          "name": "",
          "type": "uint256"
        }
      ],
      "name": "changeBlocks",
      "outputs": [
        {
          "internalType": "uint128",
          "name": "",
          "type": "uint128"
        }
      ],
      "stateMutability": "view",
      "type": "function"
    },
    {
      "inputs": [],
      "name": "claimLeftoverProjectToken",
      "outputs": [],
      "stateMutability": "nonpayable",
      "type": "function"
    },
    {
      "inputs": [],
      "name": "claimOwnerInterest",
      "outputs": [],
      "stateMutability": "nonpayable",
      "type": "function"
    },
    {
      "inputs": [],
      "name": "claimPlatformFee",
      "outputs": [],
      "stateMutability": "nonpayable",
      "type": "function"
    },
    {
      "inputs": [],
      "name": "claimProjectTokens",
      "outputs": [],
      "stateMutability": "nonpayable",
      "type": "function"
    },
    {
      "inputs": [],
      "name": "cumulativeExchangeRate",
      "outputs": [
        {
          "internalType": "uint256",
          "name": "",
          "type": "uint256"
        }
      ],
      "stateMutability": "view",
      "type": "function"
    },
    {
      "inputs": [
        {
          "internalType": "uint128",
          "name": "",
          "type": "uint128"
        }
      ],
      "name": "emissionRateChanges",
      "outputs": [
        {
          "internalType": "uint256",
          "name": "",
          "type": "uint256"
        }
      ],
      "stateMutability": "view",
      "type": "function"
    },
    {
      "inputs": [],
      "name": "endBlock",
      "outputs": [
        {
          "internalType": "uint128",
          "name": "",
          "type": "uint128"
        }
      ],
      "stateMutability": "view",
      "type": "function"
    },
    {
      "inputs": [
        {
          "internalType": "address",
          "name": "_investor",
          "type": "address"
        }
      ],
      "name": "getClaimableProjectToken",
      "outputs": [
        {
          "internalType": "uint256",
          "name": "",
          "type": "uint256"
        }
      ],
      "stateMutability": "view",
      "type": "function"
    },
    {
      "inputs": [],
      "name": "getEmissionRate",
      "outputs": [
        {
          "internalType": "uint256",
          "name": "",
          "type": "uint256"
        }
      ],
      "stateMutability": "view",
      "type": "function"
    },
    {
      "inputs": [],
      "name": "getPlatformAndOwnerClaimableVAssets",
      "outputs": [
        {
          "internalType": "uint256",
          "name": "ownerClaims",
          "type": "uint256"
        },
        {
          "internalType": "uint256",
          "name": "platformFee",
          "type": "uint256"
        }
      ],
      "stateMutability": "view",
      "type": "function"
    },
    {
      "inputs": [],
      "name": "getPoolInfo",
      "outputs": [
        {
          "internalType": "uint128",
          "name": "",
          "type": "uint128"
        },
        {
          "internalType": "uint128",
          "name": "",
          "type": "uint128"
        },
        {
          "internalType": "uint256",
          "name": "",
          "type": "uint256"
        },
        {
          "internalType": "uint256",
          "name": "",
          "type": "uint256"
        }
      ],
      "stateMutability": "view",
      "type": "function"
    },
    {
      "inputs": [
        {
          "internalType": "address",
          "name": "_investor",
          "type": "address"
        }
      ],
      "name": "getStakerNativeAmount",
      "outputs": [
        {
          "internalType": "uint256",
          "name": "",
          "type": "uint256"
        }
      ],
      "stateMutability": "view",
      "type": "function"
    },
    {
      "inputs": [],
      "name": "getStakingRange",
      "outputs": [
        {
          "internalType": "uint256",
          "name": "",
          "type": "uint256"
        },
        {
          "internalType": "uint256",
          "name": "",
          "type": "uint256"
        }
      ],
      "stateMutability": "view",
      "type": "function"
    },
    {
      "inputs": [],
      "name": "getTotalProjectToken",
      "outputs": [
        {
          "internalType": "uint256",
          "name": "",
          "type": "uint256"
        }
      ],
      "stateMutability": "view",
      "type": "function"
    },
    {
      "inputs": [],
      "name": "getTotalStakedVTokens",
      "outputs": [
        {
          "internalType": "uint256",
          "name": "",
          "type": "uint256"
        }
      ],
      "stateMutability": "view",
      "type": "function"
    },
    {
      "inputs": [
        {
          "internalType": "uint256",
          "name": "_withdrawnNativeTokens",
          "type": "uint256"
        }
      ],
      "name": "getWithdrawableVTokens",
      "outputs": [
        {
          "internalType": "uint256",
          "name": "withdrawableVAssets",
          "type": "uint256"
        }
      ],
      "stateMutability": "view",
      "type": "function"
    },
    {
      "inputs": [],
      "name": "lastNativeExRate",
      "outputs": [
        {
          "internalType": "uint256",
          "name": "",
          "type": "uint256"
        }
      ],
      "stateMutability": "view",
      "type": "function"
    },
    {
      "inputs": [],
      "name": "lastNativeExRateUpdateBlock",
      "outputs": [
        {
          "internalType": "uint128",
          "name": "",
          "type": "uint128"
        }
      ],
      "stateMutability": "view",
      "type": "function"
    },
    {
      "inputs": [],
      "name": "lastProcessedChangeBlockIndex",
      "outputs": [
        {
          "internalType": "uint256",
          "name": "",
          "type": "uint256"
        }
      ],
      "stateMutability": "view",
      "type": "function"
    },
    {
      "inputs": [],
      "name": "maxStakers",
      "outputs": [
        {
          "internalType": "uint256",
          "name": "",
          "type": "uint256"
        }
      ],
      "stateMutability": "view",
      "type": "function"
    },
    {
      "inputs": [],
      "name": "maxTokenPerStaker",
      "outputs": [
        {
          "internalType": "uint256",
          "name": "",
          "type": "uint256"
        }
      ],
      "stateMutability": "view",
      "type": "function"
    },
    {
      "inputs": [],
      "name": "nativeExRateSampleCount",
      "outputs": [
        {
          "internalType": "uint128",
          "name": "",
          "type": "uint128"
        }
      ],
      "stateMutability": "view",
      "type": "function"
    },
    {
      "inputs": [],
      "name": "owner",
      "outputs": [
        {
          "internalType": "address",
          "name": "",
          "type": "address"
        }
      ],
      "stateMutability": "view",
      "type": "function"
    },
    {
      "inputs": [],
      "name": "ownerShareOfInterest",
      "outputs": [
        {
          "internalType": "uint128",
          "name": "",
          "type": "uint128"
        }
      ],
      "stateMutability": "view",
      "type": "function"
    },
    {
      "inputs": [],
      "name": "pause",
      "outputs": [],
      "stateMutability": "nonpayable",
      "type": "function"
    },
    {
      "inputs": [],
      "name": "paused",
      "outputs": [
        {
          "internalType": "bool",
          "name": "",
          "type": "bool"
        }
      ],
      "stateMutability": "view",
      "type": "function"
    },
    {
      "inputs": [],
      "name": "platformAdminAddress",
      "outputs": [
        {
          "internalType": "address",
          "name": "",
          "type": "address"
        }
      ],
      "stateMutability": "view",
      "type": "function"
    },
    {
      "inputs": [],
      "name": "platformFeeClaimed",
      "outputs": [
        {
          "internalType": "bool",
          "name": "",
          "type": "bool"
        }
      ],
      "stateMutability": "view",
      "type": "function"
    },
    {
      "inputs": [],
      "name": "projectToken",
      "outputs": [
        {
          "internalType": "contract IERC20",
          "name": "",
          "type": "address"
        }
      ],
      "stateMutability": "view",
      "type": "function"
    },
    {
      "inputs": [
        {
          "internalType": "address",
          "name": "_tokenAddress",
          "type": "address"
        }
      ],
      "name": "recoverWrongToken",
      "outputs": [],
      "stateMutability": "nonpayable",
      "type": "function"
    },
    {
      "inputs": [],
      "name": "renounceOwnership",
      "outputs": [],
      "stateMutability": "nonpayable",
      "type": "function"
    },
    {
      "inputs": [
        {
          "internalType": "address",
          "name": "_xcmOracleAddress",
          "type": "address"
        }
      ],
      "name": "setXCMOracleAddress",
      "outputs": [],
      "stateMutability": "nonpayable",
      "type": "function"
    },
    {
      "inputs": [
        {
          "internalType": "uint256",
          "name": "_vTokenAmount",
          "type": "uint256"
        }
      ],
      "name": "stake",
      "outputs": [],
      "stateMutability": "nonpayable",
      "type": "function"
    },
    {
      "inputs": [
        {
          "internalType": "address",
          "name": "",
          "type": "address"
        }
      ],
      "name": "stakers",
      "outputs": [
        {
          "internalType": "uint256",
          "name": "nativeAmount",
          "type": "uint256"
        },
        {
          "internalType": "uint256",
          "name": "claimOffset",
          "type": "uint256"
        }
      ],
      "stateMutability": "view",
      "type": "function"
    },
    {
      "inputs": [],
      "name": "startBlock",
      "outputs": [
        {
          "internalType": "uint128",
          "name": "",
          "type": "uint128"
        }
      ],
      "stateMutability": "view",
      "type": "function"
    },
    {
      "inputs": [],
      "name": "tickBlock",
      "outputs": [
        {
          "internalType": "uint128",
          "name": "",
          "type": "uint128"
        }
      ],
      "stateMutability": "view",
      "type": "function"
    },
    {
      "inputs": [],
      "name": "totalNativeStake",
      "outputs": [
        {
          "internalType": "uint256",
          "name": "",
          "type": "uint256"
        }
      ],
      "stateMutability": "view",
      "type": "function"
    },
    {
      "inputs": [
        {
          "internalType": "address",
          "name": "newOwner",
          "type": "address"
        }
      ],
      "name": "transferOwnership",
      "outputs": [],
      "stateMutability": "nonpayable",
      "type": "function"
    },
    {
      "inputs": [],
      "name": "unpause",
      "outputs": [],
      "stateMutability": "nonpayable",
      "type": "function"
    },
    {
      "inputs": [
        {
          "internalType": "uint256",
          "name": "_vTokenAmount",
          "type": "uint256"
        }
      ],
      "name": "unstake",
      "outputs": [],
      "stateMutability": "nonpayable",
      "type": "function"
    },
    {
      "inputs": [
        {
          "internalType": "uint256",
          "name": "_withdrawnVTokens",
          "type": "uint256"
        }
      ],
      "name": "unstakeWithoutProjectToken",
      "outputs": [],
      "stateMutability": "nonpayable",
      "type": "function"
    },
    {
      "inputs": [],
      "name": "xcmOracle",
      "outputs": [
        {
          "internalType": "contract IXCMOracle",
          "name": "",
          "type": "address"
        }
      ],
      "stateMutability": "view",
      "type": "function"
    }
  ],
  "bytecode": "0x60c060405260058054602d60811b6001600160801b03909116179055600a80546001600160a01b03191673fd48761638e3a8c368abaefa9859cf6baa6c3c2717905534801561004d57600080fd5b5060405161338238038061338283398101604081905261006c916108b2565b886001600160a01b03811661009b57604051631e4fbdf760e01b81526000600482015260240160405180910390fd5b6100a481610492565b50600180556002805460ff19169055876001600160a01b0381166100db5760405163d92e233d60e01b815260040160405180910390fd5b876001600160a01b0381166101035760405163d92e233d60e01b815260040160405180910390fd5b876001600160a01b03811661012b5760405163d92e233d60e01b815260040160405180910390fd5b858060000361014d5760405163031cb01560e31b815260040160405180910390fd5b8d601060006101000a8154816001600160a01b0302191690836001600160a01b031602179055506000439050808a6001600160801b0316116101a2576040516378818b5f60e01b815260040160405180910390fd5b896001600160801b0316896001600160801b0316116101d4576040516389edc18d60e01b815260040160405180910390fd5b8651806101f45760405163558f515760e11b815260040160405180910390fd5b8a6001600160801b0316886000815181106102115761021161099c565b60200260200101516001600160801b03161461024057604051633e8b0d5360e21b815260040160405180910390fd5b80875114610261576040516307e11acb60e51b815260040160405180910390fd5b600061026c8f6104e2565b905060006102798f6104e2565b905061028682600a610aaf565b61029d906c0c9f2c9cd04674edea40000000610ac5565b6080526102ab81600a610aaf565b60a05260005b83811015610315578981815181106102cb576102cb61099c565b6020026020010151600b60008d84815181106102e9576102e961099c565b6020908102919091018101516001600160801b03168252810191909152604001600020556001016102b1565b5060a05161032290610566565b6012556014805460009061033e906001600160801b0316610ae7565b82546001600160801b039182166101009390930a92830292820219169190911790915560148054868316600160801b029216919091179055895161038990600c9060208d019061067c565b508f600d60006101000a8154816001600160a01b0302191690836001600160a01b031602179055508e600e60006101000a8154816001600160a01b0302191690836001600160a01b031602179055508d600f60006101000a8154816001600160a01b0302191690836001600160a01b031602179055508c600460006101000a8154816001600160801b0302191690836001600160801b031602179055508b600460106101000a8154816001600160801b0302191690836001600160801b031602179055508a6006819055508c600560006101000a8154816001600160801b0302191690836001600160801b03160217905550505050505050505050505050505050505050610bc7565b600080546001600160a01b038381166001600160a01b0319831681178455604051919092169283917f8be0079c531659141344cd1fd0a4f28419497f9722a3daafe3b4186f6b6457e09190a35050565b6000816001600160a01b031663313ce5676040518163ffffffff1660e01b8152600401602060405180830381865afa92505050801561053e575060408051601f3d908101601f1916820190925261053b91810190610b13565b60015b61055b576040516306d1762b60e41b815260040160405180910390fd5b92915050565b919050565b601054600f54604051630b23060160e41b81526001600160a01b0391821660048201526000928392169063b230601090602401602060405180830381865afa1580156105b6573d6000803e3d6000fd5b505050506040513d601f19601f820116820180604052508101906105da9190610b36565b6010546040516301443d5b60e41b81526001600160f01b0319831660048201529192506000916001600160a01b0390911690631443d5b0906024016040805180830381865afa158015610631573d6000803e3d6000fd5b505050506040513d601f19601f820116820180604052508101906106559190610b60565b602081015181519192509061066a9086610bb0565b6106749190610ac5565b949350505050565b828054828255906000526020600020906001016002900481019282156107245791602002820160005b838211156106ef57835183826101000a8154816001600160801b0302191690836001600160801b031602179055509260200192601001602081600f010492830192600103026106a5565b80156107225782816101000a8154906001600160801b030219169055601001602081600f010492830192600103026106ef565b505b50610730929150610734565b5090565b5b808211156107305760008155600101610735565b80516001600160a01b038116811461056157600080fd5b80516001600160801b038116811461056157600080fd5b634e487b7160e01b600052604160045260246000fd5b604051601f8201601f191681016001600160401b03811182821017156107b5576107b5610777565b604052919050565b60006001600160401b038211156107d6576107d6610777565b5060051b60200190565b600082601f8301126107f157600080fd5b81516108046107ff826107bd565b61078d565b8082825260208201915060208360051b86010192508583111561082657600080fd5b602085015b8381101561084a5761083c81610760565b83526020928301920161082b565b5095945050505050565b600082601f83011261086557600080fd5b81516108736107ff826107bd565b8082825260208201915060208360051b86010192508583111561089557600080fd5b602085015b8381101561084a57805183526020928301920161089a565b6000806000806000806000806000806101408b8d0312156108d257600080fd5b6108db8b610749565b99506108e960208c01610749565b98506108f760408c01610749565b975061090560608c01610749565b965061091360808c01610749565b955061092160a08c01610760565b945061092f60c08c01610760565b60e08c01516101008d015191955093506001600160401b0381111561095357600080fd5b61095f8d828e016107e0565b6101208d015190935090506001600160401b0381111561097e57600080fd5b61098a8d828e01610854565b9150509295989b9194979a5092959850565b634e487b7160e01b600052603260045260246000fd5b634e487b7160e01b600052601160045260246000fd5b6001815b6001841115610a03578085048111156109e7576109e76109b2565b60018416156109f557908102905b60019390931c9280026109cc565b935093915050565b600082610a1a5750600161055b565b81610a275750600061055b565b8160018114610a3d5760028114610a4757610a63565b600191505061055b565b60ff841115610a5857610a586109b2565b50506001821b61055b565b5060208310610133831016604e8410600b8410161715610a86575081810a61055b565b610a9360001984846109c8565b8060001904821115610aa757610aa76109b2565b029392505050565b6000610abe60ff841683610a0b565b9392505050565b600082610ae257634e487b7160e01b600052601260045260246000fd5b500490565b60006001600160801b0382166002600160801b03198101610b0a57610b0a6109b2565b60010192915050565b600060208284031215610b2557600080fd5b815160ff81168114610abe57600080fd5b600060208284031215610b4857600080fd5b81516001600160f01b031981168114610abe57600080fd5b60006040828403128015610b7357600080fd5b50604080519081016001600160401b0381118282101715610b9657610b96610777565b604052825181526020928301519281019290925250919050565b808202811582820484141761055b5761055b6109b2565b60805160a0516126fc610c8660003960008181610602015281816107dd0152818161080901528181610b0001528181610bde01528181610c0a01528181610d0c01528181610d3801528181611095015281816110c101528181611aad01528181611c320152611f0f01526000818161065a0152818161088b0152818161094101528181610dc101528181610e2701528181610f38015281816112ad015281816113a80152818161153a0152818161219901526122ac01526126fc6000f3fe608060405234801561001057600080fd5b50600436106102d65760003560e01c80638da5cb5b11610182578063b64a025e116100e9578063d065cf8e116100a2578063f2fde38b1161007c578063f2fde38b1461067c578063f73a8b5c1461068f578063f76e14f514610697578063fce88e6f1461069f57600080fd5b8063d065cf8e1461063f578063e154651a1461064c578063ef4cadc51461065557600080fd5b8063b64a025e146105c1578063b66a72df146105d4578063b87a6aeb146105dd578063bb8afc7b146105fd578063bfc55b8a14610624578063c0a77da91461063757600080fd5b80639c8aea901161013b5780639c8aea9014610568578063a694fc3a14610570578063a748afb014610583578063aac9ce5c1461058c578063ab7302bb1461059f578063b1f0af1b146105a757600080fd5b80638da5cb5b146104d95780638e70fa8c146104ea5780639168ae72146104fd578063976251e61461053957806399dc03901461054c5780639b4f83211461055f57600080fd5b8063544c2d761161024157806372cacb70116101fa5780637d334107116101d45780637d3341071461047b57806380729f17146104a45780638456cb59146104b757806384d38d48146104bf57600080fd5b806372cacb701461045757806372e48cf31461046b5780637950ea7e1461047357600080fd5b8063544c2d76146103d65780635bf0fa89146103df5780635c975abb146103f257806360246c88146104095780636cf568461461043c578063715018a61461044f57600080fd5b806333d8773d1161029357806333d8773d1461038e5780633f4ba83a1461039757806348cd4cb11461039f5780634b60ce77146103b25780634f7ff503146103c5578063534a9d00146103ce57600080fd5b8063018bcf5c146102db5780630417cf8e146102f057806306508ebc1461030b578063083c632314610336578063129989a3146103505780632e17de781461037b575b600080fd5b6102ee6102e93660046124e1565b6106aa565b005b6102f8601e81565b6040519081526020015b60405180910390f35b60145461031e906001600160801b031681565b6040516001600160801b039091168152602001610302565b60045461031e90600160801b90046001600160801b031681565b600a54610363906001600160a01b031681565b6040516001600160a01b039091168152602001610302565b6102ee61038936600461250a565b61077e565b6102f860035481565b6102ee610a1a565b60045461031e906001600160801b031681565b600d54610363906001600160a01b031681565b6102f860075481565b6102f8610a4f565b6102f860085481565b6102f86103ed36600461250a565b610ac2565b60025460ff165b6040519015158152602001610302565b610411610b51565b604080516001600160801b039586168152949093166020850152918301526060820152608001610302565b601054610363906001600160a01b031681565b6102ee610b8f565b6102f86c0c9f2c9cd04674edea4000000081565b6102ee610ba1565b6102ee610ccf565b6102f86104893660046124e1565b6001600160a01b031660009081526011602052604090205490565b6102f86104b23660046124e1565b610eec565b6102ee610f93565b60055461031e90600160801b90046001600160801b031681565b6000546001600160a01b0316610363565b600f54610363906001600160a01b031681565b61052461050b3660046124e1565b6011602052600090815260409020805460019091015482565b60408051928352602083019190915201610302565b61031e61054736600461250a565b610fc6565b600e54610363906001600160a01b031681565b6102f860125481565b6102ee611003565b6102ee61057e36600461250a565b611195565b6102f860095481565b6102ee61059a3660046124e1565b611421565b6102ee61146e565b60145461031e90600160801b90046001600160801b031681565b6102ee6105cf36600461250a565b6114a8565b6102f860135481565b6102f86105eb366004612523565b600b6020526000908152604090205481565b6102f87f000000000000000000000000000000000000000000000000000000000000000081565b60055461031e906001600160801b031681565b6102f8611609565b6015546103f99060ff1681565b6102f860065481565b6102f87f000000000000000000000000000000000000000000000000000000000000000081565b6102ee61068a3660046124e1565b6116de565b6102f8611721565b610524611752565b600654600754610524565b6106b261184b565b600d5481906001600160a01b03908116908216036106e35760405163dad2afd760e01b815260040160405180910390fd5b6040516370a0823160e01b815230600482015282906000906001600160a01b038316906370a0823190602401602060405180830381865afa15801561072c573d6000803e3d6000fd5b505050506040513d601f19601f82011682018060405250810190610750919061254c565b90506107786107676000546001600160a01b031690565b6001600160a01b0384169083611878565b50505050565b80806000036107a0576040516307a1cab560e11b815260040160405180910390fd5b6107a86118dc565b6107b0611900565b6013541580156107d15750600454600160801b90046001600160801b031643115b1561082f5760006108017f000000000000000000000000000000000000000000000000000000000000000061192a565b905061082d817f0000000000000000000000000000000000000000000000000000000000000000611a40565b505b3360008181526011602090815260408083208151808301909252805482526001015491810191909152906108638286611bc2565b9050610873826000015186611a40565b61087b611cd5565b60035460208301518351600091907f0000000000000000000000000000000000000000000000000000000000000000906108b690859061257b565b6108c09190612592565b6108ca91906125b4565b9050801561092d57600d546108e9906001600160a01b03168683611878565b846001600160a01b03167fda8a33b1852650a10f5393ae95d54ebfcb4e7e0fc67db151fd88babe81c7d8878260405161092491815260200190565b60405180910390a25b835160009061093d9085906125b4565b90507f000000000000000000000000000000000000000000000000000000000000000061096a848361257b565b6109749190612592565b6020860152808552600880548591906000906109919084906125b4565b90915550506001600160a01b038616600081815260116020908152604091829020885181558882015160019091015590518a81527f0f5bb82176feb1b5e747e28471aa92156a04d9f3ab9f45f28e2d704232b93f75910160405180910390a2600e54610a07906001600160a01b0316878a611878565b505050505050610a1660018055565b5050565b600a546001600160a01b03163314610a455760405163d4d7478360e01b815260040160405180910390fd5b610a4d611d5a565b565b600e546040516370a0823160e01b81523060048201526000916001600160a01b0316906370a08231906024015b602060405180830381865afa158015610a99573d6000803e3d6000fd5b505050506040513d601f19601f82011682018060405250810190610abd919061254c565b905090565b600454600090600160801b90046001600160801b03164311610aee57610ae782611dac565b9050610b33565b6000610af8611eb0565b905080610b257f00000000000000000000000000000000000000000000000000000000000000008561257b565b610b2f9190612592565b9150505b6000610b3d610a4f565b905080821115610b4b578091505b50919050565b6004546000908190819081906001600160801b0380821691600160801b900416610b79611721565b610b81611609565b935093509350935090919293565b610b9761184b565b610a4d6000611fe0565b610ba961184b565b610bb1611900565b601354158015610bd25750600454600160801b90046001600160801b031643115b15610c30576000610c027f000000000000000000000000000000000000000000000000000000000000000061192a565b9050610c2e817f0000000000000000000000000000000000000000000000000000000000000000611a40565b505b600080610c3b611752565b915091506000610c483390565b60408051858152602081018590529192506001600160a01b038316917f69d56ddf7e4c2fa07f9b0b8aec3d4381b34e868bd0284b3c03de42fe077bd860910160405180910390a2600e54610ca6906001600160a01b03168285611878565b600a54600e54610cc3916001600160a01b03918216911684611878565b505050610a4d60018055565b610cd76118dc565b610cdf611900565b601354158015610d005750600454600160801b90046001600160801b031643115b15610d5e576000610d307f000000000000000000000000000000000000000000000000000000000000000061192a565b9050610d5c817f0000000000000000000000000000000000000000000000000000000000000000611a40565b505b33600081815260116020908152604080832081518083019092528054808352600190910154928201929092529103610da9576040516307a1cab560e11b815260040160405180910390fd5b610db1611cd5565b60035460208201518251600091907f000000000000000000000000000000000000000000000000000000000000000090610dec90859061257b565b610df69190612592565b610e0091906125b4565b905080600003610e23576040516307a1cab560e11b815260040160405180910390fd5b82517f000000000000000000000000000000000000000000000000000000000000000090610e5290849061257b565b610e5c9190612592565b60208085019182526001600160a01b03808716600090815260119092526040909120855181559151600190920191909155600d54610e9c91168583611878565b836001600160a01b03167fda8a33b1852650a10f5393ae95d54ebfcb4e7e0fc67db151fd88babe81c7d88782604051610ed791815260200190565b60405180910390a250505050610a4d60018055565b6001600160a01b03811660009081526011602090815260408083208151808301909252805480835260019091015492820192909252908203610f315750600092915050565b80602001517f0000000000000000000000000000000000000000000000000000000000000000610f5f612030565b600354610f6c91906125c7565b8351610f78919061257b565b610f829190612592565b610f8c91906125b4565b9392505050565b600a546001600160a01b03163314610fbe5760405163d4d7478360e01b815260040160405180910390fd5b610a4d612300565b600c8181548110610fd657600080fd5b9060005260206000209060029182820401919006601002915054906101000a90046001600160801b031681565b600a546001600160a01b0316331461102e5760405163d4d7478360e01b815260040160405180910390fd5b600454600160801b90046001600160801b031643116110605760405163c00b64a160e01b815260040160405180910390fd5b611068611900565b6013541580156110895750600454600160801b90046001600160801b031643115b156110e75760006110b97f000000000000000000000000000000000000000000000000000000000000000061192a565b90506110e5817f0000000000000000000000000000000000000000000000000000000000000000611a40565b505b60155460ff161561110b5760405163dac5eb0f60e01b815260040160405180910390fd5b6015805460ff191660011790556000611122611752565b91505061112c3390565b6001600160a01b03167fb36c85b0201ed4518f6a4449c5e90313fb57d188669ce2b7e4194469811f4dcf8260405161116691815260200190565b60405180910390a2600a54600e5461118b916001600160a01b03918216911683611878565b50610a4d60018055565b80806000036111b7576040516307a1cab560e11b815260040160405180910390fd5b6004546001600160801b03164310806111e15750600454600160801b90046001600160801b031643115b156111ff5760405163a2255c1760e01b815260040160405180910390fd5b6112076118dc565b61120f611900565b336000818152601160205260408120906112288561192a565b825490915060000361125c5760065481111561125757604051631da5f2b360e11b815260040160405180910390fd5b61128b565b600654825461126c9083906125c7565b111561128b57604051631da5f2b360e11b815260040160405180910390fd5b6112958186611a40565b61129d611cd5565b81541561135757600082600101547f000000000000000000000000000000000000000000000000000000000000000060035485600001546112de919061257b565b6112e89190612592565b6112f291906125b4565b9050801561135557600d54611311906001600160a01b03163383611878565b836001600160a01b03167fda8a33b1852650a10f5393ae95d54ebfcb4e7e0fc67db151fd88babe81c7d8878260405161134c91815260200190565b60405180910390a25b505b8082600001600082825461136b91906125c7565b92505081905550806008600082825461138491906125c7565b9091555050600e546113a1906001600160a01b031633308861233d565b60035482547f0000000000000000000000000000000000000000000000000000000000000000916113d19161257b565b6113db9190612592565b600183015560405185815233907f9e71bc8eea02a63969f509818f2dafb9254532904319f9dbda79b67bd34a5f3d9060200160405180910390a2505050610a1660018055565b600a546001600160a01b0316331461144c5760405163d4d7478360e01b815260040160405180910390fd5b601080546001600160a01b0319166001600160a01b0392909216919091179055565b61147661184b565b600454600160801b90046001600160801b03164311610a4d5760405163c00b64a160e01b815260040160405180910390fd5b80806000036114ca576040516307a1cab560e11b815260040160405180910390fd5b6114d2611900565b3360008181526011602090815260408083208151808301909252805482526001015491810191909152906115068286611bc2565b9050611516826000015186611a40565b61151e611cd5565b808260000181815161153091906125b4565b90525060035482517f0000000000000000000000000000000000000000000000000000000000000000916115639161257b565b61156d9190612592565b6020830152600880548291906000906115879084906125b4565b90915550506001600160a01b038316600081815260116020908152604091829020855181558582015160019091015590518781527f0f5bb82176feb1b5e747e28471aa92156a04d9f3ab9f45f28e2d704232b93f75910160405180910390a2600e546115fd906001600160a01b03168487611878565b505050610a1660018055565b600454600090600160801b90046001600160801b0316431061162b5750600090565b600c5460095443916000915b818110156116d557600c8181548110611652576116526125da565b6000918252602090912060028204015460019091166010026101000a90046001600160801b031684106116d557600b6000600c8381548110611696576116966125da565b6000918252602080832060028304015460019283166010026101000a90046001600160801b031684528301939093526040909101902054935001611637565b50909392505050565b6116e661184b565b6001600160a01b03811661171557604051631e4fbdf760e01b8152600060048201526024015b60405180910390fd5b61171e81611fe0565b50565b600d546040516370a0823160e01b81523060048201526000916001600160a01b0316906370a0823190602401610a7c565b600e546040516370a0823160e01b8152306004820152600091829182916001600160a01b0316906370a0823190602401602060405180830381865afa15801561179f573d6000803e3d6000fd5b505050506040513d601f19601f820116820180604052508101906117c3919061254c565b9050806000036117d857506000928392509050565b60006117e5600854610ac2565b905060006117f382846125b4565b60155490915060ff161561180c57946000945092505050565b60055460649061182c90600160801b90046001600160801b03168361257b565b6118369190612592565b945061184285826125b4565b93505050509091565b6000546001600160a01b03163314610a4d5760405163118cdaa760e01b815233600482015260240161170c565b6040516001600160a01b038381166024830152604482018390526118d791859182169063a9059cbb906064015b604051602081830303815290604052915060e01b6020820180516001600160e01b038381831617835250505050612376565b505050565b60025460ff1615610a4d5760405163d93c066560e01b815260040160405180910390fd5b60026001540361192357604051633ee5aeb560e01b815260040160405180910390fd5b6002600155565b601054600f54604051630b23060160e41b81526001600160a01b0391821660048201526000928392169063b230601090602401602060405180830381865afa15801561197a573d6000803e3d6000fd5b505050506040513d601f19601f8201168201806040525081019061199e91906125f0565b6010546040516301443d5b60e41b81526001600160f01b0319831660048201529192506000916001600160a01b0390911690631443d5b0906024016040805180830381865afa1580156119f5573d6000803e3d6000fd5b505050506040513d601f19601f82011682018060405250810190611a19919061261a565b6020810151815191925090611a2e908661257b565b611a389190612592565b949350505050565b6014544390600090611a6290600160801b90046001600160801b0316836125b4565b905080600003611a725750505050565b600454601354600160801b9091046001600160801b03168311901515818015611a985750805b15611aa557505050505050565b600085611ad27f00000000000000000000000000000000000000000000000000000000000000008961257b565b611adc9190612592565b90506012548111611af05750505050505050565b600060125482611b0091906125b4565b90506000611b0e8683612592565b905084611b35576012839055601480546001600160801b03808a16600160801b0291161790555b6014546001600160801b031681611b4d60018361267c565b6001600160801b0316601354611b63919061257b565b611b6d91906125c7565b611b779190612592565b60135560148054600090611b93906001600160801b031661269b565b91906101000a8154816001600160801b0302191690836001600160801b03160217905550505050505050505050565b81516000908103611be6576040516307a1cab560e11b815260040160405180910390fd5b600454600160801b90046001600160801b0316431115611c6d57601354600003611c2457611c138261192a565b9050611c1f8183611a40565b611c79565b6000611c2e611eb0565b90507f0000000000000000000000000000000000000000000000000000000000000000611c5b828561257b565b611c659190612592565b915050611c79565b611c768261192a565b90505b6000611c888460000151610ac2565b905082811015611cab5760405163068ab5c560e31b815260040160405180910390fd5b8351821115611ccd576040516310aa0f2160e21b815260040160405180910390fd5b505b92915050565b60055443906001600160801b03168103611cec5750565b600854600003611d1957600580546001600160801b031916436001600160801b031617905561171e6123e7565b611d21612030565b60036000828254611d3291906125c7565b9091555050600580546001600160801b0319166001600160801b03831617905561171e6123e7565b611d62612452565b6002805460ff191690557f5db9ee0a495bf2e6ff9c91a7834c1ba4fdd244a5e8aa4e537bd38aeae4b073aa335b6040516001600160a01b03909116815260200160405180910390a1565b601054600f54604051630b23060160e41b81526001600160a01b0391821660048201526000928392169063b230601090602401602060405180830381865afa158015611dfc573d6000803e3d6000fd5b505050506040513d601f19601f82011682018060405250810190611e2091906125f0565b6010546040516301443d5b60e41b81526001600160f01b0319831660048201529192506000916001600160a01b0390911690631443d5b0906024016040805180830381865afa158015611e77573d6000803e3d6000fd5b505050506040513d601f19601f82011682018060405250810190611e9b919061261a565b8051602082015191925090611a2e908661257b565b6014546004546000918291611edd916001600160801b03600160801b91829004811692919091041661267c565b6004546001600160801b039182169250600160801b90041643118015611f035750601354155b15611fbf576000611f337f000000000000000000000000000000000000000000000000000000000000000061192a565b601454909150600090611f5690600160801b90046001600160801b0316436125b4565b601254611f6390846125b4565b611f6d9190612592565b601454600454919250611f97916001600160801b03600160801b928390048116929091041661267c565b611faa906001600160801b03168261257b565b601254611fb791906125c7565b935050505090565b80601354611fcd919061257b565b601254611fda91906125c7565b91505090565b600080546001600160a01b038381166001600160a01b0319831681178455604051919092169283917f8be0079c531659141344cd1fd0a4f28419497f9722a3daafe3b4186f6b6457e09190a35050565b60006008546000036120425750600090565b600554600c5460095443926001600160801b03169160009182905b828110156121f057600c8181548110612078576120786125da565b6000918252602090912060028204015460019091166010026101000a90046001600160801b03169350858410156121f057846001600160801b0316846001600160801b031611156121e85760006120e1866001600160801b0316866001600160801b0316612475565b90506000600b81841561213957600c6120fb6001876125b4565b8154811061210b5761210b6125da565b90600052602060002090600291828204019190066010029054906101000a90046001600160801b0316612177565b600c60008154811061214d5761214d6125da565b90600052602060002090600291828204019190066010029054906101000a90046001600160801b03165b6001600160801b031681526020810191909152604001600020546008549091507f00000000000000000000000000000000000000000000000000000000000000006121c2848461257b565b6121cc919061257b565b6121d69190612592565b6121e090856125c7565b935085965050505b60010161205d565b6000612205866001600160801b031688612475565b9050600087866001600160801b0316111561228a57600b6000600c61222b6001876125b4565b8154811061223b5761223b6125da565b90600052602060002090600291828204019190066010029054906101000a90046001600160801b03166001600160801b03166001600160801b03168152602001908152602001600020546122a4565b6001600160801b0386166000908152600b60205260409020545b6008549091507f00000000000000000000000000000000000000000000000000000000000000006122d5848461257b565b6122df919061257b565b6122e99190612592565b6122f390856125c7565b9998505050505050505050565b6123086118dc565b6002805460ff191660011790557f62e78cea01bee320cd4e420270b5ea74000d11b0c9f74754ebdbfc544b05a258611d8f3390565b6040516001600160a01b0384811660248301528381166044830152606482018390526107789186918216906323b872dd906084016118a5565b600080602060008451602086016000885af180612399576040513d6000823e3d81fd5b50506000513d915081156123b15780600114156123be565b6001600160a01b0384163b155b1561077857604051635274afe760e01b81526001600160a01b038516600482015260240161170c565b600c546009545b81811015610a1657600554600c80546001600160801b039092169183908110612419576124196125da565b6000918252602090912060028204015460019091166010026101000a90046001600160801b031611610a165760098190556001016123ee565b60025460ff16610a4d57604051638dfc202b60e01b815260040160405180910390fd5b600454600090600160801b90046001600160801b031682116124a25761249b83836125b4565b9050611ccf565b600454600160801b90046001600160801b031683106124c357506000611ccf565b600454610f8c908490600160801b90046001600160801b03166125b4565b6000602082840312156124f357600080fd5b81356001600160a01b0381168114610f8c57600080fd5b60006020828403121561251c57600080fd5b5035919050565b60006020828403121561253557600080fd5b81356001600160801b0381168114610f8c57600080fd5b60006020828403121561255e57600080fd5b5051919050565b634e487b7160e01b600052601160045260246000fd5b8082028115828204841417611ccf57611ccf612565565b6000826125af57634e487b7160e01b600052601260045260246000fd5b500490565b81810381811115611ccf57611ccf612565565b80820180821115611ccf57611ccf612565565b634e487b7160e01b600052603260045260246000fd5b60006020828403121561260257600080fd5b81516001600160f01b031981168114610f8c57600080fd5b6000604082840312801561262d57600080fd5b600090506040516040810181811067ffffffffffffffff8211171561266057634e487b7160e01b83526041600452602483fd5b6040528351815260209384015193810193909352509092915050565b6001600160801b038281168282160390811115611ccf57611ccf612565565b60006001600160801b0382166001600160801b0381036126bd576126bd612565565b6001019291505056fea2646970667358221220eab6a8785c236b97301a64ace05d39af3b5c0d20253cba078fbffdf45256ef4b64736f6c634300081a0033",
  "linkReferences": {},
  "deployedLinkReferences": {}
}