{
	"abi": [
		{
			"type": "constructor",
			"inputs": [
				{
					"name": "_projectOwner",
					"type": "address",
					"internalType": "address"
				},
				{
					"name": "_projectToken",
					"type": "address",
					"internalType": "address"
				},
				{
					"name": "_acceptedVAsset",
					"type": "address",
					"internalType": "address"
				},
				{
					"name": "_acceptedNativeAsset",
					"type": "address",
					"internalType": "address"
				},
				{
					"name": "_startBlock",
					"type": "uint128",
					"internalType": "uint128"
				},
				{
					"name": "_endBlock",
					"type": "uint128",
					"internalType": "uint128"
				},
				{
					"name": "_maxVAssetPerStaker",
					"type": "uint256",
					"internalType": "uint256"
				},
				{
					"name": "_changeBlocks",
					"type": "uint128[]",
					"internalType": "uint128[]"
				},
				{
					"name": "_emissionRateChanges",
					"type": "uint256[]",
					"internalType": "uint256[]"
				}
			],
			"stateMutability": "nonpayable"
		},
		{
			"type": "function",
			"name": "BASE_PRECISION",
			"inputs": [],
			"outputs": [
				{
					"name": "",
					"type": "uint256",
					"internalType": "uint256"
				}
			],
			"stateMutability": "view"
		},
		{
			"type": "function",
			"name": "MAX_DECIMALS",
			"inputs": [],
			"outputs": [
				{
					"name": "",
					"type": "uint256",
					"internalType": "uint256"
				}
			],
			"stateMutability": "view"
		},
		{
			"type": "function",
			"name": "ONE_VTOKEN",
			"inputs": [],
			"outputs": [
				{
					"name": "",
					"type": "uint256",
					"internalType": "uint256"
				}
			],
			"stateMutability": "view"
		},
		{
			"type": "function",
			"name": "SCALING_FACTOR",
			"inputs": [],
			"outputs": [
				{
					"name": "",
					"type": "uint256",
					"internalType": "uint256"
				}
			],
			"stateMutability": "view"
		},
		{
			"type": "function",
			"name": "acceptedNativeAsset",
			"inputs": [],
			"outputs": [
				{
					"name": "",
					"type": "address",
					"internalType": "contract IERC20"
				}
			],
			"stateMutability": "view"
		},
		{
			"type": "function",
			"name": "acceptedVAsset",
			"inputs": [],
			"outputs": [
				{
					"name": "",
					"type": "address",
					"internalType": "contract IERC20"
				}
			],
			"stateMutability": "view"
		},
		{
			"type": "function",
			"name": "avgNativeExRateGradient",
			"inputs": [],
			"outputs": [
				{
					"name": "",
					"type": "uint256",
					"internalType": "uint256"
				}
			],
			"stateMutability": "view"
		},
		{
			"type": "function",
			"name": "changeBlocks",
			"inputs": [
				{
					"name": "",
					"type": "uint256",
					"internalType": "uint256"
				}
			],
			"outputs": [
				{
					"name": "",
					"type": "uint128",
					"internalType": "uint128"
				}
			],
			"stateMutability": "view"
		},
		{
			"type": "function",
			"name": "claimLeftoverProjectToken",
			"inputs": [],
			"outputs": [],
			"stateMutability": "nonpayable"
		},
		{
			"type": "function",
			"name": "claimOwnerInterest",
			"inputs": [],
			"outputs": [],
			"stateMutability": "nonpayable"
		},
		{
			"type": "function",
			"name": "claimPlatformFee",
			"inputs": [],
			"outputs": [],
			"stateMutability": "nonpayable"
		},
		{
			"type": "function",
			"name": "cumulativeExchangeRate",
			"inputs": [],
			"outputs": [
				{
					"name": "",
					"type": "uint256",
					"internalType": "uint256"
				}
			],
			"stateMutability": "view"
		},
		{
			"type": "function",
			"name": "emissionRateChanges",
			"inputs": [
				{
					"name": "",
					"type": "uint128",
					"internalType": "uint128"
				}
			],
			"outputs": [
				{
					"name": "",
					"type": "uint256",
					"internalType": "uint256"
				}
			],
			"stateMutability": "view"
		},
		{
			"type": "function",
			"name": "endBlock",
			"inputs": [],
			"outputs": [
				{
					"name": "",
					"type": "uint128",
					"internalType": "uint128"
				}
			],
			"stateMutability": "view"
		},
		{
			"type": "function",
			"name": "getClaimableProjectToken",
			"inputs": [
				{
					"name": "_investor",
					"type": "address",
					"internalType": "address"
				}
			],
			"outputs": [
				{
					"name": "",
					"type": "uint256",
					"internalType": "uint256"
				}
			],
			"stateMutability": "view"
		},
		{
			"type": "function",
			"name": "getEmissionRate",
			"inputs": [],
			"outputs": [
				{
					"name": "",
					"type": "uint256",
					"internalType": "uint256"
				}
			],
			"stateMutability": "view"
		},
		{
			"type": "function",
			"name": "getPoolInfo",
			"inputs": [],
			"outputs": [
				{
					"name": "",
					"type": "uint128",
					"internalType": "uint128"
				},
				{
					"name": "",
					"type": "uint128",
					"internalType": "uint128"
				},
				{
					"name": "",
					"type": "uint256",
					"internalType": "uint256"
				},
				{
					"name": "",
					"type": "uint256",
					"internalType": "uint256"
				}
			],
			"stateMutability": "view"
		},
		{
			"type": "function",
			"name": "getStakerNativeAmount",
			"inputs": [
				{
					"name": "_investor",
					"type": "address",
					"internalType": "address"
				}
			],
			"outputs": [
				{
					"name": "",
					"type": "uint256",
					"internalType": "uint256"
				}
			],
			"stateMutability": "view"
		},
		{
			"type": "function",
			"name": "getStakingRange",
			"inputs": [],
			"outputs": [
				{
					"name": "",
					"type": "uint256",
					"internalType": "uint256"
				},
				{
					"name": "",
					"type": "uint256",
					"internalType": "uint256"
				}
			],
			"stateMutability": "view"
		},
		{
			"type": "function",
			"name": "getTotalProjectToken",
			"inputs": [],
			"outputs": [
				{
					"name": "",
					"type": "uint256",
					"internalType": "uint256"
				}
			],
			"stateMutability": "view"
		},
		{
			"type": "function",
			"name": "getTotalStakedVTokens",
			"inputs": [],
			"outputs": [
				{
					"name": "",
					"type": "uint256",
					"internalType": "uint256"
				}
			],
			"stateMutability": "view"
		},
		{
			"type": "function",
			"name": "getWithdrawableVTokens",
			"inputs": [
				{
					"name": "_withdrawnNativeTokens",
					"type": "uint256",
					"internalType": "uint256"
				}
			],
			"outputs": [
				{
					"name": "withdrawableVAssets",
					"type": "uint256",
					"internalType": "uint256"
				}
			],
			"stateMutability": "view"
		},
		{
			"type": "function",
			"name": "lastNativeExRate",
			"inputs": [],
			"outputs": [
				{
					"name": "",
					"type": "uint256",
					"internalType": "uint256"
				}
			],
			"stateMutability": "view"
		},
		{
			"type": "function",
			"name": "lastNativeExRateUpdateBlock",
			"inputs": [],
			"outputs": [
				{
					"name": "",
					"type": "uint128",
					"internalType": "uint128"
				}
			],
			"stateMutability": "view"
		},
		{
			"type": "function",
			"name": "lastProcessedChangeBlockIndex",
			"inputs": [],
			"outputs": [
				{
					"name": "",
					"type": "uint256",
					"internalType": "uint256"
				}
			],
			"stateMutability": "view"
		},
		{
			"type": "function",
			"name": "maxStakers",
			"inputs": [],
			"outputs": [
				{
					"name": "",
					"type": "uint256",
					"internalType": "uint256"
				}
			],
			"stateMutability": "view"
		},
		{
			"type": "function",
			"name": "maxVAssetPerStaker",
			"inputs": [],
			"outputs": [
				{
					"name": "",
					"type": "uint256",
					"internalType": "uint256"
				}
			],
			"stateMutability": "view"
		},
		{
			"type": "function",
			"name": "nativeExRateSampleCount",
			"inputs": [],
			"outputs": [
				{
					"name": "",
					"type": "uint128",
					"internalType": "uint128"
				}
			],
			"stateMutability": "view"
		},
		{
			"type": "function",
			"name": "owner",
			"inputs": [],
			"outputs": [
				{
					"name": "",
					"type": "address",
					"internalType": "address"
				}
			],
			"stateMutability": "view"
		},
		{
			"type": "function",
			"name": "ownerShareOfInterest",
			"inputs": [],
			"outputs": [
				{
					"name": "",
					"type": "uint128",
					"internalType": "uint128"
				}
			],
			"stateMutability": "view"
		},
		{
			"type": "function",
			"name": "pause",
			"inputs": [],
			"outputs": [],
			"stateMutability": "nonpayable"
		},
		{
			"type": "function",
			"name": "paused",
			"inputs": [],
			"outputs": [
				{
					"name": "",
					"type": "bool",
					"internalType": "bool"
				}
			],
			"stateMutability": "view"
		},
		{
			"type": "function",
			"name": "platformAdminAddress",
			"inputs": [],
			"outputs": [
				{
					"name": "",
					"type": "address",
					"internalType": "address"
				}
			],
			"stateMutability": "view"
		},
		{
			"type": "function",
			"name": "platformFeeClaimed",
			"inputs": [],
			"outputs": [
				{
					"name": "",
					"type": "bool",
					"internalType": "bool"
				}
			],
			"stateMutability": "view"
		},
		{
			"type": "function",
			"name": "projectToken",
			"inputs": [],
			"outputs": [
				{
					"name": "",
					"type": "address",
					"internalType": "contract IERC20"
				}
			],
			"stateMutability": "view"
		},
		{
			"type": "function",
			"name": "recoverWrongToken",
			"inputs": [
				{
					"name": "_tokenAddress",
					"type": "address",
					"internalType": "address"
				}
			],
			"outputs": [],
			"stateMutability": "nonpayable"
		},
		{
			"type": "function",
			"name": "renounceOwnership",
			"inputs": [],
			"outputs": [],
			"stateMutability": "nonpayable"
		},
		{
			"type": "function",
			"name": "setXCMOracleAddress",
			"inputs": [
				{
					"name": "_xcmOracleAddress",
					"type": "address",
					"internalType": "address"
				}
			],
			"outputs": [],
			"stateMutability": "nonpayable"
		},
		{
			"type": "function",
			"name": "stake",
			"inputs": [
				{
					"name": "_vTokenAmount",
					"type": "uint256",
					"internalType": "uint256"
				}
			],
			"outputs": [],
			"stateMutability": "nonpayable"
		},
		{
			"type": "function",
			"name": "stakers",
			"inputs": [
				{
					"name": "",
					"type": "address",
					"internalType": "address"
				}
			],
			"outputs": [
				{
					"name": "nativeAmount",
					"type": "uint256",
					"internalType": "uint256"
				},
				{
					"name": "claimOffset",
					"type": "uint256",
					"internalType": "uint256"
				}
			],
			"stateMutability": "view"
		},
		{
			"type": "function",
			"name": "startBlock",
			"inputs": [],
			"outputs": [
				{
					"name": "",
					"type": "uint128",
					"internalType": "uint128"
				}
			],
			"stateMutability": "view"
		},
		{
			"type": "function",
			"name": "tickBlock",
			"inputs": [],
			"outputs": [
				{
					"name": "",
					"type": "uint128",
					"internalType": "uint128"
				}
			],
			"stateMutability": "view"
		},
		{
			"type": "function",
			"name": "totalNativeStake",
			"inputs": [],
			"outputs": [
				{
					"name": "",
					"type": "uint256",
					"internalType": "uint256"
				}
			],
			"stateMutability": "view"
		},
		{
			"type": "function",
			"name": "transferOwnership",
			"inputs": [
				{
					"name": "newOwner",
					"type": "address",
					"internalType": "address"
				}
			],
			"outputs": [],
			"stateMutability": "nonpayable"
		},
		{
			"type": "function",
			"name": "unpause",
			"inputs": [],
			"outputs": [],
			"stateMutability": "nonpayable"
		},
		{
			"type": "function",
			"name": "unstake",
			"inputs": [
				{
					"name": "_vTokenAmount",
					"type": "uint256",
					"internalType": "uint256"
				}
			],
			"outputs": [],
			"stateMutability": "nonpayable"
		},
		{
			"type": "function",
			"name": "unstakeWithoutProjectToken",
			"inputs": [
				{
					"name": "_withdrawnVTokens",
					"type": "uint256",
					"internalType": "uint256"
				}
			],
			"outputs": [],
			"stateMutability": "nonpayable"
		},
		{
			"type": "function",
			"name": "xcmOracle",
			"inputs": [],
			"outputs": [
				{
					"name": "",
					"type": "address",
					"internalType": "contract IXCMOracle"
				}
			],
			"stateMutability": "view"
		},
		{
			"type": "event",
			"name": "OwnershipTransferred",
			"inputs": [
				{
					"name": "previousOwner",
					"type": "address",
					"indexed": true,
					"internalType": "address"
				},
				{
					"name": "newOwner",
					"type": "address",
					"indexed": true,
					"internalType": "address"
				}
			],
			"anonymous": false
		},
		{
			"type": "event",
			"name": "Paused",
			"inputs": [
				{
					"name": "account",
					"type": "address",
					"indexed": false,
					"internalType": "address"
				}
			],
			"anonymous": false
		},
		{
			"type": "event",
			"name": "Staked",
			"inputs": [
				{
					"name": "user",
					"type": "address",
					"indexed": true,
					"internalType": "address"
				},
				{
					"name": "amount",
					"type": "uint256",
					"indexed": false,
					"internalType": "uint256"
				}
			],
			"anonymous": false
		},
		{
			"type": "event",
			"name": "Unpaused",
			"inputs": [
				{
					"name": "account",
					"type": "address",
					"indexed": false,
					"internalType": "address"
				}
			],
			"anonymous": false
		},
		{
			"type": "event",
			"name": "Unstaked",
			"inputs": [
				{
					"name": "user",
					"type": "address",
					"indexed": true,
					"internalType": "address"
				},
				{
					"name": "amount",
					"type": "uint256",
					"indexed": false,
					"internalType": "uint256"
				}
			],
			"anonymous": false
		},
		{
			"type": "error",
			"name": "ArraysLengthMismatch",
			"inputs": []
		},
		{
			"type": "error",
			"name": "DecimalsTooHigh",
			"inputs": [
				{
					"name": "tokenAddress",
					"type": "address",
					"internalType": "address"
				}
			]
		},
		{
			"type": "error",
			"name": "EndBlockMustBeAfterstartBlock",
			"inputs": []
		},
		{
			"type": "error",
			"name": "EnforcedPause",
			"inputs": []
		},
		{
			"type": "error",
			"name": "ExceedMaxVTokensPerStaker",
			"inputs": []
		},
		{
			"type": "error",
			"name": "ExceedNativeStake",
			"inputs": []
		},
		{
			"type": "error",
			"name": "ExceedWithdrawableVTokens",
			"inputs": []
		},
		{
			"type": "error",
			"name": "ExpectedPause",
			"inputs": []
		},
		{
			"type": "error",
			"name": "FailedToReadTokenDecimals",
			"inputs": []
		},
		{
			"type": "error",
			"name": "FirstChangeBlockMustBeStartBlock",
			"inputs": []
		},
		{
			"type": "error",
			"name": "MaxAndMinTokensPerStakerMustBeGreaterThanZero",
			"inputs": []
		},
		{
			"type": "error",
			"name": "MustBeAfterPoolEnd",
			"inputs": []
		},
		{
			"type": "error",
			"name": "MustBeDuringPoolTime",
			"inputs": []
		},
		{
			"type": "error",
			"name": "NoEmissionRateChangesProvided",
			"inputs": []
		},
		{
			"type": "error",
			"name": "NotPlatformAdmin",
			"inputs": []
		},
		{
			"type": "error",
			"name": "OwnableInvalidOwner",
			"inputs": [
				{
					"name": "owner",
					"type": "address",
					"internalType": "address"
				}
			]
		},
		{
			"type": "error",
			"name": "OwnableUnauthorizedAccount",
			"inputs": [
				{
					"name": "account",
					"type": "address",
					"internalType": "address"
				}
			]
		},
		{
			"type": "error",
			"name": "PlatformFeeAlreadyClaimed",
			"inputs": []
		},
		{
			"type": "error",
			"name": "ProjectTokenNotRecoverable",
			"inputs": []
		},
		{
			"type": "error",
			"name": "ReentrancyGuardReentrantCall",
			"inputs": []
		},
		{
			"type": "error",
			"name": "SafeERC20FailedOperation",
			"inputs": [
				{
					"name": "token",
					"type": "address",
					"internalType": "address"
				}
			]
		},
		{
			"type": "error",
			"name": "StartBlockMustBeInFuture",
			"inputs": []
		},
		{
			"type": "error",
			"name": "TotalProjectTokensMustBeGreaterThanZero",
			"inputs": []
		},
		{
			"type": "error",
			"name": "ZeroAddress",
			"inputs": []
		},
		{
			"type": "error",
			"name": "ZeroAmountNotAllowed",
			"inputs": []
		}
	],
	"bytecode": {
		"object": "0x60c0604052346100c2576100236100146103ae565b97969096959195949294610e30565b61002b6100c7565b613ec66114b582396080518181816112d201528181611946015281816119be01528181611f54015281816123e80152818161247f015281816139790152613a5d015260a051818181611190015281816116b5015281816116db01528181611c2f01528181611dce01528181611df4015281816120ed015281816121130152818161308a015281816132fc015261344a0152613ec690f35b6100cd565b60405190565b5f80fd5b601f801991011690565b634e487b7160e01b5f52604160045260245ffd5b906100f9906100d1565b810190811060018060401b0382111761011157604052565b6100db565b906101296101226100c7565b92836100ef565b565b5f80fd5b5f80fd5b60018060a01b031690565b61014790610133565b90565b6101538161013e565b0361015a57565b5f80fd5b9050519061016b8261014a565b565b60018060801b031690565b6101818161016d565b0361018857565b5f80fd5b9050519061019982610178565b565b90565b6101a78161019b565b036101ae57565b5f80fd5b905051906101bf8261019e565b565b5f80fd5b60018060401b0381116101db5760208091020190565b6100db565b5f80fd5b909291926101f96101f4826101c5565b610116565b938185526020808601920283019281841161023657915b83831061021d5750505050565b6020809161022b848661018c565b815201920191610210565b6101e0565b9080601f8301121561025957816020610256935191016101e4565b90565b6101c1565b60018060401b0381116102745760208091020190565b6100db565b9092919261028e6102898261025e565b610116565b93818552602080860192028301928184116102cb57915b8383106102b25750505050565b602080916102c084866101b2565b8152019201916102a5565b6101e0565b9080601f830112156102ee578160206102eb93519101610279565b90565b6101c1565b91610120838303126103a95761030b825f850161015e565b92610319836020830161015e565b92610327816040840161015e565b92610335826060850161015e565b92610343836080830161018c565b926103518160a0840161018c565b9261035f8260c085016101b2565b9260e081015160018060401b0381116103a4578361037e91830161023b565b9261010082015160018060401b03811161039f5761039c92016102d0565b90565b61012f565b61012f565b61012b565b6103cc61537b803803806103c181610116565b9283398101906102f3565b909192939495969798565b60801b90565b906103ef60018060801b0319916103d7565b9181191691161790565b90565b90565b61041361040e610418926103f9565b6103fc565b61016d565b90565b90565b9061043361042e61043a926103ff565b61041b565b82546103dd565b9055565b90565b61045561045061045a9261043e565b6103fc565b610133565b90565b61046690610441565b90565b5f0190565b97969594939291908061049161048b6104865f61045d565b61013e565b9161013e565b146104a15761049f986104bd565b565b5f63d92e233d60e01b8152806104b960048201610469565b0390fd5b9796959493929190816104e06104da6104d55f61045d565b61013e565b9161013e565b146104f0576104ee9861050c565b565b5f63d92e233d60e01b81528061050860048201610469565b0390fd5b97969594939291908261052f6105296105245f61045d565b61013e565b9161013e565b1461053f5761053d98610577565b565b5f63d92e233d60e01b81528061055760048201610469565b0390fd5b61056f61056a6105749261043e565b6103fc565b61019b565b90565b97969594939291908561059261058c5f61055b565b9161019b565b146105a2576105a098610b83565b565b5f63031cb01560e31b8152806105ba60048201610469565b0390fd5b6105d26105cd6105d79261016d565b6103fc565b61019b565b90565b5190565b634e487b7160e01b5f52603260045260245ffd5b906105fc826105da565b81101561060d576020809102010190565b6105de565b61061c905161016d565b90565b5190565b90565b61063a61063561063f92610623565b6103fc565b61019b565b90565b6106586c0c9f2c9cd04674edea40000000610626565b90565b60ff1690565b634e487b7160e01b5f52601160045260245ffd5b61067e9061065b565b604d811161068c57600a0a90565b610661565b634e487b7160e01b5f52601260045260245ffd5b6106b16106b79161019b565b9161019b565b9081156106c2570490565b610691565b60016106d3910161019b565b90565b906106e08261061f565b8110156106f1576020809102010190565b6105de565b610700905161019b565b90565b61071761071261071c9261016d565b6103fc565b61016d565b90565b9061072990610703565b5f5260205260405f2090565b5f1b90565b906107465f1991610735565b9181191691161790565b61076461075f6107699261019b565b6103fc565b61019b565b90565b90565b9061078461077f61078b92610750565b61076c565b825461073a565b9055565b5f1c90565b60018060801b031690565b6107ab6107b09161078f565b610794565b90565b6107bd905461079f565b90565b6107c99061016d565b60018060801b0381146107dc5760010190565b610661565b906107f260018060801b0391610735565b9181191691161790565b9061081161080c61081892610703565b61041b565b82546107e1565b9055565b61083061082b6108359261019b565b6103fc565b61016d565b90565b9061084d61084861085492610703565b61041b565b82546103dd565b9055565b5490565b61086b6108719193929361019b565b9261019b565b9161087d83820261019b565b92818404149015171561088c57565b610661565b60029060018203010490565b5f5260205f2090565b1b90565b919060086108c59102916108bf5f19846108a6565b926108a6565b9181191691161790565b91906108e56108e06108ed93610750565b61076c565b9083546108aa565b9055565b5f90565b610907916109016108f1565b916108cf565b565b5b818110610915575050565b806109225f6001936108f5565b0161090a565b1c90565b9061093f905f1990602003600802610928565b8154169055565b919091828210610956575b505050565b6010600261096661098e95610891565b61097861097286610891565b9461089d565b93840193019306025f8111610996575b50610909565b5f8080610951565b6109a3906001830361092c565b5f610988565b906801000000000000000081116109d257816109c76109d093610858565b90828155610946565b565b6100db565b60200190565b919060086109fd9102916109f760018060801b03846108a6565b926108a6565b9181191691161790565b90610a11816105da565b9060018060401b038211610af457610a35610a3b91610a3084866109a9565b6109d7565b9261089d565b60028204915f5b838110610aab57506002830290035f8111610a5e575b50505050565b925f935f5b818110610a785750505001555f808080610a58565b9091946020610a9f600192610a94610a8f8a610612565b61041b565b9085601002906109dd565b96019101919091610a63565b5f805b60028110610ac55750906001918185015501610a42565b95906020610aeb600192610ae0610adb86610612565b61041b565b908a601002906109dd565b92019601610aae565b6100db565b90610b0391610a07565b565b610b19610b14610b1e92610133565b6103fc565b610133565b90565b610b2a90610b05565b90565b610b3690610b21565b90565b90610b4a60018060a01b0391610735565b9181191691161790565b610b5d90610b21565b90565b90565b90610b78610b73610b7f92610b54565b610b60565b8254610b39565b9055565b5096979492939190610b93611022565b439785610ba8610ba28b61019b565b916105be565b1115610e145783610bc1610bbb8861016d565b9161016d565b1115610df857610bd0886105da565b9889610be4610bde5f61055b565b9161019b565b1115610ddc57610c05610c008a610bfa5f61055b565b906105f2565b610612565b610c17610c118961016d565b9161016d565b03610dc057610c258b61061f565b610c37610c318c61019b565b9161019b565b03610da457610c74610c48836110df565b610c6c610c54866110df565b91610c66610c60610642565b91610675565b906106a5565b608052610675565b60a052610c805f61055b565b5b80610c94610c8e8d61019b565b9161019b565b1015610ce257610cdd90610cd8610cb4610caf8f84906106d6565b6106f6565b610cd38d610ccd610cc8600b9287906105f2565b610612565b9061071f565b61076f565b6106c7565b610c81565b50610d9b979a50610da29950610d6f610d7b93610d6a610d63610d829795610d5e610d949b9c9e610d57610d50610d7699610d2f610d28610d2360a06106f6565b6112d2565b601261076f565b610d4b610d44610d3f60146107b3565b6107c0565b60146107fc565b61081c565b6014610838565b600c610af9565b610b2d565b600d610b63565b610b2d565b600e610b63565b610b2d565b600f610b63565b610d8d8560046107fc565b6004610838565b600661076f565b60056107fc565b565b5f6307e11acb60e51b815280610dbc60048201610469565b0390fd5b5f633e8b0d5360e21b815280610dd860048201610469565b0390fd5b5f63558f515760e11b815280610df460048201610469565b0390fd5b5f6389edc18d60e01b815280610e1060048201610469565b0390fd5b5f6378818b5f60e01b815280610e2c60048201610469565b0390fd5b90610e569897969594939291610e4581610ea2565b610e51605a600561041e565b61046e565b565b90610e6460ff91610735565b9181191691161790565b151590565b610e7c90610e6e565b90565b90565b90610e97610e92610e9e92610e73565b610e7f565b8254610e58565b9055565b610eab90610ee4565b610eb65f6002610e82565b565b90565b610ecf610eca610ed492610eb8565b6103fc565b61019b565b90565b610ee16001610ebb565b90565b610eed90610f23565b610eff610ef8610ed7565b600161076f565b565b610f0a9061013e565b9052565b9190610f21905f60208501940190610f01565b565b80610f3e610f38610f335f61045d565b61013e565b9161013e565b14610f4e57610f4c90611455565b565b610f71610f5a5f61045d565b5f918291631e4fbdf760e01b835260048301610f0e565b0390fd5b90565b610f8c610f87610f9192610f75565b6103fc565b610133565b90565b610f9d90610f78565b90565b610fa990610b05565b90565b610fb590610fa0565b90565b90565b90610fd0610fcb610fd792610fac565b610fb8565b8254610b39565b9055565b610fe490610b05565b90565b610ff090610fdb565b90565b610ffc90610fdb565b90565b90565b9061101761101261101e92610ff3565b610fff565b8254610b39565b9055565b611037611030610868610f94565b600a610fbb565b61105e61105773ef81930aa8ed07c17948b2e26b7bfaf20144ef2a610fe7565b6010611002565b565b5f90565b61106d90610b05565b90565b61107990611064565b90565b61108590610fa0565b90565b60e01b90565b6110978161065b565b0361109e57565b5f80fd5b905051906110af8261108e565b565b906020828203126110ca576110c7915f016110a2565b90565b61012b565b6110d76100c7565b3d5f823e3d90fd5b9061111460206110fe6110f96110f3611060565b95611070565b61107c565b63313ce5679061110c6100c7565b938492611088565b8252818061112460048201610469565b03915afa80915f92611164575b50155f1461115e5750600161114257565b5f6306d1762b60e41b81528061115a60048201610469565b0390fd5b90915090565b61118691925060203d811161118d575b61117e81836100ef565b8101906110b1565b905f611131565b503d611174565b60018060a01b031690565b6111ab6111b09161078f565b611194565b90565b6111bd905461119f565b90565b6111c990610fa0565b90565b60018060a01b031690565b6111e36111e89161078f565b6111cc565b90565b6111f590546111d7565b90565b61120190610fa0565b90565b61ffff60f01b1690565b61121781611204565b0361121e57565b5f80fd5b9050519061122f8261120e565b565b9060208282031261124a57611247915f01611222565b90565b61012b565b5f80fd5b919060408382031261128d576112869061126d6040610116565b9361127a825f83016101b2565b5f8601526020016101b2565b6020830152565b61124f565b906040828203126112ab576112a8915f01611253565b90565b61012b565b6112b990611204565b9052565b91906112d0905f602085019401906112b0565b565b61132e906112de6108f1565b5060206112f36112ee60106111b3565b6111c0565b63b23060109061132361130e611309600f6111eb565b6111f8565b926113176100c7565b96879485938493611088565b835260048301610f0e565b03915afa91821561142457611381926040915f916113f6575b5061135a61135560106111b3565b6111c0565b611376631443d5b061136a6100c7565b96879485938493611088565b8352600483016112bd565b03915afa9182156113f15760206113b36113c0946113ba935f916113c3575b50936113ad5f86016106f6565b9061085c565b92016106f6565b906106a5565b90565b6113e4915060403d81116113ea575b6113dc81836100ef565b810190611292565b5f6113a0565b503d6113d2565b6110cf565b611417915060203d811161141d575b61140f81836100ef565b810190611231565b5f611347565b503d611405565b6110cf565b60018060a01b031690565b6114406114459161078f565b611429565b90565b6114529054611434565b90565b61145e5f611448565b611468825f610fbb565b9061149c6114967f8be0079c531659141344cd1fd0a4f28419497f9722a3daafe3b4186f6b6457e093610fac565b91610fac565b916114a56100c7565b806114af81610469565b0390a356fe60806040526004361015610013575b6113c7565b61001d5f3561031c565b8063018bcf5c146103175780630417cf8e1461031257806306508ebc1461030d578063083c632314610308578063129989a3146103035780632e17de78146102fe57806333d8773d146102f95780633f4ba83a146102f457806348cd4cb1146102ef5780634b60ce77146102ea5780634f7ff503146102e5578063534a9d00146102e0578063544c2d76146102db5780635bf0fa89146102d65780635c975abb146102d157806360246c88146102cc5780636cf56846146102c7578063715018a6146102c257806372cacb70146102bd57806372e48cf3146102b85780637d334107146102b357806380729f17146102ae57806381cadea0146102a95780638456cb59146102a457806384d38d481461029f5780638da5cb5b1461029a5780638e70fa8c146102955780639168ae7214610290578063976251e61461028b57806399dc0390146102865780639b4f8321146102815780639c8aea901461027c578063a694fc3a14610277578063a748afb014610272578063aac9ce5c1461026d578063ab7302bb14610268578063b1f0af1b14610263578063b64a025e1461025e578063b66a72df14610259578063b87a6aeb14610254578063bb8afc7b1461024f578063bfc55b8a1461024a578063c0a77da914610245578063d065cf8e14610240578063ef4cadc51461023b578063f2fde38b14610236578063f73a8b5c146102315763fce88e6f0361000e57611391565b61135c565b611329565b6112f4565b61129b565b61122b565b6111f6565b6111b2565b611159565b611098565b611056565b611021565b610fde565b610fab565b610f76565b610f34565b610f01565b610ecc565b610e88565b610e44565b610d92565b610ccc565b610c88565b610c53565b610c10565b610bdb565b610b97565b610b62565b610b2f565b610afa565b610a84565b610a4f565b6109a8565b610935565b6108d9565b6108a4565b610860565b61082b565b6107e7565b61071c565b6106da565b6106a5565b61063a565b6105c4565b61052d565b6104e8565b61042e565b61038d565b60e01c90565b60405190565b5f80fd5b5f80fd5b60018060a01b031690565b61034490610330565b90565b6103508161033b565b0361035757565b5f80fd5b9050359061036882610347565b565b9060208282031261038357610380915f0161035b565b90565b61032c565b5f0190565b346103bb576103a56103a036600461036a565b6115a0565b6103ad610322565b806103b781610388565b0390f35b610328565b5f9103126103ca57565b61032c565b90565b90565b90565b6103ec6103e76103f1926103cf565b6103d5565b6103d2565b90565b6103fe601e6103d8565b90565b6104096103f4565b90565b610415906103d2565b9052565b919061042c905f6020850194019061040c565b565b3461045e5761043e3660046103c0565b61045a610449610401565b610451610322565b91829182610419565b0390f35b610328565b1c90565b6fffffffffffffffffffffffffffffffff1690565b61048c9060086104919302610463565b610467565b90565b9061049f915461047c565b90565b6104ae60145f90610494565b90565b6fffffffffffffffffffffffffffffffff1690565b6104cf906104b1565b9052565b91906104e6905f602085019401906104c6565b565b34610518576104f83660046103c0565b6105146105036104a2565b61050b610322565b918291826104d3565b0390f35b610328565b61052a6004601090610494565b90565b3461055d5761053d3660046103c0565b61055961054861051d565b610550610322565b918291826104d3565b0390f35b610328565b60018060a01b031690565b61057d9060086105829302610463565b610562565b90565b90610590915461056d565b90565b61059f600a5f90610585565b90565b6105ab9061033b565b9052565b91906105c2905f602085019401906105a2565b565b346105f4576105d43660046103c0565b6105f06105df610593565b6105e7610322565b918291826105af565b0390f35b610328565b610602816103d2565b0361060957565b5f80fd5b9050359061061a826105f9565b565b9060208282031261063557610632915f0161060d565b90565b61032c565b346106685761065261064d36600461061c565b611a91565b61065a610322565b8061066481610388565b0390f35b610328565b90565b6106809060086106859302610463565b61066d565b90565b906106939154610670565b90565b6106a260035f90610688565b90565b346106d5576106b53660046103c0565b6106d16106c0610696565b6106c8610322565b91829182610419565b0390f35b610328565b34610708576106ea3660046103c0565b6106f2611b0e565b6106fa610322565b8061070481610388565b0390f35b610328565b61071960045f90610494565b90565b3461074c5761072c3660046103c0565b61074861073761070d565b61073f610322565b918291826104d3565b0390f35b610328565b60018060a01b031690565b61076c9060086107719302610463565b610751565b90565b9061077f915461075c565b90565b61078e600d5f90610774565b90565b6107a56107a06107aa92610330565b6103d5565b610330565b90565b6107b690610791565b90565b6107c2906107ad565b90565b6107ce906107b9565b9052565b91906107e5905f602085019401906107c5565b565b34610817576107f73660046103c0565b610813610802610782565b61080a610322565b918291826107d2565b0390f35b610328565b61082860075f90610688565b90565b3461085b5761083b3660046103c0565b61085761084661081c565b61084e610322565b91829182610419565b0390f35b610328565b34610890576108703660046103c0565b61088c61087b611b1c565b610883610322565b91829182610419565b0390f35b610328565b6108a160085f90610688565b90565b346108d4576108b43660046103c0565b6108d06108bf610895565b6108c7610322565b91829182610419565b0390f35b610328565b34610909576109056108f46108ef36600461061c565b611bb7565b6108fc610322565b91829182610419565b0390f35b610328565b151590565b61091c9061090e565b9052565b9190610933905f60208501940190610913565b565b34610965576109453660046103c0565b610961610950611c84565b610958610322565b91829182610920565b0390f35b610328565b61099f6109a69461099560609498979561098b608086019a5f8701906104c6565b60208501906104c6565b604083019061040c565b019061040c565b565b346109dc576109b83660046103c0565b6109d86109c3611cbf565b906109cf949294610322565b9485948561096a565b0390f35b610328565b60018060a01b031690565b6109fc906008610a019302610463565b6109e1565b90565b90610a0f91546109ec565b90565b610a1e60105f90610a04565b90565b610a2a906107ad565b90565b610a3690610a21565b9052565b9190610a4d905f60208501940190610a2d565b565b34610a7f57610a5f3660046103c0565b610a7b610a6a610a12565b610a72610322565b91829182610a3a565b0390f35b610328565b34610ab257610a943660046103c0565b610a9c611d5e565b610aa4610322565b80610aae81610388565b0390f35b610328565b90565b610ace610ac9610ad392610ab7565b6103d5565b6103d2565b90565b610aec6c0c9f2c9cd04674edea40000000610aba565b90565b610af7610ad6565b90565b34610b2a57610b0a3660046103c0565b610b26610b15610aef565b610b1d610322565b91829182610419565b0390f35b610328565b34610b5d57610b3f3660046103c0565b610b47611e89565b610b4f610322565b80610b5981610388565b0390f35b610328565b34610b9257610b8e610b7d610b7836600461036a565b611e93565b610b85610322565b91829182610419565b0390f35b610328565b34610bc757610bc3610bb2610bad36600461036a565b611ed9565b610bba610322565b91829182610419565b0390f35b610328565b610bd860065f90610688565b90565b34610c0b57610beb3660046103c0565b610c07610bf6610bcc565b610bfe610322565b91829182610419565b0390f35b610328565b34610c3e57610c203660046103c0565b610c28611fe7565b610c30610322565b80610c3a81610388565b0390f35b610328565b610c506005601090610494565b90565b34610c8357610c633660046103c0565b610c7f610c6e610c43565b610c76610322565b918291826104d3565b0390f35b610328565b34610cb857610c983660046103c0565b610cb4610ca3611ff5565b610cab610322565b918291826105af565b0390f35b610328565b610cc9600f5f90610774565b90565b34610cfc57610cdc3660046103c0565b610cf8610ce7610cbd565b610cef610322565b918291826107d2565b0390f35b610328565b610d0a906107ad565b90565b90610d1790610d01565b5f5260205260405f2090565b5f1c90565b610d34610d3991610d23565b61066d565b90565b610d469054610d28565b90565b610d54906011610d0d565b90610d6c6001610d655f8501610d3c565b9301610d3c565b90565b916020610d90929493610d8960408201965f83019061040c565b019061040c565b565b34610dc357610daa610da536600461036a565b610d49565b90610dbf610db6610322565b92839283610d6f565b0390f35b610328565b634e487b7160e01b5f52603260045260245ffd5b5490565b5f5260205f2090565b919091610df581610ddc565b831015610e13576002610e09601092610de0565b8185040193060290565b610dc8565b600c610e2381610ddc565b821015610e4057610e3d91610e3791610de9565b90610494565b90565b5f80fd5b34610e7457610e70610e5f610e5a36600461061c565b610e18565b610e67610322565b918291826104d3565b0390f35b610328565b610e85600e5f90610774565b90565b34610eb857610e983660046103c0565b610eb4610ea3610e79565b610eab610322565b918291826107d2565b0390f35b610328565b610ec960125f90610688565b90565b34610efc57610edc3660046103c0565b610ef8610ee7610ebd565b610eef610322565b91829182610419565b0390f35b610328565b34610f2f57610f113660046103c0565b610f19612206565b610f21610322565b80610f2b81610388565b0390f35b610328565b34610f6257610f4c610f4736600461061c565b61250e565b610f54610322565b80610f5e81610388565b0390f35b610328565b610f7360095f90610688565b90565b34610fa657610f863660046103c0565b610fa2610f91610f67565b610f99610322565b91829182610419565b0390f35b610328565b34610fd957610fc3610fbe36600461036a565b6125d8565b610fcb610322565b80610fd581610388565b0390f35b610328565b3461100c57610fee3660046103c0565b610ff6612700565b610ffe610322565b8061100881610388565b0390f35b610328565b61101e6014601090610494565b90565b34611051576110313660046103c0565b61104d61103c611011565b611044610322565b918291826104d3565b0390f35b610328565b346110845761106e61106936600461061c565b61287e565b611076610322565b8061108081610388565b0390f35b610328565b61109560135f90610688565b90565b346110c8576110a83660046103c0565b6110c46110b3611089565b6110bb610322565b91829182610419565b0390f35b610328565b6110d6816104b1565b036110dd57565b5f80fd5b905035906110ee826110cd565b565b9060208282031261110957611106915f016110e1565b90565b61032c565b61112261111d611127926104b1565b6103d5565b6104b1565b90565b906111349061110e565b5f5260205260405f2090565b61115690611151600b915f9261112a565b610688565b90565b346111895761118561117461116f3660046110f0565b611140565b61117c610322565b91829182610419565b0390f35b610328565b7f000000000000000000000000000000000000000000000000000000000000000090565b346111e2576111c23660046103c0565b6111de6111cd61118e565b6111d5610322565b91829182610419565b0390f35b610328565b6111f360055f90610494565b90565b34611226576112063660046103c0565b6112226112116111e7565b611219610322565b918291826104d3565b0390f35b610328565b3461125b5761123b3660046103c0565b611257611246612898565b61124e610322565b91829182610419565b0390f35b610328565b60ff1690565b61127690600861127b9302610463565b611260565b90565b906112899154611266565b90565b61129860155f9061127e565b90565b346112cb576112ab3660046103c0565b6112c76112b661128c565b6112be610322565b91829182610920565b0390f35b610328565b7f000000000000000000000000000000000000000000000000000000000000000090565b34611324576113043660046103c0565b61132061130f6112d0565b611317610322565b91829182610419565b0390f35b610328565b346113575761134161133c36600461036a565b6129e3565b611349610322565b8061135381610388565b0390f35b610328565b3461138c5761136c3660046103c0565b6113886113776129ee565b61137f610322565b91829182610419565b0390f35b610328565b346113c2576113a13660046103c0565b6113a9612a89565b906113be6113b5610322565b92839283610d6f565b0390f35b610328565b5f80fd5b6113dc906113d7612ab3565b6113ff565b565b6113ea6113ef91610d23565b610751565b90565b6113fc90546113de565b90565b8061142361141d611418611413600d6113f2565b6107b9565b61033b565b9161033b565b1461143357611431906114fd565b565b5f63dad2afd760e01b81528061144b60048201610388565b0390fd5b61145890610791565b90565b6114649061144f565b90565b611470906107ad565b90565b601f801991011690565b634e487b7160e01b5f52604160045260245ffd5b9061149b90611473565b810190811067ffffffffffffffff8211176114b557604052565b61147d565b60e01b90565b905051906114cd826105f9565b565b906020828203126114e8576114e5915f016114c0565b90565b61032c565b6114f5610322565b3d5f823e3d90fd5b6115096115469161145b565b6020611514826107b9565b6370a082319061153b61152630611467565b9261152f610322565b968794859384936114ba565b8352600483016105af565b03915afa801561159b5761156b925f9161156d575b50611564611ff5565b9091612b55565b565b61158e915060203d8111611594575b6115868183611491565b8101906114cf565b5f61155b565b503d61157c565b6114ed565b6115a9906113cb565b565b90565b6115c26115bd6115c7926115ab565b6103d5565b6103d2565b90565b806115dd6115d75f6115ae565b916103d2565b146115ed576115eb90611609565b565b5f6307a1cab560e11b81528061160560048201610388565b0390fd5b61161a90611615612ba3565b61161c565b565b61162d90611628612bf9565b61167a565b611635612c7d565b565b60801c90565b61164961164e91611637565b610467565b90565b61165b905461163d565b90565b61167261166d611677926104b1565b6103d5565b6103d2565b90565b6116ab906116886013610d3c565b61169a6116945f6115ae565b916103d2565b1480611705575b6116ad575b6118e7565b565b6117006116d97f0000000000000000000000000000000000000000000000000000000000000000612d80565b7f000000000000000000000000000000000000000000000000000000000000000090613001565b6116a6565b504361172261171c6117176004611651565b61165e565b916103d2565b116116a1565b90611732906103d2565b9052565b90611749611742610322565b9283611491565b565b6117556040611736565b90565b9061178f611786600161176961174b565b946117806117785f8301610d3c565b5f8801611728565b01610d3c565b60208401611728565b565b61179a90611758565b90565b6117a790516103d2565b90565b634e487b7160e01b5f52601160045260245ffd5b6117cd6117d3919392936103d2565b926103d2565b916117df8382026103d2565b9281840414901517156117ee57565b6117aa565b634e487b7160e01b5f52601260045260245ffd5b611813611819916103d2565b916103d2565b908115611824570490565b6117f3565b61183861183e919392936103d2565b926103d2565b820391821161184957565b6117aa565b5f1b90565b9061185f5f199161184e565b9181191691161790565b61187d611878611882926103d2565b6103d5565b6103d2565b90565b90565b9061189d6118986118a492611869565b611885565b8254611853565b9055565b906118d3602060016118d9946118cb5f82016118c55f880161179d565b90611888565b01920161179d565b90611888565b565b906118e5916118a8565b565b611a72906118f36131ca565b90611a1b61190b61190660118590610d0d565b611791565b611a0a611a0361191c8386906131d7565b6119f46119296003610d3c565b61197d61196b61194461193d5f8a0161179d565b84906117be565b7f000000000000000000000000000000000000000000000000000000000000000090611807565b6119776020890161179d565b90611829565b8061199061198a5f6115ae565b916103d2565b11611a74575b506119ec6119e36119bc6119b56119ae5f8b0161179d565b8790611829565b93846117be565b7f000000000000000000000000000000000000000000000000000000000000000090611807565b60208801611728565b5f8601611728565b6119fe6008610d3c565b611829565b6008611888565b611a1660118590610d0d565b6118db565b818190611a5d611a4b7f0f5bb82176feb1b5e747e28471aa92156a04d9f3ab9f45f28e2d704232b93f7592610d01565b92611a54610322565b91829182610419565b0390a2611a6a600e6113f2565b919091612b55565b565b611a8b90611a82600d6113f2565b90339091612b55565b5f611996565b611a9a906115ca565b565b611aa8611aad91610d23565b610562565b90565b611aba9054611a9c565b90565b33611ad9611ad3611ace600a611ab0565b61033b565b9161033b565b03611ae857611ae6611b04565b565b5f63d4d7478360e01b815280611b0060048201610388565b0390fd5b611b0c6133b2565b565b611b16611abd565b565b5f90565b611b24611b18565b50611b6e6020611b3c611b37600e6113f2565b6107b9565b6370a0823190611b63611b4e30611467565b92611b57610322565b958694859384936114ba565b8352600483016105af565b03915afa908115611bb2575f91611b84575b5090565b611ba5915060203d8111611bab575b611b9d8183611491565b8101906114cf565b5f611b80565b503d611b93565b6114ed565b611bbf611b18565b5043611bdc611bd6611bd16004611651565b61165e565b916103d2565b11155f14611c1d57611bed90613505565b905b611bf7611b1c565b82611c0a611c04836103d2565b916103d2565b11611c13575b50565b909150905f611c10565b611c5990611c54611c2c6133bc565b917f0000000000000000000000000000000000000000000000000000000000000000906117be565b611807565b90611bef565b5f90565b611c6f611c7491610d23565b611260565b90565b611c819054611c63565b90565b611c8c611c5f565b50611c976002611c77565b90565b5f90565b611caa611caf91610d23565b610467565b90565b611cbc9054611c9e565b90565b611cc7611c9a565b50611cd0611c9a565b50611cd9611b18565b50611ce2611b18565b50611ced6004611cb2565b90611cf86004611651565b91611d016129ee565b91611d0a612898565b9193929190565b611d19612ab3565b611d21611d4b565b565b611d37611d32611d3c926115ab565b6103d5565b610330565b90565b611d4890611d23565b90565b611d5c611d575f611d3f565b61367f565b565b611d66611d11565b565b611d70612ab3565b611d78611d7a565b565b611d82612bf9565b611d8a611d94565b611d92612c7d565b565b611d9e6013610d3c565b611db0611daa5f6115ae565b916103d2565b1480611e1e575b611dc6575b611dc4611e41565b565b611e19611df27f0000000000000000000000000000000000000000000000000000000000000000612d80565b7f000000000000000000000000000000000000000000000000000000000000000090613001565b611dbc565b5043611e3b611e35611e306004611651565b61165e565b916103d2565b11611db7565b611e87611e6b611e4f6136fd565b9190611e5b600e6113f2565b90611e64611ff5565b9091612b55565b611e75600e6113f2565b90611e80600a611ab0565b9091612b55565b565b611e91611d68565b565b5f611eab611eb192611ea3611b18565b506011610d0d565b01610d3c565b90565b611ec3611ec9919392936103d2565b926103d2565b8201809211611ed457565b6117aa565b611ef0611ef591611ee8611b18565b506011610d0d565b611791565b611f005f820161179d565b611f12611f0c5f6115ae565b916103d2565b14611f895780611f806020611f79611f52611f315f611f86970161179d565b611f4c611f3e6003610d3c565b611f46613843565b90611eb4565b906117be565b7f000000000000000000000000000000000000000000000000000000000000000090611807565b920161179d565b90611829565b90565b50611f935f6115ae565b90565b33611fb2611fac611fa7600a611ab0565b61033b565b9161033b565b03611fc157611fbf611fdd565b565b5f63d4d7478360e01b815280611fd960048201610388565b0390fd5b611fe5613b67565b565b611fef611f96565b565b5f90565b611ffd611ff1565b506120075f611ab0565b90565b3361202661202061201b600a611ab0565b61033b565b9161033b565b0361203557612033612051565b565b5f63d4d7478360e01b81528061204d60048201610388565b0390fd5b4361206d6120676120626004611651565b61165e565b916103d2565b111561207d5761207b612099565b565b5f63c00b64a160e01b81528061209560048201610388565b0390fd5b6120a1612bf9565b6120a96120b3565b6120b1612c7d565b565b6120bd6013610d3c565b6120cf6120c95f6115ae565b916103d2565b148061213d575b6120e5575b6120e36121a5565b565b6121386121117f0000000000000000000000000000000000000000000000000000000000000000612d80565b7f000000000000000000000000000000000000000000000000000000000000000090613001565b6120db565b504361215a61215461214f6004611651565b61165e565b916103d2565b116120d6565b9061216c60ff9161184e565b9181191691161790565b61217f9061090e565b90565b90565b9061219a6121956121a192612176565b612182565b8254612160565b9055565b6121af6015611c77565b6121ea576121bf60016015612185565b6121e86121ca6136fd565b90506121d6600e6113f2565b906121e1600a611ab0565b9091612b55565b565b5f63dac5eb0f60e01b81528061220260048201610388565b0390fd5b61220e61200a565b565b8061222361221d5f6115ae565b916103d2565b14612233576122319061224f565b565b5f6307a1cab560e11b81528061224b60048201610388565b0390fd5b4361226b6122656122606004611cb2565b61165e565b916103d2565b10801561229e575b61228257612280906122c1565b565b5f63a2255c1760e01b81528061229a60048201610388565b0390fd5b50436122bb6122b56122b06004611651565b61165e565b916103d2565b11612273565b6122d2906122cd612ba3565b6122d4565b565b6122e5906122e0612bf9565b6122f2565b6122ed612c7d565b565b90565b8061230e6123086123036006610d3c565b6103d2565b916103d2565b116124f25761241461232a61232560113390610d0d565b6122ef565b6123a461239d61233985612d80565b612344818790613001565b61234c613b71565b6123575f8501610d3c565b6123696123635f6115ae565b916103d2565b11612459575b61238e816123885f87019161238383610d3c565b611eb4565b90611888565b6123986008610d3c565b611eb4565b6008611888565b6123c36123b1600e6113f2565b336123bb30611467565b908692613c48565b600161240d6123e66123d65f8501610d3c565b6123e06003610d3c565b906117be565b7f000000000000000000000000000000000000000000000000000000000000000090611807565b9101611888565b336124546124427f9e71bc8eea02a63969f509818f2dafb9254532904319f9dbda79b67bd34a5f3d92610d01565b9261244b610322565b91829182610419565b0390a2565b6124b66124a461247d61246d5f8801610d3c565b6124776003610d3c565b906117be565b7f000000000000000000000000000000000000000000000000000000000000000090611807565b6124b060018701610d3c565b90611829565b806124c96124c35f6115ae565b916103d2565b116124d5575b5061236f565b6124ec906124e3600d6113f2565b90339091612b55565b5f6124cf565b5f632b5dea7560e01b81528061250a60048201610388565b0390fd5b61251790612210565b565b3361253561252f61252a600a611ab0565b61033b565b9161033b565b0361254557612543906125c3565b565b5f63d4d7478360e01b81528061255d60048201610388565b0390fd5b61256a90610791565b90565b61257690612561565b90565b9061258a60018060a01b039161184e565b9181191691161790565b61259d90612561565b90565b90565b906125b86125b36125bf92612594565b6125a0565b8254612579565b9055565b6125cf6125d69161256d565b60106125a3565b565b6125e190612519565b565b6125eb612ab3565b6125f36125f5565b565b4361261161260b6126066004611651565b61165e565b916103d2565b11156126215761261f61263d565b565b5f63c00b64a160e01b81528061263960048201610388565b0390fd5b612686602061265461264f600d6113f2565b6107b9565b6370a082319061267b61266630611467565b9261266f610322565b958694859384936114ba565b8352600483016105af565b03915afa80156126fb576126cb915f916126cd575b506126b16126a9600d6113f2565b338391612b55565b6126bb600d6113f2565b906126c4611ff5565b9091612b55565b565b6126ee915060203d81116126f4575b6126e68183611491565b8101906114cf565b5f61269b565b503d6126dc565b6114ed565b6127086125e3565b565b8061271d6127175f6115ae565b916103d2565b1461272d5761272b90612749565b565b5f6307a1cab560e11b81528061274560048201610388565b0390fd5b61275a90612755612bf9565b612764565b612762612c7d565b565b61287c906128246127736131ca565b61281f61278a61278560118490610d0d565b611791565b61281761281061279b8388906131d7565b6127b06127a95f860161179d565b8990613001565b6127b8613b71565b6127d7816127d15f8701916127cc8361179d565b611829565b90611728565b6128016127f86127e85f870161179d565b6127f26003610d3c565b906117be565b60208601611728565b61280b6008610d3c565b611829565b6008611888565b916011610d0d565b6118db565b3381906128666128547f0f5bb82176feb1b5e747e28471aa92156a04d9f3ab9f45f28e2d704232b93f7592610d01565b9261285d610322565b91829182610419565b0390a2612873600e6113f2565b90339091612b55565b565b6128879061270a565b565b600161289591016103d2565b90565b6128a0611b18565b50436128bd6128b76128b26004611651565b61165e565b916103d2565b101561297257436128cd5f6115ae565b6128d7600c610ddc565b916128e26009610d3c565b915b826128f76128f1866103d2565b916103d2565b1015612969578161292461291e612919612913600c8890610de9565b90610494565b61165e565b916103d2565b10612961575061295b612955612950600b61294a612944600c8890610de9565b90610494565b9061112a565b610d3c565b92612889565b916128e4565b925050505b90565b92505050612966565b61297b5f6115ae565b90565b61298f9061298a612ab3565b612991565b565b806129ac6129a66129a15f611d3f565b61033b565b9161033b565b146129bc576129ba9061367f565b565b6129df6129c85f611d3f565b5f918291631e4fbdf760e01b8352600483016105af565b0390fd5b6129ec9061297e565b565b6129f6611b18565b50612a406020612a0e612a09600d6113f2565b6107b9565b6370a0823190612a35612a2030611467565b92612a29610322565b958694859384936114ba565b8352600483016105af565b03915afa908115612a84575f91612a56575b5090565b612a77915060203d8111612a7d575b612a6f8183611491565b8101906114cf565b5f612a52565b503d612a65565b6114ed565b612a91611b18565b50612a9a611b18565b50612aa56006610d3c565b90612ab06007610d3c565b90565b612abb611ff5565b612ad4612ace612ac96131ca565b61033b565b9161033b565b03612adb57565b612afd612ae66131ca565b5f91829163118cdaa760e01b8352600483016105af565b0390fd5b63ffffffff1690565b63ffffffff60e01b1690565b612b2a612b25612b2f92612b01565b6114ba565b612b0a565b90565b916020612b53929493612b4c60408201965f8301906105a2565b019061040c565b565b90612b9c612ba193612b8d60049493612b7463a9059cbb919391612b16565b92612b7d610322565b9687946020860190815201612b32565b60208201810382520383611491565b613c98565b565b612bab611c84565b612bb157565b5f63d93c066560e01b815280612bc960048201610388565b0390fd5b90565b612be4612bdf612be992612bcd565b6103d5565b6103d2565b90565b612bf66002612bd0565b90565b612c036001610d3c565b612c1c612c16612c11612bec565b6103d2565b916103d2565b14612c3557612c33612c2c612bec565b6001611888565b565b5f633ee5aeb560e01b815280612c4d60048201610388565b0390fd5b90565b612c68612c63612c6d92612c51565b6103d5565b6103d2565b90565b612c7a6001612c54565b90565b612c8f612c88612c70565b6001611888565b565b612c9d612ca291610d23565b6109e1565b90565b612caf9054612c91565b90565b61ffff60f01b1690565b612cc581612cb2565b03612ccc57565b5f80fd5b90505190612cdd82612cbc565b565b90602082820312612cf857612cf5915f01612cd0565b90565b61032c565b5f80fd5b9190604083820312612d3b57612d3490612d1b6040611736565b93612d28825f83016114c0565b5f8601526020016114c0565b6020830152565b612cfd565b90604082820312612d5957612d56915f01612d01565b90565b61032c565b612d6790612cb2565b9052565b9190612d7e905f60208501940190612d5e565b565b612ddc90612d8c611b18565b506020612da1612d9c6010612ca5565b610a21565b63b230601090612dd1612dbc612db7600f6113f2565b6107b9565b92612dc5610322565b968794859384936114ba565b8352600483016105af565b03915afa918215612ed257612e2f926040915f91612ea4575b50612e08612e036010612ca5565b610a21565b612e24631443d5b0612e18610322565b968794859384936114ba565b835260048301612d6b565b03915afa918215612e9f576020612e61612e6e94612e68935f91612e71575b5093612e5b5f860161179d565b906117be565b920161179d565b90611807565b90565b612e92915060403d8111612e98575b612e8a8183611491565b810190612d40565b5f612e4e565b503d612e80565b6114ed565b612ec5915060203d8111612ecb575b612ebd8183611491565b810190612cdf565b5f612df5565b503d612eb3565b6114ed565b612eeb612ee6612ef0926103d2565b6103d5565b6104b1565b90565b60801b90565b90612f156fffffffffffffffffffffffffffffffff1991612ef3565b9181191691161790565b90565b90612f37612f32612f3e9261110e565b612f1f565b8254612ef9565b9055565b612f56612f51612f5b92612c51565b6103d5565b6104b1565b90565b612f6a612f70916104b1565b916104b1565b9003906fffffffffffffffffffffffffffffffff8211612f8c57565b6117aa565b612f9a906104b1565b6fffffffffffffffffffffffffffffffff8114612fb75760010190565b6117aa565b90612fd76fffffffffffffffffffffffffffffffff9161184e565b9181191691161790565b90612ff6612ff1612ffd9261110e565b612f1f565b8254612fbc565b9055565b9043916130208361301a6130156014611651565b61165e565b90611829565b908161303461302e5f6115ae565b916103d2565b146131c4578361305561304f61304a6004611651565b61165e565b916103d2565b11926130616013610d3c565b61307361306d5f6115ae565b916103d2565b118490816131bc575b506131b5576130af6130b4927f0000000000000000000000000000000000000000000000000000000000000000906117be565b611807565b91826130d16130cb6130c66012610d3c565b6103d2565b916103d2565b11156131af5761316c938361310961310261314d956130fd613165986130f76012610d3c565b90611829565b611807565b931561090e565b61318a575b505061314861311d6013610d3c565b61314261313d61312d6014611cb2565b6131376001612f42565b90612f5e565b61165e565b906117be565b611eb4565b61315f61315a6014611cb2565b61165e565b90611807565b6013611888565b61318861318161317c6014611cb2565b612f91565b6014612fe1565b565b6131a89161319c6131a1926012611888565b612ed7565b6014612f22565b5f8061310e565b50505050565b5050505050565b90505f61307c565b50505050565b6131d2611ff1565b503390565b6131df611b18565b506131eb5f820161179d565b6131fd6131f75f6115ae565b916103d2565b14613336574361321e6132186132136004611651565b61165e565b916103d2565b115f146133275761322f6013610d3c565b61324161323b5f6115ae565b916103d2565b145f146132e65761325182612d80565b9161325d838290613001565b5b5b61328461327e6132786132735f860161179d565b611bb7565b926103d2565b916103d2565b106132ca575f613294910161179d565b6132a66132a0836103d2565b916103d2565b106132ae5790565b5f6310aa0f2160e21b8152806132c660048201610388565b0390fd5b5f63068ab5c560e31b8152806132e260048201610388565b0390fd5b6133216132fa6132f46133bc565b846117be565b7f000000000000000000000000000000000000000000000000000000000000000090611807565b9161325e565b61333082612d80565b9161325f565b5f6307a1cab560e11b81528061334e60048201610388565b0390fd5b61335a613d4c565b613362613364565b565b61336f5f6002612185565b6133776131ca565b6133ad7f5db9ee0a495bf2e6ff9c91a7834c1ba4fdd244a5e8aa4e537bd38aeae4b073aa916133a4610322565b918291826105af565b0390a1565b6133ba613352565b565b6133c4611b18565b506133ea6133e56133d56004611651565b6133df6014611651565b90612f5e565b61165e565b436134066134006133fb6004611651565b61165e565b916103d2565b11806134e2575b61343b57613438906134326134226012610d3c565b9161342d6013610d3c565b6117be565b90611eb4565b90565b506134df6134a061347e61346e7f0000000000000000000000000000000000000000000000000000000000000000612d80565b6134786012610d3c565b90611829565b61349a4361349461348f6014611651565b61165e565b90611829565b90611807565b6134d96134ad6012610d3c565b916134d36134ce6134be6004611651565b6134c86014611651565b90612f5e565b61165e565b906117be565b90611eb4565b90565b506134ed6013610d3c565b6134ff6134f95f6115ae565b916103d2565b1461340d565b61356190613511611b18565b5060206135266135216010612ca5565b610a21565b63b23060109061355661354161353c600f6113f2565b6107b9565b9261354a610322565b968794859384936114ba565b8352600483016105af565b03915afa918215613657576135b4926040915f91613629575b5061358d6135886010612ca5565b610a21565b6135a9631443d5b061359d610322565b968794859384936114ba565b835260048301612d6b565b03915afa918215613624575f6135e66135f3946135ed9383916135f6575b50936135e06020860161179d565b906117be565b920161179d565b90611807565b90565b613617915060403d811161361d575b61360f8183611491565b810190612d40565b5f6135d2565b503d613605565b6114ed565b61364a915060203d8111613650575b6136428183611491565b810190612cdf565b5f61357a565b503d613638565b6114ed565b90565b9061367461366f61367b92610d01565b61365c565b8254612579565b9055565b6136885f611ab0565b613692825f61365f565b906136c66136c07f8be0079c531659141344cd1fd0a4f28419497f9722a3daafe3b4186f6b6457e093610d01565b91610d01565b916136cf610322565b806136d981610388565b0390a3565b90565b6136f56136f06136fa926136de565b6103d5565b6103d2565b90565b613705611b18565b5061370e611b18565b506137586020613726613721600e6113f2565b6107b9565b6370a082319061374d61373830611467565b92613741610322565b958694859384936114ba565b8352600483016105af565b03915afa90811561383e575f91613810575b508061377e6137785f6115ae565b916103d2565b146137f75761379f906137996137946008610d3c565b611bb7565b90611829565b906137aa6015611c77565b6137eb576137e86137e06137d0846137ca6137c56005611651565b61165e565b906117be565b6137da60646136e1565b90611807565b928390611829565b90565b6137f45f6115ae565b90565b505f9061380d6138075f936115ae565b926115ae565b90565b613831915060203d8111613837575b6138298183611491565b8101906114cf565b5f61376a565b503d61381f565b6114ed565b61384b611b18565b506138566008610d3c565b6138686138625f6115ae565b916103d2565b14613afa57436138786005611cb2565b90613881611c9a565b9161388c600c610ddc565b926138965f6115ae565b6138a06009610d3c565b915b826138b56138af886103d2565b916103d2565b1015613adf57506138d16138cb600c8490610de9565b90610494565b90816138e56138df876103d2565b9161165e565b1015613a0057816138fe6138f8866104b1565b916104b1565b11156139f6576139ae61399e61397761392f6139b4959697613929613923899261165e565b9161165e565b90613d7f565b61397261396d600b8a61394a6139445f6115ae565b916103d2565b145f146139c757613966613960600c5f90610de9565b90610494565b905b61112a565b610d3c565b6117be565b7f0000000000000000000000000000000000000000000000000000000000000000906117be565b6139a86008610d3c565b90611807565b90611eb4565b906139c081935b612889565b91906138a2565b6139f06139ea8c6139e4600c916139de6001612c54565b90611829565b90610de9565b90610494565b90613968565b916139c0906139bb565b93613a989550613a5b91613a8293613a25613a92965b613a20859161165e565b613d7f565b92613a39613a3384926103d2565b9161165e565b11155f14613a9b5750613a50613a5591600b61112a565b610d3c565b5b6117be565b7f0000000000000000000000000000000000000000000000000000000000000000906117be565b613a8c6008610d3c565b90611807565b90611eb4565b90565b613ada9150613ad590613acf613ac9600b92613ac3600c91613abd6001612c54565b90611829565b90610de9565b90610494565b9061112a565b610d3c565b613a56565b613a98955093613a5b9194613a8293613a25613a9296613a16565b613b035f6115ae565b90565b613b0e612ba3565b613b16613b18565b565b613b2460016002612185565b613b2c6131ca565b613b627f62e78cea01bee320cd4e420270b5ea74000d11b0c9f74754ebdbfc544b05a25891613b59610322565b918291826105af565b0390a1565b613b6f613b06565b565b4380613b8e613b88613b836005611cb2565b61165e565b916103d2565b14613c1357613b9d6008610d3c565b613baf613ba95f6115ae565b916103d2565b14613bf557613be4613beb91613bdf613bd8613bc9613843565b613bd36003610d3c565b611eb4565b6003611888565b612ed7565b6005612fe1565b613bf3613e08565b565b50613c09613c0243612ed7565b6005612fe1565b613c11613e08565b565b50565b604090613c3f613c469496959396613c3560608401985f8501906105a2565b60208301906105a2565b019061040c565b565b600492613c82613c969593613c919394613c696323b872dd92949192612b16565b93613c72610322565b9788956020870190815201613c16565b60208201810382520383611491565b613c98565b565b905f602091613ca5611b18565b50613cae611b18565b50828151910182855af115613d41573d5f5190613cd3613ccd5f6115ae565b916103d2565b145f14613d275750613ce4816107b9565b3b613cf7613cf15f6115ae565b916103d2565b145b613d005750565b613d0c613d23916107b9565b5f918291635274afe760e01b8352600483016105af565b0390fd5b613d3a613d346001612c54565b916103d2565b1415613cf9565b6040513d5f823e3d90fd5b613d5d613d57611c84565b1561090e565b613d6357565b5f638dfc202b60e01b815280613d7b60048201610388565b0390fd5b90613d88611b18565b5080613da5613d9f613d9a6004611651565b61165e565b916103d2565b11155f14613dba5790613db791611829565b90565b5080613dd7613dd1613dcc6004611651565b61165e565b916103d2565b1015613dfb57613df890613df3613dee6004611651565b61165e565b611829565b90565b50613e055f6115ae565b90565b613e12600c610ddc565b613e1c6009610d3c565b5b80613e30613e2a846103d2565b916103d2565b1015613e8957613e4b613e45600c8390610de9565b90610494565b613e66613e60613e5b6005611cb2565b6104b1565b916104b1565b11613e845780613e7a613e7f926009611888565b612889565b613e1d565b50505b565b5050613e8756fea2646970667358221220a2c61b1569d1de914dc7b38ad928eb3a38fd16002beec676eb60140f951ca57564736f6c634300081a0033",
		"linkReferences": {}
	},
	"methodIdentifiers": {
		"BASE_PRECISION()": "72cacb70",
		"MAX_DECIMALS()": "0417cf8e",
		"ONE_VTOKEN()": "bb8afc7b",
		"SCALING_FACTOR()": "ef4cadc5",
		"acceptedNativeAsset()": "8e70fa8c",
		"acceptedVAsset()": "99dc0390",
		"avgNativeExRateGradient()": "b66a72df",
		"changeBlocks(uint256)": "976251e6",
		"claimLeftoverProjectToken()": "ab7302bb",
		"claimOwnerInterest()": "72e48cf3",
		"claimPlatformFee()": "9c8aea90",
		"cumulativeExchangeRate()": "33d8773d",
		"emissionRateChanges(uint128)": "b87a6aeb",
		"endBlock()": "083c6323",
		"getClaimableProjectToken(address)": "80729f17",
		"getEmissionRate()": "c0a77da9",
		"getPoolInfo()": "60246c88",
		"getStakerNativeAmount(address)": "7d334107",
		"getStakingRange()": "fce88e6f",
		"getTotalProjectToken()": "f73a8b5c",
		"getTotalStakedVTokens()": "534a9d00",
		"getWithdrawableVTokens(uint256)": "5bf0fa89",
		"lastNativeExRate()": "9b4f8321",
		"lastNativeExRateUpdateBlock()": "b1f0af1b",
		"lastProcessedChangeBlockIndex()": "a748afb0",
		"maxStakers()": "4f7ff503",
		"maxVAssetPerStaker()": "81cadea0",
		"nativeExRateSampleCount()": "06508ebc",
		"owner()": "8da5cb5b",
		"ownerShareOfInterest()": "84d38d48",
		"pause()": "8456cb59",
		"paused()": "5c975abb",
		"platformAdminAddress()": "129989a3",
		"platformFeeClaimed()": "d065cf8e",
		"projectToken()": "4b60ce77",
		"recoverWrongToken(address)": "018bcf5c",
		"renounceOwnership()": "715018a6",
		"setXCMOracleAddress(address)": "aac9ce5c",
		"stake(uint256)": "a694fc3a",
		"stakers(address)": "9168ae72",
		"startBlock()": "48cd4cb1",
		"tickBlock()": "bfc55b8a",
		"totalNativeStake()": "544c2d76",
		"transferOwnership(address)": "f2fde38b",
		"unpause()": "3f4ba83a",
		"unstake(uint256)": "2e17de78",
		"unstakeWithoutProjectToken(uint256)": "b64a025e",
		"xcmOracle()": "6cf56846"
	},
	"storageLayout": {
		"storage": [
			{
				"astId": 39589,
				"contract": "src/non-upgradeable/Launchpool.sol:Launchpool",
				"label": "_owner",
				"offset": 0,
				"slot": "0",
				"type": "t_address"
			},
			{
				"astId": 42204,
				"contract": "src/non-upgradeable/Launchpool.sol:Launchpool",
				"label": "_status",
				"offset": 0,
				"slot": "1",
				"type": "t_uint256"
			},
			{
				"astId": 42085,
				"contract": "src/non-upgradeable/Launchpool.sol:Launchpool",
				"label": "_paused",
				"offset": 0,
				"slot": "2",
				"type": "t_bool"
			},
			{
				"astId": 52717,
				"contract": "src/non-upgradeable/Launchpool.sol:Launchpool",
				"label": "cumulativeExchangeRate",
				"offset": 0,
				"slot": "3",
				"type": "t_uint256"
			},
			{
				"astId": 52719,
				"contract": "src/non-upgradeable/Launchpool.sol:Launchpool",
				"label": "startBlock",
				"offset": 0,
				"slot": "4",
				"type": "t_uint128"
			},
			{
				"astId": 52721,
				"contract": "src/non-upgradeable/Launchpool.sol:Launchpool",
				"label": "endBlock",
				"offset": 16,
				"slot": "4",
				"type": "t_uint128"
			},
			{
				"astId": 52723,
				"contract": "src/non-upgradeable/Launchpool.sol:Launchpool",
				"label": "tickBlock",
				"offset": 0,
				"slot": "5",
				"type": "t_uint128"
			},
			{
				"astId": 52726,
				"contract": "src/non-upgradeable/Launchpool.sol:Launchpool",
				"label": "ownerShareOfInterest",
				"offset": 16,
				"slot": "5",
				"type": "t_uint128"
			},
			{
				"astId": 52728,
				"contract": "src/non-upgradeable/Launchpool.sol:Launchpool",
				"label": "maxVAssetPerStaker",
				"offset": 0,
				"slot": "6",
				"type": "t_uint256"
			},
			{
				"astId": 52730,
				"contract": "src/non-upgradeable/Launchpool.sol:Launchpool",
				"label": "maxStakers",
				"offset": 0,
				"slot": "7",
				"type": "t_uint256"
			},
			{
				"astId": 52732,
				"contract": "src/non-upgradeable/Launchpool.sol:Launchpool",
				"label": "totalNativeStake",
				"offset": 0,
				"slot": "8",
				"type": "t_uint256"
			},
			{
				"astId": 52742,
				"contract": "src/non-upgradeable/Launchpool.sol:Launchpool",
				"label": "lastProcessedChangeBlockIndex",
				"offset": 0,
				"slot": "9",
				"type": "t_uint256"
			},
			{
				"astId": 52744,
				"contract": "src/non-upgradeable/Launchpool.sol:Launchpool",
				"label": "platformAdminAddress",
				"offset": 0,
				"slot": "10",
				"type": "t_address"
			},
			{
				"astId": 52748,
				"contract": "src/non-upgradeable/Launchpool.sol:Launchpool",
				"label": "emissionRateChanges",
				"offset": 0,
				"slot": "11",
				"type": "t_mapping(t_uint128,t_uint256)"
			},
			{
				"astId": 52751,
				"contract": "src/non-upgradeable/Launchpool.sol:Launchpool",
				"label": "changeBlocks",
				"offset": 0,
				"slot": "12",
				"type": "t_array(t_uint128)dyn_storage"
			},
			{
				"astId": 52754,
				"contract": "src/non-upgradeable/Launchpool.sol:Launchpool",
				"label": "projectToken",
				"offset": 0,
				"slot": "13",
				"type": "t_contract(IERC20)41277"
			},
			{
				"astId": 52757,
				"contract": "src/non-upgradeable/Launchpool.sol:Launchpool",
				"label": "acceptedVAsset",
				"offset": 0,
				"slot": "14",
				"type": "t_contract(IERC20)41277"
			},
			{
				"astId": 52760,
				"contract": "src/non-upgradeable/Launchpool.sol:Launchpool",
				"label": "acceptedNativeAsset",
				"offset": 0,
				"slot": "15",
				"type": "t_contract(IERC20)41277"
			},
			{
				"astId": 52763,
				"contract": "src/non-upgradeable/Launchpool.sol:Launchpool",
				"label": "xcmOracle",
				"offset": 0,
				"slot": "16",
				"type": "t_contract(IXCMOracle)52077"
			},
			{
				"astId": 52768,
				"contract": "src/non-upgradeable/Launchpool.sol:Launchpool",
				"label": "stakers",
				"offset": 0,
				"slot": "17",
				"type": "t_mapping(t_address,t_struct(Staker)52715_storage)"
			},
			{
				"astId": 52770,
				"contract": "src/non-upgradeable/Launchpool.sol:Launchpool",
				"label": "lastNativeExRate",
				"offset": 0,
				"slot": "18",
				"type": "t_uint256"
			},
			{
				"astId": 52772,
				"contract": "src/non-upgradeable/Launchpool.sol:Launchpool",
				"label": "avgNativeExRateGradient",
				"offset": 0,
				"slot": "19",
				"type": "t_uint256"
			},
			{
				"astId": 52774,
				"contract": "src/non-upgradeable/Launchpool.sol:Launchpool",
				"label": "nativeExRateSampleCount",
				"offset": 0,
				"slot": "20",
				"type": "t_uint128"
			},
			{
				"astId": 52776,
				"contract": "src/non-upgradeable/Launchpool.sol:Launchpool",
				"label": "lastNativeExRateUpdateBlock",
				"offset": 16,
				"slot": "20",
				"type": "t_uint128"
			},
			{
				"astId": 52780,
				"contract": "src/non-upgradeable/Launchpool.sol:Launchpool",
				"label": "platformFeeClaimed",
				"offset": 0,
				"slot": "21",
				"type": "t_bool"
			}
		],
		"types": {
			"t_address": {
				"encoding": "inplace",
				"label": "address",
				"numberOfBytes": "20"
			},
			"t_array(t_uint128)dyn_storage": {
				"encoding": "dynamic_array",
				"label": "uint128[]",
				"numberOfBytes": "32",
				"base": "t_uint128"
			},
			"t_bool": {
				"encoding": "inplace",
				"label": "bool",
				"numberOfBytes": "1"
			},
			"t_contract(IERC20)41277": {
				"encoding": "inplace",
				"label": "contract IERC20",
				"numberOfBytes": "20"
			},
			"t_contract(IXCMOracle)52077": {
				"encoding": "inplace",
				"label": "contract IXCMOracle",
				"numberOfBytes": "20"
			},
			"t_mapping(t_address,t_struct(Staker)52715_storage)": {
				"encoding": "mapping",
				"key": "t_address",
				"label": "mapping(address => struct Launchpool.Staker)",
				"numberOfBytes": "32",
				"value": "t_struct(Staker)52715_storage"
			},
			"t_mapping(t_uint128,t_uint256)": {
				"encoding": "mapping",
				"key": "t_uint128",
				"label": "mapping(uint128 => uint256)",
				"numberOfBytes": "32",
				"value": "t_uint256"
			},
			"t_struct(Staker)52715_storage": {
				"encoding": "inplace",
				"label": "struct Launchpool.Staker",
				"numberOfBytes": "64",
				"members": [
					{
						"astId": 52712,
						"contract": "src/non-upgradeable/Launchpool.sol:Launchpool",
						"label": "nativeAmount",
						"offset": 0,
						"slot": "0",
						"type": "t_uint256"
					},
					{
						"astId": 52714,
						"contract": "src/non-upgradeable/Launchpool.sol:Launchpool",
						"label": "claimOffset",
						"offset": 0,
						"slot": "1",
						"type": "t_uint256"
					}
				]
			},
			"t_uint128": {
				"encoding": "inplace",
				"label": "uint128",
				"numberOfBytes": "16"
			},
			"t_uint256": {
				"encoding": "inplace",
				"label": "uint256",
				"numberOfBytes": "32"
			}
		}
	},
	"id": 69
}