{
  "_format": "hh-sol-artifact-1",
  "contractName": "Launchpool",
  "sourceName": "src/non-upgradeable/Launchpool.sol",
  "abi": [
    {
      "inputs": [
        {
          "internalType": "address",
          "name": "xcmOracleAddress",
          "type": "address"
        },
        {
          "internalType": "address",
          "name": "_projectOwner",
          "type": "address"
        },
        {
          "internalType": "address",
          "name": "_projectToken",
          "type": "address"
        },
        {
          "internalType": "address",
          "name": "_acceptedVAsset",
          "type": "address"
        },
        {
          "internalType": "address",
          "name": "_acceptedNativeAsset",
          "type": "address"
        },
        {
          "internalType": "uint128",
          "name": "_startBlock",
          "type": "uint128"
        },
        {
          "internalType": "uint128",
          "name": "_endBlock",
          "type": "uint128"
        },
        {
          "internalType": "uint256",
          "name": "_maxTokenPerStaker",
          "type": "uint256"
        },
        {
          "internalType": "uint128[]",
          "name": "_changeBlocks",
          "type": "uint128[]"
        },
        {
          "internalType": "uint256[]",
          "name": "_emissionRateChanges",
          "type": "uint256[]"
        }
      ],
      "stateMutability": "nonpayable",
      "type": "constructor"
    },
    {
      "inputs": [],
      "name": "ArraysLengthMismatch",
      "type": "error"
    },
    {
      "inputs": [
        {
          "internalType": "address",
          "name": "tokenAddress",
          "type": "address"
        }
      ],
      "name": "DecimalsTooHigh",
      "type": "error"
    },
    {
      "inputs": [],
      "name": "EndBlockMustBeAfterstartBlock",
      "type": "error"
    },
    {
      "inputs": [],
      "name": "EnforcedPause",
      "type": "error"
    },
    {
      "inputs": [],
      "name": "ExceedMaxTokensPerStaker",
      "type": "error"
    },
    {
      "inputs": [],
      "name": "ExceedNativeStake",
      "type": "error"
    },
    {
      "inputs": [],
      "name": "ExceedWithdrawableVTokens",
      "type": "error"
    },
    {
      "inputs": [],
      "name": "ExpectedPause",
      "type": "error"
    },
    {
      "inputs": [],
      "name": "FailedToReadTokenDecimals",
      "type": "error"
    },
    {
      "inputs": [],
      "name": "FirstChangeBlockMustBeStartBlock",
      "type": "error"
    },
    {
      "inputs": [],
      "name": "MaxAndMinTokensPerStakerMustBeGreaterThanZero",
      "type": "error"
    },
    {
      "inputs": [],
      "name": "MustBeAfterPoolEnd",
      "type": "error"
    },
    {
      "inputs": [],
      "name": "MustBeDuringPoolTime",
      "type": "error"
    },
    {
      "inputs": [],
      "name": "NoEmissionRateChangesProvided",
      "type": "error"
    },
    {
      "inputs": [],
      "name": "NotPlatformAdmin",
      "type": "error"
    },
    {
      "inputs": [
        {
          "internalType": "address",
          "name": "owner",
          "type": "address"
        }
      ],
      "name": "OwnableInvalidOwner",
      "type": "error"
    },
    {
      "inputs": [
        {
          "internalType": "address",
          "name": "account",
          "type": "address"
        }
      ],
      "name": "OwnableUnauthorizedAccount",
      "type": "error"
    },
    {
      "inputs": [],
      "name": "PlatformFeeAlreadyClaimed",
      "type": "error"
    },
    {
      "inputs": [],
      "name": "ProjectTokenNotRecoverable",
      "type": "error"
    },
    {
      "inputs": [],
      "name": "ReentrancyGuardReentrantCall",
      "type": "error"
    },
    {
      "inputs": [
        {
          "internalType": "address",
          "name": "token",
          "type": "address"
        }
      ],
      "name": "SafeERC20FailedOperation",
      "type": "error"
    },
    {
      "inputs": [],
      "name": "StartBlockMustBeInFuture",
      "type": "error"
    },
    {
      "inputs": [],
      "name": "TotalProjectTokensMustBeGreaterThanZero",
      "type": "error"
    },
    {
      "inputs": [],
      "name": "ZeroAddress",
      "type": "error"
    },
    {
      "inputs": [],
      "name": "ZeroAmountNotAllowed",
      "type": "error"
    },
    {
      "anonymous": false,
      "inputs": [
        {
          "indexed": true,
          "internalType": "address",
          "name": "claimer",
          "type": "address"
        },
        {
          "indexed": false,
          "internalType": "uint256",
          "name": "ownerClaims",
          "type": "uint256"
        },
        {
          "indexed": false,
          "internalType": "uint256",
          "name": "platformFee",
          "type": "uint256"
        }
      ],
      "name": "OwnerInterestsClaimed",
      "type": "event"
    },
    {
      "anonymous": false,
      "inputs": [
        {
          "indexed": true,
          "internalType": "address",
          "name": "previousOwner",
          "type": "address"
        },
        {
          "indexed": true,
          "internalType": "address",
          "name": "newOwner",
          "type": "address"
        }
      ],
      "name": "OwnershipTransferred",
      "type": "event"
    },
    {
      "anonymous": false,
      "inputs": [
        {
          "indexed": false,
          "internalType": "address",
          "name": "account",
          "type": "address"
        }
      ],
      "name": "Paused",
      "type": "event"
    },
    {
      "anonymous": false,
      "inputs": [
        {
          "indexed": true,
          "internalType": "address",
          "name": "claimer",
          "type": "address"
        },
        {
          "indexed": false,
          "internalType": "uint256",
          "name": "platformFee",
          "type": "uint256"
        }
      ],
      "name": "PlatformFeeClaimed",
      "type": "event"
    },
    {
      "anonymous": false,
      "inputs": [
        {
          "indexed": true,
          "internalType": "address",
          "name": "user",
          "type": "address"
        },
        {
          "indexed": false,
          "internalType": "uint256",
          "name": "amount",
          "type": "uint256"
        }
      ],
      "name": "ProjectTokensClaimed",
      "type": "event"
    },
    {
      "anonymous": false,
      "inputs": [
        {
          "indexed": true,
          "internalType": "address",
          "name": "user",
          "type": "address"
        },
        {
          "indexed": false,
          "internalType": "uint256",
          "name": "amount",
          "type": "uint256"
        }
      ],
      "name": "Staked",
      "type": "event"
    },
    {
      "anonymous": false,
      "inputs": [
        {
          "indexed": false,
          "internalType": "address",
          "name": "account",
          "type": "address"
        }
      ],
      "name": "Unpaused",
      "type": "event"
    },
    {
      "anonymous": false,
      "inputs": [
        {
          "indexed": true,
          "internalType": "address",
          "name": "user",
          "type": "address"
        },
        {
          "indexed": false,
          "internalType": "uint256",
          "name": "amount",
          "type": "uint256"
        }
      ],
      "name": "Unstaked",
      "type": "event"
    },
    {
      "inputs": [],
      "name": "BASE_PRECISION",
      "outputs": [
        {
          "internalType": "uint256",
          "name": "",
          "type": "uint256"
        }
      ],
      "stateMutability": "view",
      "type": "function"
    },
    {
      "inputs": [],
      "name": "MAX_DECIMALS",
      "outputs": [
        {
          "internalType": "uint256",
          "name": "",
          "type": "uint256"
        }
      ],
      "stateMutability": "view",
      "type": "function"
    },
    {
      "inputs": [],
      "name": "ONE_VTOKEN",
      "outputs": [
        {
          "internalType": "uint256",
          "name": "",
          "type": "uint256"
        }
      ],
      "stateMutability": "view",
      "type": "function"
    },
    {
      "inputs": [],
      "name": "SCALING_FACTOR",
      "outputs": [
        {
          "internalType": "uint256",
          "name": "",
          "type": "uint256"
        }
      ],
      "stateMutability": "view",
      "type": "function"
    },
    {
      "inputs": [],
      "name": "acceptedNativeAsset",
      "outputs": [
        {
          "internalType": "contract IERC20",
          "name": "",
          "type": "address"
        }
      ],
      "stateMutability": "view",
      "type": "function"
    },
    {
      "inputs": [],
      "name": "acceptedVAsset",
      "outputs": [
        {
          "internalType": "contract IERC20",
          "name": "",
          "type": "address"
        }
      ],
      "stateMutability": "view",
      "type": "function"
    },
    {
      "inputs": [],
      "name": "avgNativeExRateGradient",
      "outputs": [
        {
          "internalType": "uint256",
          "name": "",
          "type": "uint256"
        }
      ],
      "stateMutability": "view",
      "type": "function"
    },
    {
      "inputs": [
        {
          "internalType": "uint256",
          "name": "",
          "type": "uint256"
        }
      ],
      "name": "changeBlocks",
      "outputs": [
        {
          "internalType": "uint128",
          "name": "",
          "type": "uint128"
        }
      ],
      "stateMutability": "view",
      "type": "function"
    },
    {
      "inputs": [],
      "name": "claimLeftoverProjectToken",
      "outputs": [],
      "stateMutability": "nonpayable",
      "type": "function"
    },
    {
      "inputs": [],
      "name": "claimOwnerInterest",
      "outputs": [],
      "stateMutability": "nonpayable",
      "type": "function"
    },
    {
      "inputs": [],
      "name": "claimPlatformFee",
      "outputs": [],
      "stateMutability": "nonpayable",
      "type": "function"
    },
    {
      "inputs": [],
      "name": "claimProjectTokens",
      "outputs": [],
      "stateMutability": "nonpayable",
      "type": "function"
    },
    {
      "inputs": [],
      "name": "cumulativeExchangeRate",
      "outputs": [
        {
          "internalType": "uint256",
          "name": "",
          "type": "uint256"
        }
      ],
      "stateMutability": "view",
      "type": "function"
    },
    {
      "inputs": [
        {
          "internalType": "uint128",
          "name": "",
          "type": "uint128"
        }
      ],
      "name": "emissionRateChanges",
      "outputs": [
        {
          "internalType": "uint256",
          "name": "",
          "type": "uint256"
        }
      ],
      "stateMutability": "view",
      "type": "function"
    },
    {
      "inputs": [],
      "name": "endBlock",
      "outputs": [
        {
          "internalType": "uint128",
          "name": "",
          "type": "uint128"
        }
      ],
      "stateMutability": "view",
      "type": "function"
    },
    {
      "inputs": [
        {
          "internalType": "address",
          "name": "_investor",
          "type": "address"
        }
      ],
      "name": "getClaimableProjectToken",
      "outputs": [
        {
          "internalType": "uint256",
          "name": "",
          "type": "uint256"
        }
      ],
      "stateMutability": "view",
      "type": "function"
    },
    {
      "inputs": [],
      "name": "getEmissionRate",
      "outputs": [
        {
          "internalType": "uint256",
          "name": "",
          "type": "uint256"
        }
      ],
      "stateMutability": "view",
      "type": "function"
    },
    {
      "inputs": [],
      "name": "getPoolInfo",
      "outputs": [
        {
          "internalType": "uint128",
          "name": "",
          "type": "uint128"
        },
        {
          "internalType": "uint128",
          "name": "",
          "type": "uint128"
        },
        {
          "internalType": "uint256",
          "name": "",
          "type": "uint256"
        },
        {
          "internalType": "uint256",
          "name": "",
          "type": "uint256"
        }
      ],
      "stateMutability": "view",
      "type": "function"
    },
    {
      "inputs": [
        {
          "internalType": "address",
          "name": "_investor",
          "type": "address"
        }
      ],
      "name": "getStakerNativeAmount",
      "outputs": [
        {
          "internalType": "uint256",
          "name": "",
          "type": "uint256"
        }
      ],
      "stateMutability": "view",
      "type": "function"
    },
    {
      "inputs": [],
      "name": "getStakingRange",
      "outputs": [
        {
          "internalType": "uint256",
          "name": "",
          "type": "uint256"
        },
        {
          "internalType": "uint256",
          "name": "",
          "type": "uint256"
        }
      ],
      "stateMutability": "view",
      "type": "function"
    },
    {
      "inputs": [],
      "name": "getTotalProjectToken",
      "outputs": [
        {
          "internalType": "uint256",
          "name": "",
          "type": "uint256"
        }
      ],
      "stateMutability": "view",
      "type": "function"
    },
    {
      "inputs": [],
      "name": "getTotalStakedVTokens",
      "outputs": [
        {
          "internalType": "uint256",
          "name": "",
          "type": "uint256"
        }
      ],
      "stateMutability": "view",
      "type": "function"
    },
    {
      "inputs": [
        {
          "internalType": "uint256",
          "name": "_withdrawnNativeTokens",
          "type": "uint256"
        }
      ],
      "name": "getWithdrawableVTokens",
      "outputs": [
        {
          "internalType": "uint256",
          "name": "withdrawableVAssets",
          "type": "uint256"
        }
      ],
      "stateMutability": "view",
      "type": "function"
    },
    {
      "inputs": [],
      "name": "lastNativeExRate",
      "outputs": [
        {
          "internalType": "uint256",
          "name": "",
          "type": "uint256"
        }
      ],
      "stateMutability": "view",
      "type": "function"
    },
    {
      "inputs": [],
      "name": "lastNativeExRateUpdateBlock",
      "outputs": [
        {
          "internalType": "uint128",
          "name": "",
          "type": "uint128"
        }
      ],
      "stateMutability": "view",
      "type": "function"
    },
    {
      "inputs": [],
      "name": "lastProcessedChangeBlockIndex",
      "outputs": [
        {
          "internalType": "uint256",
          "name": "",
          "type": "uint256"
        }
      ],
      "stateMutability": "view",
      "type": "function"
    },
    {
      "inputs": [],
      "name": "maxStakers",
      "outputs": [
        {
          "internalType": "uint256",
          "name": "",
          "type": "uint256"
        }
      ],
      "stateMutability": "view",
      "type": "function"
    },
    {
      "inputs": [],
      "name": "maxTokenPerStaker",
      "outputs": [
        {
          "internalType": "uint256",
          "name": "",
          "type": "uint256"
        }
      ],
      "stateMutability": "view",
      "type": "function"
    },
    {
      "inputs": [],
      "name": "nativeExRateSampleCount",
      "outputs": [
        {
          "internalType": "uint128",
          "name": "",
          "type": "uint128"
        }
      ],
      "stateMutability": "view",
      "type": "function"
    },
    {
      "inputs": [],
      "name": "owner",
      "outputs": [
        {
          "internalType": "address",
          "name": "",
          "type": "address"
        }
      ],
      "stateMutability": "view",
      "type": "function"
    },
    {
      "inputs": [],
      "name": "ownerShareOfInterest",
      "outputs": [
        {
          "internalType": "uint128",
          "name": "",
          "type": "uint128"
        }
      ],
      "stateMutability": "view",
      "type": "function"
    },
    {
      "inputs": [],
      "name": "pause",
      "outputs": [],
      "stateMutability": "nonpayable",
      "type": "function"
    },
    {
      "inputs": [],
      "name": "paused",
      "outputs": [
        {
          "internalType": "bool",
          "name": "",
          "type": "bool"
        }
      ],
      "stateMutability": "view",
      "type": "function"
    },
    {
      "inputs": [],
      "name": "platformAdminAddress",
      "outputs": [
        {
          "internalType": "address",
          "name": "",
          "type": "address"
        }
      ],
      "stateMutability": "view",
      "type": "function"
    },
    {
      "inputs": [],
      "name": "platformFeeClaimed",
      "outputs": [
        {
          "internalType": "bool",
          "name": "",
          "type": "bool"
        }
      ],
      "stateMutability": "view",
      "type": "function"
    },
    {
      "inputs": [],
      "name": "projectToken",
      "outputs": [
        {
          "internalType": "contract IERC20",
          "name": "",
          "type": "address"
        }
      ],
      "stateMutability": "view",
      "type": "function"
    },
    {
      "inputs": [
        {
          "internalType": "address",
          "name": "_tokenAddress",
          "type": "address"
        }
      ],
      "name": "recoverWrongToken",
      "outputs": [],
      "stateMutability": "nonpayable",
      "type": "function"
    },
    {
      "inputs": [],
      "name": "renounceOwnership",
      "outputs": [],
      "stateMutability": "nonpayable",
      "type": "function"
    },
    {
      "inputs": [
        {
          "internalType": "address",
          "name": "_xcmOracleAddress",
          "type": "address"
        }
      ],
      "name": "setXCMOracleAddress",
      "outputs": [],
      "stateMutability": "nonpayable",
      "type": "function"
    },
    {
      "inputs": [
        {
          "internalType": "uint256",
          "name": "_vTokenAmount",
          "type": "uint256"
        }
      ],
      "name": "stake",
      "outputs": [],
      "stateMutability": "nonpayable",
      "type": "function"
    },
    {
      "inputs": [
        {
          "internalType": "address",
          "name": "",
          "type": "address"
        }
      ],
      "name": "stakers",
      "outputs": [
        {
          "internalType": "uint256",
          "name": "nativeAmount",
          "type": "uint256"
        },
        {
          "internalType": "uint256",
          "name": "claimOffset",
          "type": "uint256"
        }
      ],
      "stateMutability": "view",
      "type": "function"
    },
    {
      "inputs": [],
      "name": "startBlock",
      "outputs": [
        {
          "internalType": "uint128",
          "name": "",
          "type": "uint128"
        }
      ],
      "stateMutability": "view",
      "type": "function"
    },
    {
      "inputs": [],
      "name": "tickBlock",
      "outputs": [
        {
          "internalType": "uint128",
          "name": "",
          "type": "uint128"
        }
      ],
      "stateMutability": "view",
      "type": "function"
    },
    {
      "inputs": [],
      "name": "totalNativeStake",
      "outputs": [
        {
          "internalType": "uint256",
          "name": "",
          "type": "uint256"
        }
      ],
      "stateMutability": "view",
      "type": "function"
    },
    {
      "inputs": [
        {
          "internalType": "address",
          "name": "newOwner",
          "type": "address"
        }
      ],
      "name": "transferOwnership",
      "outputs": [],
      "stateMutability": "nonpayable",
      "type": "function"
    },
    {
      "inputs": [],
      "name": "unpause",
      "outputs": [],
      "stateMutability": "nonpayable",
      "type": "function"
    },
    {
      "inputs": [
        {
          "internalType": "uint256",
          "name": "_vTokenAmount",
          "type": "uint256"
        }
      ],
      "name": "unstake",
      "outputs": [],
      "stateMutability": "nonpayable",
      "type": "function"
    },
    {
      "inputs": [
        {
          "internalType": "uint256",
          "name": "_withdrawnVTokens",
          "type": "uint256"
        }
      ],
      "name": "unstakeWithoutProjectToken",
      "outputs": [],
      "stateMutability": "nonpayable",
      "type": "function"
    },
    {
      "inputs": [],
      "name": "xcmOracle",
      "outputs": [
        {
          "internalType": "contract IXCMOracle",
          "name": "",
          "type": "address"
        }
      ],
      "stateMutability": "view",
      "type": "function"
    }
  ],
  "bytecode": "0x60c060405260058054602d60811b6001600160801b03909116179055600a80546001600160a01b03191673fd48761638e3a8c368abaefa9859cf6baa6c3c2717905534801561004d57600080fd5b5060405161335f38038061335f83398101604081905261006c916108b2565b886001600160a01b03811661009b57604051631e4fbdf760e01b81526000600482015260240160405180910390fd5b6100a481610492565b50600180556002805460ff19169055876001600160a01b0381166100db5760405163d92e233d60e01b815260040160405180910390fd5b876001600160a01b0381166101035760405163d92e233d60e01b815260040160405180910390fd5b876001600160a01b03811661012b5760405163d92e233d60e01b815260040160405180910390fd5b858060000361014d5760405163031cb01560e31b815260040160405180910390fd5b8d601060006101000a8154816001600160a01b0302191690836001600160a01b031602179055506000439050808a6001600160801b0316116101a2576040516378818b5f60e01b815260040160405180910390fd5b896001600160801b0316896001600160801b0316116101d4576040516389edc18d60e01b815260040160405180910390fd5b8651806101f45760405163558f515760e11b815260040160405180910390fd5b8a6001600160801b0316886000815181106102115761021161099c565b60200260200101516001600160801b03161461024057604051633e8b0d5360e21b815260040160405180910390fd5b80875114610261576040516307e11acb60e51b815260040160405180910390fd5b600061026c8f6104e2565b905060006102798f6104e2565b905061028682600a610aaf565b61029d906c0c9f2c9cd04674edea40000000610ac5565b6080526102ab81600a610aaf565b60a05260005b83811015610315578981815181106102cb576102cb61099c565b6020026020010151600b60008d84815181106102e9576102e961099c565b6020908102919091018101516001600160801b03168252810191909152604001600020556001016102b1565b5060a05161032290610566565b6012556014805460009061033e906001600160801b0316610ae7565b82546001600160801b039182166101009390930a92830292820219169190911790915560148054868316600160801b029216919091179055895161038990600c9060208d019061067c565b508f600d60006101000a8154816001600160a01b0302191690836001600160a01b031602179055508e600e60006101000a8154816001600160a01b0302191690836001600160a01b031602179055508d600f60006101000a8154816001600160a01b0302191690836001600160a01b031602179055508c600460006101000a8154816001600160801b0302191690836001600160801b031602179055508b600460106101000a8154816001600160801b0302191690836001600160801b031602179055508a6006819055508c600560006101000a8154816001600160801b0302191690836001600160801b03160217905550505050505050505050505050505050505050610bc7565b600080546001600160a01b038381166001600160a01b0319831681178455604051919092169283917f8be0079c531659141344cd1fd0a4f28419497f9722a3daafe3b4186f6b6457e09190a35050565b6000816001600160a01b031663313ce5676040518163ffffffff1660e01b8152600401602060405180830381865afa92505050801561053e575060408051601f3d908101601f1916820190925261053b91810190610b13565b60015b61055b576040516306d1762b60e41b815260040160405180910390fd5b92915050565b919050565b601054600f54604051630b23060160e41b81526001600160a01b0391821660048201526000928392169063b230601090602401602060405180830381865afa1580156105b6573d6000803e3d6000fd5b505050506040513d601f19601f820116820180604052508101906105da9190610b36565b6010546040516301443d5b60e41b81526001600160f01b0319831660048201529192506000916001600160a01b0390911690631443d5b0906024016040805180830381865afa158015610631573d6000803e3d6000fd5b505050506040513d601f19601f820116820180604052508101906106559190610b60565b602081015181519192509061066a9086610bb0565b6106749190610ac5565b949350505050565b828054828255906000526020600020906001016002900481019282156107245791602002820160005b838211156106ef57835183826101000a8154816001600160801b0302191690836001600160801b031602179055509260200192601001602081600f010492830192600103026106a5565b80156107225782816101000a8154906001600160801b030219169055601001602081600f010492830192600103026106ef565b505b50610730929150610734565b5090565b5b808211156107305760008155600101610735565b80516001600160a01b038116811461056157600080fd5b80516001600160801b038116811461056157600080fd5b634e487b7160e01b600052604160045260246000fd5b604051601f8201601f191681016001600160401b03811182821017156107b5576107b5610777565b604052919050565b60006001600160401b038211156107d6576107d6610777565b5060051b60200190565b600082601f8301126107f157600080fd5b81516108046107ff826107bd565b61078d565b8082825260208201915060208360051b86010192508583111561082657600080fd5b602085015b8381101561084a5761083c81610760565b83526020928301920161082b565b5095945050505050565b600082601f83011261086557600080fd5b81516108736107ff826107bd565b8082825260208201915060208360051b86010192508583111561089557600080fd5b602085015b8381101561084a57805183526020928301920161089a565b6000806000806000806000806000806101408b8d0312156108d257600080fd5b6108db8b610749565b99506108e960208c01610749565b98506108f760408c01610749565b975061090560608c01610749565b965061091360808c01610749565b955061092160a08c01610760565b945061092f60c08c01610760565b60e08c01516101008d015191955093506001600160401b0381111561095357600080fd5b61095f8d828e016107e0565b6101208d015190935090506001600160401b0381111561097e57600080fd5b61098a8d828e01610854565b9150509295989b9194979a5092959850565b634e487b7160e01b600052603260045260246000fd5b634e487b7160e01b600052601160045260246000fd5b6001815b6001841115610a03578085048111156109e7576109e76109b2565b60018416156109f557908102905b60019390931c9280026109cc565b935093915050565b600082610a1a5750600161055b565b81610a275750600061055b565b8160018114610a3d5760028114610a4757610a63565b600191505061055b565b60ff841115610a5857610a586109b2565b50506001821b61055b565b5060208310610133831016604e8410600b8410161715610a86575081810a61055b565b610a9360001984846109c8565b8060001904821115610aa757610aa76109b2565b029392505050565b6000610abe60ff841683610a0b565b9392505050565b600082610ae257634e487b7160e01b600052601260045260246000fd5b500490565b60006001600160801b0382166002600160801b03198101610b0a57610b0a6109b2565b60010192915050565b600060208284031215610b2557600080fd5b815160ff81168114610abe57600080fd5b600060208284031215610b4857600080fd5b81516001600160f01b031981168114610abe57600080fd5b60006040828403128015610b7357600080fd5b50604080519081016001600160401b0381118282101715610b9657610b96610777565b604052825181526020928301519281019290925250919050565b808202811582820484141761055b5761055b6109b2565b60805160a0516126d9610c86600039600081816105e7015281816107ba015281816107e601528181610add01528181610bbb01528181610be701528181610ce901528181610d15015281816110720152818161109e0152818161199101528181611b160152611df301526000818161063f015281816108680152818161091e01528181610d9e01528181610e0401528181610f150152818161128a015281816113850152818161151701528181612176015261228901526126d96000f3fe608060405234801561001057600080fd5b50600436106102bb5760003560e01c806384d38d4811610182578063b1f0af1b116100e9578063c0a77da9116100a2578063ef4cadc51161007c578063ef4cadc51461063a578063f2fde38b14610661578063f73a8b5c14610674578063fce88e6f1461067c57600080fd5b8063c0a77da91461061c578063d065cf8e14610624578063e154651a1461063157600080fd5b8063b1f0af1b1461058c578063b64a025e146105a6578063b66a72df146105b9578063b87a6aeb146105c2578063bb8afc7b146105e2578063bfc55b8a1461060957600080fd5b80639b4f83211161013b5780639b4f8321146105445780639c8aea901461054d578063a694fc3a14610555578063a748afb014610568578063aac9ce5c14610571578063ab7302bb1461058457600080fd5b806384d38d48146104a45780638da5cb5b146104be5780638e70fa8c146104cf5780639168ae72146104e2578063976251e61461051e57806399dc03901461053157600080fd5b8063544c2d761161022657806372cacb70116101df57806372cacb701461043c57806372e48cf3146104505780637950ea7e146104585780637d3341071461046057806380729f17146104895780638456cb591461049c57600080fd5b8063544c2d76146103bb5780635bf0fa89146103c45780635c975abb146103d757806360246c88146103ee5780636cf5684614610421578063715018a61461043457600080fd5b806333d8773d1161027857806333d8773d146103735780633f4ba83a1461037c57806348cd4cb1146103845780634b60ce77146103975780634f7ff503146103aa578063534a9d00146103b357600080fd5b8063018bcf5c146102c05780630417cf8e146102d557806306508ebc146102f0578063083c63231461031b578063129989a3146103355780632e17de7814610360575b600080fd5b6102d36102ce3660046124be565b610687565b005b6102dd601e81565b6040519081526020015b60405180910390f35b601454610303906001600160801b031681565b6040516001600160801b0390911681526020016102e7565b60045461030390600160801b90046001600160801b031681565b600a54610348906001600160a01b031681565b6040516001600160a01b0390911681526020016102e7565b6102d361036e3660046124e7565b61075b565b6102dd60035481565b6102d36109f7565b600454610303906001600160801b031681565b600d54610348906001600160a01b031681565b6102dd60075481565b6102dd610a2c565b6102dd60085481565b6102dd6103d23660046124e7565b610a9f565b60025460ff165b60405190151581526020016102e7565b6103f6610b2e565b604080516001600160801b0395861681529490931660208501529183015260608201526080016102e7565b601054610348906001600160a01b031681565b6102d3610b6c565b6102dd6c0c9f2c9cd04674edea4000000081565b6102d3610b7e565b6102d3610cac565b6102dd61046e3660046124be565b6001600160a01b031660009081526011602052604090205490565b6102dd6104973660046124be565b610ec9565b6102d3610f70565b60055461030390600160801b90046001600160801b031681565b6000546001600160a01b0316610348565b600f54610348906001600160a01b031681565b6105096104f03660046124be565b6011602052600090815260409020805460019091015482565b604080519283526020830191909152016102e7565b61030361052c3660046124e7565b610fa3565b600e54610348906001600160a01b031681565b6102dd60125481565b6102d3610fe0565b6102d36105633660046124e7565b611172565b6102dd60095481565b6102d361057f3660046124be565b6113fe565b6102d361144b565b60145461030390600160801b90046001600160801b031681565b6102d36105b43660046124e7565b611485565b6102dd60135481565b6102dd6105d0366004612500565b600b6020526000908152604090205481565b6102dd7f000000000000000000000000000000000000000000000000000000000000000081565b600554610303906001600160801b031681565b6102dd6115e6565b6015546103de9060ff1681565b6102dd60065481565b6102dd7f000000000000000000000000000000000000000000000000000000000000000081565b6102d361066f3660046124be565b6116bb565b6102dd6116fe565b600654600754610509565b61068f61172f565b600d5481906001600160a01b03908116908216036106c05760405163dad2afd760e01b815260040160405180910390fd5b6040516370a0823160e01b815230600482015282906000906001600160a01b038316906370a0823190602401602060405180830381865afa158015610709573d6000803e3d6000fd5b505050506040513d601f19601f8201168201806040525081019061072d9190612529565b90506107556107446000546001600160a01b031690565b6001600160a01b038416908361175c565b50505050565b808060000361077d576040516307a1cab560e11b815260040160405180910390fd5b6107856117c0565b61078d6117e4565b6013541580156107ae5750600454600160801b90046001600160801b031643115b1561080c5760006107de7f000000000000000000000000000000000000000000000000000000000000000061180e565b905061080a817f0000000000000000000000000000000000000000000000000000000000000000611924565b505b3360008181526011602090815260408083208151808301909252805482526001015491810191909152906108408286611aa6565b9050610850826000015186611924565b610858611bb9565b60035460208301518351600091907f000000000000000000000000000000000000000000000000000000000000000090610893908590612558565b61089d919061256f565b6108a79190612591565b9050801561090a57600d546108c6906001600160a01b0316868361175c565b846001600160a01b03167fda8a33b1852650a10f5393ae95d54ebfcb4e7e0fc67db151fd88babe81c7d8878260405161090191815260200190565b60405180910390a25b835160009061091a908590612591565b90507f00000000000000000000000000000000000000000000000000000000000000006109478483612558565b610951919061256f565b60208601528085526008805485919060009061096e908490612591565b90915550506001600160a01b038616600081815260116020908152604091829020885181558882015160019091015590518a81527f0f5bb82176feb1b5e747e28471aa92156a04d9f3ab9f45f28e2d704232b93f75910160405180910390a2600e546109e4906001600160a01b0316878a61175c565b5050505050506109f360018055565b5050565b600a546001600160a01b03163314610a225760405163d4d7478360e01b815260040160405180910390fd5b610a2a611c3e565b565b600e546040516370a0823160e01b81523060048201526000916001600160a01b0316906370a08231906024015b602060405180830381865afa158015610a76573d6000803e3d6000fd5b505050506040513d601f19601f82011682018060405250810190610a9a9190612529565b905090565b600454600090600160801b90046001600160801b03164311610acb57610ac482611c90565b9050610b10565b6000610ad5611d94565b905080610b027f000000000000000000000000000000000000000000000000000000000000000085612558565b610b0c919061256f565b9150505b6000610b1a610a2c565b905080821115610b28578091505b50919050565b6004546000908190819081906001600160801b0380821691600160801b900416610b566116fe565b610b5e6115e6565b935093509350935090919293565b610b7461172f565b610a2a6000611ec4565b610b8661172f565b610b8e6117e4565b601354158015610baf5750600454600160801b90046001600160801b031643115b15610c0d576000610bdf7f000000000000000000000000000000000000000000000000000000000000000061180e565b9050610c0b817f0000000000000000000000000000000000000000000000000000000000000000611924565b505b600080610c18611f14565b915091506000610c253390565b60408051858152602081018590529192506001600160a01b038316917f69d56ddf7e4c2fa07f9b0b8aec3d4381b34e868bd0284b3c03de42fe077bd860910160405180910390a2600e54610c83906001600160a01b0316828561175c565b600a54600e54610ca0916001600160a01b0391821691168461175c565b505050610a2a60018055565b610cb46117c0565b610cbc6117e4565b601354158015610cdd5750600454600160801b90046001600160801b031643115b15610d3b576000610d0d7f000000000000000000000000000000000000000000000000000000000000000061180e565b9050610d39817f0000000000000000000000000000000000000000000000000000000000000000611924565b505b33600081815260116020908152604080832081518083019092528054808352600190910154928201929092529103610d86576040516307a1cab560e11b815260040160405180910390fd5b610d8e611bb9565b60035460208201518251600091907f000000000000000000000000000000000000000000000000000000000000000090610dc9908590612558565b610dd3919061256f565b610ddd9190612591565b905080600003610e00576040516307a1cab560e11b815260040160405180910390fd5b82517f000000000000000000000000000000000000000000000000000000000000000090610e2f908490612558565b610e39919061256f565b60208085019182526001600160a01b03808716600090815260119092526040909120855181559151600190920191909155600d54610e799116858361175c565b836001600160a01b03167fda8a33b1852650a10f5393ae95d54ebfcb4e7e0fc67db151fd88babe81c7d88782604051610eb491815260200190565b60405180910390a250505050610a2a60018055565b6001600160a01b03811660009081526011602090815260408083208151808301909252805480835260019091015492820192909252908203610f0e5750600092915050565b80602001517f0000000000000000000000000000000000000000000000000000000000000000610f3c61200d565b600354610f4991906125a4565b8351610f559190612558565b610f5f919061256f565b610f699190612591565b9392505050565b600a546001600160a01b03163314610f9b5760405163d4d7478360e01b815260040160405180910390fd5b610a2a6122dd565b600c8181548110610fb357600080fd5b9060005260206000209060029182820401919006601002915054906101000a90046001600160801b031681565b600a546001600160a01b0316331461100b5760405163d4d7478360e01b815260040160405180910390fd5b600454600160801b90046001600160801b0316431161103d5760405163c00b64a160e01b815260040160405180910390fd5b6110456117e4565b6013541580156110665750600454600160801b90046001600160801b031643115b156110c45760006110967f000000000000000000000000000000000000000000000000000000000000000061180e565b90506110c2817f0000000000000000000000000000000000000000000000000000000000000000611924565b505b60155460ff16156110e85760405163dac5eb0f60e01b815260040160405180910390fd5b6015805460ff1916600117905560006110ff611f14565b9150506111093390565b6001600160a01b03167fb36c85b0201ed4518f6a4449c5e90313fb57d188669ce2b7e4194469811f4dcf8260405161114391815260200190565b60405180910390a2600a54600e54611168916001600160a01b0391821691168361175c565b50610a2a60018055565b8080600003611194576040516307a1cab560e11b815260040160405180910390fd5b6004546001600160801b03164310806111be5750600454600160801b90046001600160801b031643115b156111dc5760405163a2255c1760e01b815260040160405180910390fd5b6111e46117c0565b6111ec6117e4565b336000818152601160205260408120906112058561180e565b82549091506000036112395760065481111561123457604051631da5f2b360e11b815260040160405180910390fd5b611268565b60065482546112499083906125a4565b111561126857604051631da5f2b360e11b815260040160405180910390fd5b6112728186611924565b61127a611bb9565b81541561133457600082600101547f000000000000000000000000000000000000000000000000000000000000000060035485600001546112bb9190612558565b6112c5919061256f565b6112cf9190612591565b9050801561133257600d546112ee906001600160a01b0316338361175c565b836001600160a01b03167fda8a33b1852650a10f5393ae95d54ebfcb4e7e0fc67db151fd88babe81c7d8878260405161132991815260200190565b60405180910390a25b505b8082600001600082825461134891906125a4565b92505081905550806008600082825461136191906125a4565b9091555050600e5461137e906001600160a01b031633308861231a565b60035482547f0000000000000000000000000000000000000000000000000000000000000000916113ae91612558565b6113b8919061256f565b600183015560405185815233907f9e71bc8eea02a63969f509818f2dafb9254532904319f9dbda79b67bd34a5f3d9060200160405180910390a25050506109f360018055565b600a546001600160a01b031633146114295760405163d4d7478360e01b815260040160405180910390fd5b601080546001600160a01b0319166001600160a01b0392909216919091179055565b61145361172f565b600454600160801b90046001600160801b03164311610a2a5760405163c00b64a160e01b815260040160405180910390fd5b80806000036114a7576040516307a1cab560e11b815260040160405180910390fd5b6114af6117e4565b3360008181526011602090815260408083208151808301909252805482526001015491810191909152906114e38286611aa6565b90506114f3826000015186611924565b6114fb611bb9565b808260000181815161150d9190612591565b90525060035482517f00000000000000000000000000000000000000000000000000000000000000009161154091612558565b61154a919061256f565b602083015260088054829190600090611564908490612591565b90915550506001600160a01b038316600081815260116020908152604091829020855181558582015160019091015590518781527f0f5bb82176feb1b5e747e28471aa92156a04d9f3ab9f45f28e2d704232b93f75910160405180910390a2600e546115da906001600160a01b0316848761175c565b5050506109f360018055565b600454600090600160801b90046001600160801b031643106116085750600090565b600c5460095443916000915b818110156116b257600c818154811061162f5761162f6125b7565b6000918252602090912060028204015460019091166010026101000a90046001600160801b031684106116b257600b6000600c8381548110611673576116736125b7565b6000918252602080832060028304015460019283166010026101000a90046001600160801b031684528301939093526040909101902054935001611614565b50909392505050565b6116c361172f565b6001600160a01b0381166116f257604051631e4fbdf760e01b8152600060048201526024015b60405180910390fd5b6116fb81611ec4565b50565b600d546040516370a0823160e01b81523060048201526000916001600160a01b0316906370a0823190602401610a59565b6000546001600160a01b03163314610a2a5760405163118cdaa760e01b81523360048201526024016116e9565b6040516001600160a01b038381166024830152604482018390526117bb91859182169063a9059cbb906064015b604051602081830303815290604052915060e01b6020820180516001600160e01b038381831617835250505050612353565b505050565b60025460ff1615610a2a5760405163d93c066560e01b815260040160405180910390fd5b60026001540361180757604051633ee5aeb560e01b815260040160405180910390fd5b6002600155565b601054600f54604051630b23060160e41b81526001600160a01b0391821660048201526000928392169063b230601090602401602060405180830381865afa15801561185e573d6000803e3d6000fd5b505050506040513d601f19601f8201168201806040525081019061188291906125cd565b6010546040516301443d5b60e41b81526001600160f01b0319831660048201529192506000916001600160a01b0390911690631443d5b0906024016040805180830381865afa1580156118d9573d6000803e3d6000fd5b505050506040513d601f19601f820116820180604052508101906118fd91906125f7565b60208101518151919250906119129086612558565b61191c919061256f565b949350505050565b601454439060009061194690600160801b90046001600160801b031683612591565b9050806000036119565750505050565b600454601354600160801b9091046001600160801b0316831190151581801561197c5750805b1561198957505050505050565b6000856119b67f000000000000000000000000000000000000000000000000000000000000000089612558565b6119c0919061256f565b905060125481116119d45750505050505050565b6000601254826119e49190612591565b905060006119f2868361256f565b905084611a19576012839055601480546001600160801b03808a16600160801b0291161790555b6014546001600160801b031681611a31600183612659565b6001600160801b0316601354611a479190612558565b611a5191906125a4565b611a5b919061256f565b60135560148054600090611a77906001600160801b0316612678565b91906101000a8154816001600160801b0302191690836001600160801b03160217905550505050505050505050565b81516000908103611aca576040516307a1cab560e11b815260040160405180910390fd5b600454600160801b90046001600160801b0316431115611b5157601354600003611b0857611af78261180e565b9050611b038183611924565b611b5d565b6000611b12611d94565b90507f0000000000000000000000000000000000000000000000000000000000000000611b3f8285612558565b611b49919061256f565b915050611b5d565b611b5a8261180e565b90505b6000611b6c8460000151610a9f565b905082811015611b8f5760405163068ab5c560e31b815260040160405180910390fd5b8351821115611bb1576040516310aa0f2160e21b815260040160405180910390fd5b505b92915050565b60055443906001600160801b03168103611bd05750565b600854600003611bfd57600580546001600160801b031916436001600160801b03161790556116fb6123c4565b611c0561200d565b60036000828254611c1691906125a4565b9091555050600580546001600160801b0319166001600160801b0383161790556116fb6123c4565b611c4661242f565b6002805460ff191690557f5db9ee0a495bf2e6ff9c91a7834c1ba4fdd244a5e8aa4e537bd38aeae4b073aa335b6040516001600160a01b03909116815260200160405180910390a1565b601054600f54604051630b23060160e41b81526001600160a01b0391821660048201526000928392169063b230601090602401602060405180830381865afa158015611ce0573d6000803e3d6000fd5b505050506040513d601f19601f82011682018060405250810190611d0491906125cd565b6010546040516301443d5b60e41b81526001600160f01b0319831660048201529192506000916001600160a01b0390911690631443d5b0906024016040805180830381865afa158015611d5b573d6000803e3d6000fd5b505050506040513d601f19601f82011682018060405250810190611d7f91906125f7565b80516020820151919250906119129086612558565b6014546004546000918291611dc1916001600160801b03600160801b918290048116929190910416612659565b6004546001600160801b039182169250600160801b90041643118015611de75750601354155b15611ea3576000611e177f000000000000000000000000000000000000000000000000000000000000000061180e565b601454909150600090611e3a90600160801b90046001600160801b031643612591565b601254611e479084612591565b611e51919061256f565b601454600454919250611e7b916001600160801b03600160801b9283900481169290910416612659565b611e8e906001600160801b031682612558565b601254611e9b91906125a4565b935050505090565b80601354611eb19190612558565b601254611ebe91906125a4565b91505090565b600080546001600160a01b038381166001600160a01b0319831681178455604051919092169283917f8be0079c531659141344cd1fd0a4f28419497f9722a3daafe3b4186f6b6457e09190a35050565b600e546040516370a0823160e01b8152306004820152600091829182916001600160a01b0316906370a0823190602401602060405180830381865afa158015611f61573d6000803e3d6000fd5b505050506040513d601f19601f82011682018060405250810190611f859190612529565b905080600003611f9a57506000928392509050565b6000611fa7600854610a9f565b90506000611fb58284612591565b60155490915060ff1615611fce57946000945092505050565b600554606490611fee90600160801b90046001600160801b031683612558565b611ff8919061256f565b94506120048582612591565b93505050509091565b600060085460000361201f5750600090565b600554600c5460095443926001600160801b03169160009182905b828110156121cd57600c8181548110612055576120556125b7565b6000918252602090912060028204015460019091166010026101000a90046001600160801b03169350858410156121cd57846001600160801b0316846001600160801b031611156121c55760006120be866001600160801b0316866001600160801b0316612452565b90506000600b81841561211657600c6120d8600187612591565b815481106120e8576120e86125b7565b90600052602060002090600291828204019190066010029054906101000a90046001600160801b0316612154565b600c60008154811061212a5761212a6125b7565b90600052602060002090600291828204019190066010029054906101000a90046001600160801b03165b6001600160801b031681526020810191909152604001600020546008549091507f000000000000000000000000000000000000000000000000000000000000000061219f8484612558565b6121a99190612558565b6121b3919061256f565b6121bd90856125a4565b935085965050505b60010161203a565b60006121e2866001600160801b031688612452565b9050600087866001600160801b0316111561226757600b6000600c612208600187612591565b81548110612218576122186125b7565b90600052602060002090600291828204019190066010029054906101000a90046001600160801b03166001600160801b03166001600160801b0316815260200190815260200160002054612281565b6001600160801b0386166000908152600b60205260409020545b6008549091507f00000000000000000000000000000000000000000000000000000000000000006122b28484612558565b6122bc9190612558565b6122c6919061256f565b6122d090856125a4565b9998505050505050505050565b6122e56117c0565b6002805460ff191660011790557f62e78cea01bee320cd4e420270b5ea74000d11b0c9f74754ebdbfc544b05a258611c733390565b6040516001600160a01b0384811660248301528381166044830152606482018390526107559186918216906323b872dd90608401611789565b600080602060008451602086016000885af180612376576040513d6000823e3d81fd5b50506000513d9150811561238e57806001141561239b565b6001600160a01b0384163b155b1561075557604051635274afe760e01b81526001600160a01b03851660048201526024016116e9565b600c546009545b818110156109f357600554600c80546001600160801b0390921691839081106123f6576123f66125b7565b6000918252602090912060028204015460019091166010026101000a90046001600160801b0316116109f35760098190556001016123cb565b60025460ff16610a2a57604051638dfc202b60e01b815260040160405180910390fd5b600454600090600160801b90046001600160801b0316821161247f576124788383612591565b9050611bb3565b600454600160801b90046001600160801b031683106124a057506000611bb3565b600454610f69908490600160801b90046001600160801b0316612591565b6000602082840312156124d057600080fd5b81356001600160a01b0381168114610f6957600080fd5b6000602082840312156124f957600080fd5b5035919050565b60006020828403121561251257600080fd5b81356001600160801b0381168114610f6957600080fd5b60006020828403121561253b57600080fd5b5051919050565b634e487b7160e01b600052601160045260246000fd5b8082028115828204841417611bb357611bb3612542565b60008261258c57634e487b7160e01b600052601260045260246000fd5b500490565b81810381811115611bb357611bb3612542565b80820180821115611bb357611bb3612542565b634e487b7160e01b600052603260045260246000fd5b6000602082840312156125df57600080fd5b81516001600160f01b031981168114610f6957600080fd5b6000604082840312801561260a57600080fd5b600090506040516040810181811067ffffffffffffffff8211171561263d57634e487b7160e01b83526041600452602483fd5b6040528351815260209384015193810193909352509092915050565b6001600160801b038281168282160390811115611bb357611bb3612542565b60006001600160801b0382166001600160801b03810361269a5761269a612542565b6001019291505056fea26469706673582212201be4f72db04f13ae105c392f2e81200c02a01097c5db2196678b957c7e4e20b064736f6c634300081a0033",
  "linkReferences": {},
  "deployedLinkReferences": {}
}