{
	"abi": [
		{
			"type": "constructor",
			"inputs": [
				{
					"name": "_projectOwner",
					"type": "address",
					"internalType": "address"
				},
				{
					"name": "_projectToken",
					"type": "address",
					"internalType": "address"
				},
				{
					"name": "_acceptedVAsset",
					"type": "address",
					"internalType": "address"
				},
				{
					"name": "_acceptedNativeAsset",
					"type": "address",
					"internalType": "address"
				},
				{
					"name": "_startBlock",
					"type": "uint128",
					"internalType": "uint128"
				},
				{
					"name": "_endBlock",
					"type": "uint128",
					"internalType": "uint128"
				},
				{
					"name": "_maxVAssetPerStaker",
					"type": "uint256",
					"internalType": "uint256"
				},
				{
					"name": "_changeBlocks",
					"type": "uint128[]",
					"internalType": "uint128[]"
				},
				{
					"name": "_emissionRateChanges",
					"type": "uint256[]",
					"internalType": "uint256[]"
				}
			],
			"stateMutability": "nonpayable"
		},
		{
			"type": "function",
			"name": "BASE_PRECISION",
			"inputs": [],
			"outputs": [
				{
					"name": "",
					"type": "uint256",
					"internalType": "uint256"
				}
			],
			"stateMutability": "view"
		},
		{
			"type": "function",
			"name": "MAX_DECIMALS",
			"inputs": [],
			"outputs": [
				{
					"name": "",
					"type": "uint256",
					"internalType": "uint256"
				}
			],
			"stateMutability": "view"
		},
		{
			"type": "function",
			"name": "ONE_VTOKEN",
			"inputs": [],
			"outputs": [
				{
					"name": "",
					"type": "uint256",
					"internalType": "uint256"
				}
			],
			"stateMutability": "view"
		},
		{
			"type": "function",
			"name": "SCALING_FACTOR",
			"inputs": [],
			"outputs": [
				{
					"name": "",
					"type": "uint256",
					"internalType": "uint256"
				}
			],
			"stateMutability": "view"
		},
		{
			"type": "function",
			"name": "acceptedNativeAsset",
			"inputs": [],
			"outputs": [
				{
					"name": "",
					"type": "address",
					"internalType": "contract IERC20"
				}
			],
			"stateMutability": "view"
		},
		{
			"type": "function",
			"name": "acceptedVAsset",
			"inputs": [],
			"outputs": [
				{
					"name": "",
					"type": "address",
					"internalType": "contract IERC20"
				}
			],
			"stateMutability": "view"
		},
		{
			"type": "function",
			"name": "avgNativeExRateGradient",
			"inputs": [],
			"outputs": [
				{
					"name": "",
					"type": "uint256",
					"internalType": "uint256"
				}
			],
			"stateMutability": "view"
		},
		{
			"type": "function",
			"name": "changeBlocks",
			"inputs": [
				{
					"name": "",
					"type": "uint256",
					"internalType": "uint256"
				}
			],
			"outputs": [
				{
					"name": "",
					"type": "uint128",
					"internalType": "uint128"
				}
			],
			"stateMutability": "view"
		},
		{
			"type": "function",
			"name": "claimLeftoverProjectToken",
			"inputs": [],
			"outputs": [],
			"stateMutability": "nonpayable"
		},
		{
			"type": "function",
			"name": "claimOwnerInterest",
			"inputs": [],
			"outputs": [],
			"stateMutability": "nonpayable"
		},
		{
			"type": "function",
			"name": "claimPlatformFee",
			"inputs": [],
			"outputs": [],
			"stateMutability": "nonpayable"
		},
		{
			"type": "function",
			"name": "cumulativeExchangeRate",
			"inputs": [],
			"outputs": [
				{
					"name": "",
					"type": "uint256",
					"internalType": "uint256"
				}
			],
			"stateMutability": "view"
		},
		{
			"type": "function",
			"name": "emissionRateChanges",
			"inputs": [
				{
					"name": "",
					"type": "uint128",
					"internalType": "uint128"
				}
			],
			"outputs": [
				{
					"name": "",
					"type": "uint256",
					"internalType": "uint256"
				}
			],
			"stateMutability": "view"
		},
		{
			"type": "function",
			"name": "endBlock",
			"inputs": [],
			"outputs": [
				{
					"name": "",
					"type": "uint128",
					"internalType": "uint128"
				}
			],
			"stateMutability": "view"
		},
		{
			"type": "function",
			"name": "getClaimableProjectToken",
			"inputs": [
				{
					"name": "_investor",
					"type": "address",
					"internalType": "address"
				}
			],
			"outputs": [
				{
					"name": "",
					"type": "uint256",
					"internalType": "uint256"
				}
			],
			"stateMutability": "view"
		},
		{
			"type": "function",
			"name": "getEmissionRate",
			"inputs": [],
			"outputs": [
				{
					"name": "",
					"type": "uint256",
					"internalType": "uint256"
				}
			],
			"stateMutability": "view"
		},
		{
			"type": "function",
			"name": "getPoolInfo",
			"inputs": [],
			"outputs": [
				{
					"name": "",
					"type": "uint128",
					"internalType": "uint128"
				},
				{
					"name": "",
					"type": "uint128",
					"internalType": "uint128"
				},
				{
					"name": "",
					"type": "uint256",
					"internalType": "uint256"
				},
				{
					"name": "",
					"type": "uint256",
					"internalType": "uint256"
				}
			],
			"stateMutability": "view"
		},
		{
			"type": "function",
			"name": "getStakerNativeAmount",
			"inputs": [
				{
					"name": "_investor",
					"type": "address",
					"internalType": "address"
				}
			],
			"outputs": [
				{
					"name": "",
					"type": "uint256",
					"internalType": "uint256"
				}
			],
			"stateMutability": "view"
		},
		{
			"type": "function",
			"name": "getStakingRange",
			"inputs": [],
			"outputs": [
				{
					"name": "",
					"type": "uint256",
					"internalType": "uint256"
				},
				{
					"name": "",
					"type": "uint256",
					"internalType": "uint256"
				}
			],
			"stateMutability": "view"
		},
		{
			"type": "function",
			"name": "getTotalProjectToken",
			"inputs": [],
			"outputs": [
				{
					"name": "",
					"type": "uint256",
					"internalType": "uint256"
				}
			],
			"stateMutability": "view"
		},
		{
			"type": "function",
			"name": "getTotalStakedVTokens",
			"inputs": [],
			"outputs": [
				{
					"name": "",
					"type": "uint256",
					"internalType": "uint256"
				}
			],
			"stateMutability": "view"
		},
		{
			"type": "function",
			"name": "getWithdrawableVTokens",
			"inputs": [
				{
					"name": "_withdrawnNativeTokens",
					"type": "uint256",
					"internalType": "uint256"
				}
			],
			"outputs": [
				{
					"name": "withdrawableVAssets",
					"type": "uint256",
					"internalType": "uint256"
				}
			],
			"stateMutability": "view"
		},
		{
			"type": "function",
			"name": "lastNativeExRate",
			"inputs": [],
			"outputs": [
				{
					"name": "",
					"type": "uint256",
					"internalType": "uint256"
				}
			],
			"stateMutability": "view"
		},
		{
			"type": "function",
			"name": "lastNativeExRateUpdateBlock",
			"inputs": [],
			"outputs": [
				{
					"name": "",
					"type": "uint128",
					"internalType": "uint128"
				}
			],
			"stateMutability": "view"
		},
		{
			"type": "function",
			"name": "lastProcessedChangeBlockIndex",
			"inputs": [],
			"outputs": [
				{
					"name": "",
					"type": "uint256",
					"internalType": "uint256"
				}
			],
			"stateMutability": "view"
		},
		{
			"type": "function",
			"name": "maxStakers",
			"inputs": [],
			"outputs": [
				{
					"name": "",
					"type": "uint256",
					"internalType": "uint256"
				}
			],
			"stateMutability": "view"
		},
		{
			"type": "function",
			"name": "maxVAssetPerStaker",
			"inputs": [],
			"outputs": [
				{
					"name": "",
					"type": "uint256",
					"internalType": "uint256"
				}
			],
			"stateMutability": "view"
		},
		{
			"type": "function",
			"name": "nativeExRateSampleCount",
			"inputs": [],
			"outputs": [
				{
					"name": "",
					"type": "uint128",
					"internalType": "uint128"
				}
			],
			"stateMutability": "view"
		},
		{
			"type": "function",
			"name": "owner",
			"inputs": [],
			"outputs": [
				{
					"name": "",
					"type": "address",
					"internalType": "address"
				}
			],
			"stateMutability": "view"
		},
		{
			"type": "function",
			"name": "ownerShareOfInterest",
			"inputs": [],
			"outputs": [
				{
					"name": "",
					"type": "uint128",
					"internalType": "uint128"
				}
			],
			"stateMutability": "view"
		},
		{
			"type": "function",
			"name": "pause",
			"inputs": [],
			"outputs": [],
			"stateMutability": "nonpayable"
		},
		{
			"type": "function",
			"name": "paused",
			"inputs": [],
			"outputs": [
				{
					"name": "",
					"type": "bool",
					"internalType": "bool"
				}
			],
			"stateMutability": "view"
		},
		{
			"type": "function",
			"name": "platformAdminAddress",
			"inputs": [],
			"outputs": [
				{
					"name": "",
					"type": "address",
					"internalType": "address"
				}
			],
			"stateMutability": "view"
		},
		{
			"type": "function",
			"name": "platformFeeClaimed",
			"inputs": [],
			"outputs": [
				{
					"name": "",
					"type": "bool",
					"internalType": "bool"
				}
			],
			"stateMutability": "view"
		},
		{
			"type": "function",
			"name": "projectToken",
			"inputs": [],
			"outputs": [
				{
					"name": "",
					"type": "address",
					"internalType": "contract IERC20"
				}
			],
			"stateMutability": "view"
		},
		{
			"type": "function",
			"name": "recoverWrongToken",
			"inputs": [
				{
					"name": "_tokenAddress",
					"type": "address",
					"internalType": "address"
				}
			],
			"outputs": [],
			"stateMutability": "nonpayable"
		},
		{
			"type": "function",
			"name": "renounceOwnership",
			"inputs": [],
			"outputs": [],
			"stateMutability": "nonpayable"
		},
		{
			"type": "function",
			"name": "setXCMOracleAddress",
			"inputs": [
				{
					"name": "_xcmOracleAddress",
					"type": "address",
					"internalType": "address"
				}
			],
			"outputs": [],
			"stateMutability": "nonpayable"
		},
		{
			"type": "function",
			"name": "stake",
			"inputs": [
				{
					"name": "_vTokenAmount",
					"type": "uint256",
					"internalType": "uint256"
				}
			],
			"outputs": [],
			"stateMutability": "nonpayable"
		},
		{
			"type": "function",
			"name": "stakers",
			"inputs": [
				{
					"name": "",
					"type": "address",
					"internalType": "address"
				}
			],
			"outputs": [
				{
					"name": "nativeAmount",
					"type": "uint256",
					"internalType": "uint256"
				},
				{
					"name": "claimOffset",
					"type": "uint256",
					"internalType": "uint256"
				}
			],
			"stateMutability": "view"
		},
		{
			"type": "function",
			"name": "startBlock",
			"inputs": [],
			"outputs": [
				{
					"name": "",
					"type": "uint128",
					"internalType": "uint128"
				}
			],
			"stateMutability": "view"
		},
		{
			"type": "function",
			"name": "tickBlock",
			"inputs": [],
			"outputs": [
				{
					"name": "",
					"type": "uint128",
					"internalType": "uint128"
				}
			],
			"stateMutability": "view"
		},
		{
			"type": "function",
			"name": "totalNativeStake",
			"inputs": [],
			"outputs": [
				{
					"name": "",
					"type": "uint256",
					"internalType": "uint256"
				}
			],
			"stateMutability": "view"
		},
		{
			"type": "function",
			"name": "transferOwnership",
			"inputs": [
				{
					"name": "newOwner",
					"type": "address",
					"internalType": "address"
				}
			],
			"outputs": [],
			"stateMutability": "nonpayable"
		},
		{
			"type": "function",
			"name": "unpause",
			"inputs": [],
			"outputs": [],
			"stateMutability": "nonpayable"
		},
		{
			"type": "function",
			"name": "unstake",
			"inputs": [
				{
					"name": "_vTokenAmount",
					"type": "uint256",
					"internalType": "uint256"
				}
			],
			"outputs": [],
			"stateMutability": "nonpayable"
		},
		{
			"type": "function",
			"name": "unstakeWithoutProjectToken",
			"inputs": [
				{
					"name": "_withdrawnVTokens",
					"type": "uint256",
					"internalType": "uint256"
				}
			],
			"outputs": [],
			"stateMutability": "nonpayable"
		},
		{
			"type": "function",
			"name": "xcmOracle",
			"inputs": [],
			"outputs": [
				{
					"name": "",
					"type": "address",
					"internalType": "contract IXCMOracle"
				}
			],
			"stateMutability": "view"
		},
		{
			"type": "event",
			"name": "OwnershipTransferred",
			"inputs": [
				{
					"name": "previousOwner",
					"type": "address",
					"indexed": true,
					"internalType": "address"
				},
				{
					"name": "newOwner",
					"type": "address",
					"indexed": true,
					"internalType": "address"
				}
			],
			"anonymous": false
		},
		{
			"type": "event",
			"name": "Paused",
			"inputs": [
				{
					"name": "account",
					"type": "address",
					"indexed": false,
					"internalType": "address"
				}
			],
			"anonymous": false
		},
		{
			"type": "event",
			"name": "Staked",
			"inputs": [
				{
					"name": "user",
					"type": "address",
					"indexed": true,
					"internalType": "address"
				},
				{
					"name": "amount",
					"type": "uint256",
					"indexed": false,
					"internalType": "uint256"
				}
			],
			"anonymous": false
		},
		{
			"type": "event",
			"name": "Unpaused",
			"inputs": [
				{
					"name": "account",
					"type": "address",
					"indexed": false,
					"internalType": "address"
				}
			],
			"anonymous": false
		},
		{
			"type": "event",
			"name": "Unstaked",
			"inputs": [
				{
					"name": "user",
					"type": "address",
					"indexed": true,
					"internalType": "address"
				},
				{
					"name": "amount",
					"type": "uint256",
					"indexed": false,
					"internalType": "uint256"
				}
			],
			"anonymous": false
		},
		{
			"type": "error",
			"name": "ArraysLengthMismatch",
			"inputs": []
		},
		{
			"type": "error",
			"name": "DecimalsTooHigh",
			"inputs": [
				{
					"name": "tokenAddress",
					"type": "address",
					"internalType": "address"
				}
			]
		},
		{
			"type": "error",
			"name": "EndBlockMustBeAfterstartBlock",
			"inputs": []
		},
		{
			"type": "error",
			"name": "EnforcedPause",
			"inputs": []
		},
		{
			"type": "error",
			"name": "ExceedMaxVTokensPerStaker",
			"inputs": []
		},
		{
			"type": "error",
			"name": "ExceedNativeStake",
			"inputs": []
		},
		{
			"type": "error",
			"name": "ExceedWithdrawableVTokens",
			"inputs": []
		},
		{
			"type": "error",
			"name": "ExpectedPause",
			"inputs": []
		},
		{
			"type": "error",
			"name": "FailedToReadTokenDecimals",
			"inputs": []
		},
		{
			"type": "error",
			"name": "FirstChangeBlockMustBeStartBlock",
			"inputs": []
		},
		{
			"type": "error",
			"name": "MaxAndMinTokensPerStakerMustBeGreaterThanZero",
			"inputs": []
		},
		{
			"type": "error",
			"name": "MustBeAfterPoolEnd",
			"inputs": []
		},
		{
			"type": "error",
			"name": "MustBeDuringPoolTime",
			"inputs": []
		},
		{
			"type": "error",
			"name": "NoEmissionRateChangesProvided",
			"inputs": []
		},
		{
			"type": "error",
			"name": "NotPlatformAdmin",
			"inputs": []
		},
		{
			"type": "error",
			"name": "OwnableInvalidOwner",
			"inputs": [
				{
					"name": "owner",
					"type": "address",
					"internalType": "address"
				}
			]
		},
		{
			"type": "error",
			"name": "OwnableUnauthorizedAccount",
			"inputs": [
				{
					"name": "account",
					"type": "address",
					"internalType": "address"
				}
			]
		},
		{
			"type": "error",
			"name": "PlatformFeeAlreadyClaimed",
			"inputs": []
		},
		{
			"type": "error",
			"name": "ProjectTokenNotRecoverable",
			"inputs": []
		},
		{
			"type": "error",
			"name": "ReentrancyGuardReentrantCall",
			"inputs": []
		},
		{
			"type": "error",
			"name": "SafeERC20FailedOperation",
			"inputs": [
				{
					"name": "token",
					"type": "address",
					"internalType": "address"
				}
			]
		},
		{
			"type": "error",
			"name": "StartBlockMustBeInFuture",
			"inputs": []
		},
		{
			"type": "error",
			"name": "TotalProjectTokensMustBeGreaterThanZero",
			"inputs": []
		},
		{
			"type": "error",
			"name": "ZeroAddress",
			"inputs": []
		},
		{
			"type": "error",
			"name": "ZeroAmountNotAllowed",
			"inputs": []
		}
	],
	"bytecode": {
		"object": "0x60c0604052605a600560106101000a8154816fffffffffffffffffffffffffffffffff02191690836fffffffffffffffffffffffffffffffff160217905550348015610049575f80fd5b50604051615272380380615272833981810160405281019061006b9190610e73565b885f73ffffffffffffffffffffffffffffffffffffffff168173ffffffffffffffffffffffffffffffffffffffff16036100dc575f6040517f1e4fbdf70000000000000000000000000000000000000000000000000000000081526004016100d39190610f7e565b60405180910390fd5b6100eb8161075560201b60201c565b50600180819055505f60025f6101000a81548160ff021916908315150217905550875f73ffffffffffffffffffffffffffffffffffffffff168173ffffffffffffffffffffffffffffffffffffffff1603610172576040517fd92e233d00000000000000000000000000000000000000000000000000000000815260040160405180910390fd5b875f73ffffffffffffffffffffffffffffffffffffffff168173ffffffffffffffffffffffffffffffffffffffff16036101d8576040517fd92e233d00000000000000000000000000000000000000000000000000000000815260040160405180910390fd5b875f73ffffffffffffffffffffffffffffffffffffffff168173ffffffffffffffffffffffffffffffffffffffff160361023e576040517fd92e233d00000000000000000000000000000000000000000000000000000000815260040160405180910390fd5b855f8103610278576040517f18e580a800000000000000000000000000000000000000000000000000000000815260040160405180910390fd5b61028661081660201b60201c565b5f439050808a6fffffffffffffffffffffffffffffffff16116102d5576040517f78818b5f00000000000000000000000000000000000000000000000000000000815260040160405180910390fd5b896fffffffffffffffffffffffffffffffff16896fffffffffffffffffffffffffffffffff1611610332576040517f89edc18d00000000000000000000000000000000000000000000000000000000815260040160405180910390fd5b5f875190505f8111610370576040517fab1ea2ae00000000000000000000000000000000000000000000000000000000815260040160405180910390fd5b8a6fffffffffffffffffffffffffffffffff16885f8151811061039657610395610f97565b5b60200260200101516fffffffffffffffffffffffffffffffff16146103e7576040517ffa2c354c00000000000000000000000000000000000000000000000000000000815260040160405180910390fd5b80875114610421576040517ffc23596000000000000000000000000000000000000000000000000000000000815260040160405180910390fd5b5f6104318f61086c60201b60201c565b90505f6104438f61086c60201b60201c565b905081600a610452919061112c565b6c0c9f2c9cd04674edea4000000061046a91906111a3565b6080818152505080600a61047e919061112c565b60a081815250505f5b83811015610508578981815181106104a2576104a1610f97565b5b6020026020010151600b5f8d84815181106104c0576104bf610f97565b5b60200260200101516fffffffffffffffffffffffffffffffff166fffffffffffffffffffffffffffffffff1681526020019081526020015f2081905550806001019050610487565b5061051a60a05161091460201b60201c565b60128190555060145f81819054906101000a90046fffffffffffffffffffffffffffffffff16610549906111d3565b91906101000a8154816fffffffffffffffffffffffffffffffff02191690836fffffffffffffffffffffffffffffffff16021790555083601460106101000a8154816fffffffffffffffffffffffffffffffff02191690836fffffffffffffffffffffffffffffffff16021790555089600c90805190602001906105ce929190610a94565b508f600d5f6101000a81548173ffffffffffffffffffffffffffffffffffffffff021916908373ffffffffffffffffffffffffffffffffffffffff1602179055508e600e5f6101000a81548173ffffffffffffffffffffffffffffffffffffffff021916908373ffffffffffffffffffffffffffffffffffffffff1602179055508d600f5f6101000a81548173ffffffffffffffffffffffffffffffffffffffff021916908373ffffffffffffffffffffffffffffffffffffffff1602179055508c60045f6101000a8154816fffffffffffffffffffffffffffffffff02191690836fffffffffffffffffffffffffffffffff1602179055508b600460106101000a8154816fffffffffffffffffffffffffffffffff02191690836fffffffffffffffffffffffffffffffff1602179055508a6006819055508c60055f6101000a8154816fffffffffffffffffffffffffffffffff02191690836fffffffffffffffffffffffffffffffff16021790555050505050505050505050505050505050506113c4565b5f805f9054906101000a900473ffffffffffffffffffffffffffffffffffffffff169050815f806101000a81548173ffffffffffffffffffffffffffffffffffffffff021916908373ffffffffffffffffffffffffffffffffffffffff1602179055508173ffffffffffffffffffffffffffffffffffffffff168173ffffffffffffffffffffffffffffffffffffffff167f8be0079c531659141344cd1fd0a4f28419497f9722a3daafe3b4186f6b6457e060405160405180910390a35050565b73ef81930aa8ed07c17948b2e26b7bfaf20144ef2a60105f6101000a81548173ffffffffffffffffffffffffffffffffffffffff021916908373ffffffffffffffffffffffffffffffffffffffff160217905550565b5f8173ffffffffffffffffffffffffffffffffffffffff1663313ce5676040518163ffffffff1660e01b8152600401602060405180830381865afa9250505080156108d557506040513d601f19601f820116820180604052508101906108d29190611234565b60015b61090b576040517f6d1762b000000000000000000000000000000000000000000000000000000000815260040160405180910390fd5b80915050919050565b5f8060105f9054906101000a900473ffffffffffffffffffffffffffffffffffffffff1673ffffffffffffffffffffffffffffffffffffffff1663b2306010600f5f9054906101000a900473ffffffffffffffffffffffffffffffffffffffff166040518263ffffffff1660e01b81526004016109919190610f7e565b602060405180830381865afa1580156109ac573d5f803e3d5ffd5b505050506040513d601f19601f820116820180604052508101906109d091906112b4565b90505f60105f9054906101000a900473ffffffffffffffffffffffffffffffffffffffff1673ffffffffffffffffffffffffffffffffffffffff16631443d5b0836040518263ffffffff1660e01b8152600401610a2d91906112ee565b6040805180830381865afa158015610a47573d5f803e3d5ffd5b505050506040513d601f19601f82011682018060405250810190610a6b9190611358565b90508060200151815f015185610a819190611383565b610a8b91906111a3565b92505050919050565b828054828255905f5260205f2090600101600290048101928215610b54579160200282015f5b83821115610b1657835183826101000a8154816fffffffffffffffffffffffffffffffff02191690836fffffffffffffffffffffffffffffffff1602179055509260200192601001602081600f01049283019260010302610aba565b8015610b525782816101000a8154906fffffffffffffffffffffffffffffffff0219169055601001602081600f01049283019260010302610b16565b505b509050610b619190610b65565b5090565b5b80821115610b7c575f815f905550600101610b66565b5090565b5f604051905090565b5f80fd5b5f80fd5b5f73ffffffffffffffffffffffffffffffffffffffff82169050919050565b5f610bba82610b91565b9050919050565b610bca81610bb0565b8114610bd4575f80fd5b50565b5f81519050610be581610bc1565b92915050565b5f6fffffffffffffffffffffffffffffffff82169050919050565b610c0f81610beb565b8114610c19575f80fd5b50565b5f81519050610c2a81610c06565b92915050565b5f819050919050565b610c4281610c30565b8114610c4c575f80fd5b50565b5f81519050610c5d81610c39565b92915050565b5f80fd5b5f601f19601f8301169050919050565b7f4e487b71000000000000000000000000000000000000000000000000000000005f52604160045260245ffd5b610cad82610c67565b810181811067ffffffffffffffff82111715610ccc57610ccb610c77565b5b80604052505050565b5f610cde610b80565b9050610cea8282610ca4565b919050565b5f67ffffffffffffffff821115610d0957610d08610c77565b5b602082029050602081019050919050565b5f80fd5b5f610d30610d2b84610cef565b610cd5565b90508083825260208201905060208402830185811115610d5357610d52610d1a565b5b835b81811015610d7c5780610d688882610c1c565b845260208401935050602081019050610d55565b5050509392505050565b5f82601f830112610d9a57610d99610c63565b5b8151610daa848260208601610d1e565b91505092915050565b5f67ffffffffffffffff821115610dcd57610dcc610c77565b5b602082029050602081019050919050565b5f610df0610deb84610db3565b610cd5565b90508083825260208201905060208402830185811115610e1357610e12610d1a565b5b835b81811015610e3c5780610e288882610c4f565b845260208401935050602081019050610e15565b5050509392505050565b5f82601f830112610e5a57610e59610c63565b5b8151610e6a848260208601610dde565b91505092915050565b5f805f805f805f805f6101208a8c031215610e9157610e90610b89565b5b5f610e9e8c828d01610bd7565b9950506020610eaf8c828d01610bd7565b9850506040610ec08c828d01610bd7565b9750506060610ed18c828d01610bd7565b9650506080610ee28c828d01610c1c565b95505060a0610ef38c828d01610c1c565b94505060c0610f048c828d01610c4f565b93505060e08a015167ffffffffffffffff811115610f2557610f24610b8d565b5b610f318c828d01610d86565b9250506101008a015167ffffffffffffffff811115610f5357610f52610b8d565b5b610f5f8c828d01610e46565b9150509295985092959850929598565b610f7881610bb0565b82525050565b5f602082019050610f915f830184610f6f565b92915050565b7f4e487b71000000000000000000000000000000000000000000000000000000005f52603260045260245ffd5b7f4e487b71000000000000000000000000000000000000000000000000000000005f52601160045260245ffd5b5f8160011c9050919050565b5f808291508390505b60018511156110465780860481111561102257611021610fc4565b5b60018516156110315780820291505b808102905061103f85610ff1565b9450611006565b94509492505050565b5f8261105e5760019050611119565b8161106b575f9050611119565b8160018114611081576002811461108b576110ba565b6001915050611119565b60ff84111561109d5761109c610fc4565b5b8360020a9150848211156110b4576110b3610fc4565b5b50611119565b5060208310610133831016604e8410600b84101617156110ef5782820a9050838111156110ea576110e9610fc4565b5b611119565b6110fc8484846001610ffd565b9250905081840481111561111357611112610fc4565b5b81810290505b9392505050565b5f60ff82169050919050565b5f61113682610c30565b915061114183611120565b925061116e7fffffffffffffffffffffffffffffffffffffffffffffffffffffffffffffffff848461104f565b905092915050565b7f4e487b71000000000000000000000000000000000000000000000000000000005f52601260045260245ffd5b5f6111ad82610c30565b91506111b883610c30565b9250826111c8576111c7611176565b5b828204905092915050565b5f6111dd82610beb565b91506fffffffffffffffffffffffffffffffff82036111ff576111fe610fc4565b5b600182019050919050565b61121381611120565b811461121d575f80fd5b50565b5f8151905061122e8161120a565b92915050565b5f6020828403121561124957611248610b89565b5b5f61125684828501611220565b91505092915050565b5f7fffff00000000000000000000000000000000000000000000000000000000000082169050919050565b6112938161125f565b811461129d575f80fd5b50565b5f815190506112ae8161128a565b92915050565b5f602082840312156112c9576112c8610b89565b5b5f6112d6848285016112a0565b91505092915050565b6112e88161125f565b82525050565b5f6020820190506113015f8301846112df565b92915050565b5f80fd5b5f604082840312156113205761131f611307565b5b61132a6040610cd5565b90505f61133984828501610c4f565b5f83015250602061134c84828501610c4f565b60208301525092915050565b5f6040828403121561136d5761136c610b89565b5b5f61137a8482850161130b565b91505092915050565b5f61138d82610c30565b915061139883610c30565b92508282026113a681610c30565b915082820484148315176113bd576113bc610fc4565b5b5092915050565b60805160a051613e1661145c5f395f8181610a7701528181610aa301528181610f35015281816110a2015281816110ce015281816115c2015281816115ee01528181611f1e015281816125cc015281816128260152612b9001525f8181610b4d01528181610bfa0152818161128f01528181611892015281816119b0015281816120bf015281816130a801526132090152613e165ff3fe608060405234801561000f575f80fd5b506004361061029e575f3560e01c806384d38d4811610165578063b1f0af1b116100cc578063c0a77da911610085578063c0a77da91461077c578063d065cf8e1461079a578063ef4cadc5146107b8578063f2fde38b146107d6578063f73a8b5c146107f2578063fce88e6f146108105761029e565b8063b1f0af1b146106b8578063b64a025e146106d6578063b66a72df146106f2578063b87a6aeb14610710578063bb8afc7b14610740578063bfc55b8a1461075e5761029e565b80639b4f83211161011e5780639b4f8321146106305780639c8aea901461064e578063a694fc3a14610658578063a748afb014610674578063aac9ce5c14610692578063ab7302bb146106ae5761029e565b806384d38d48146105575780638da5cb5b146105755780638e70fa8c146105935780639168ae72146105b1578063976251e6146105e257806399dc0390146106125761029e565b8063544c2d761161020957806372cacb70116101c257806372cacb70146104a757806372e48cf3146104c55780637d334107146104cf57806380729f17146104ff57806381cadea01461052f5780638456cb591461054d5761029e565b8063544c2d76146103f25780635bf0fa89146104105780635c975abb1461044057806360246c881461045e5780636cf568461461047f578063715018a61461049d5761029e565b806333d8773d1161025b57806333d8773d146103525780633f4ba83a1461037057806348cd4cb11461037a5780634b60ce77146103985780634f7ff503146103b6578063534a9d00146103d45761029e565b8063018bcf5c146102a25780630417cf8e146102be57806306508ebc146102dc578063083c6323146102fa578063129989a3146103185780632e17de7814610336575b5f80fd5b6102bc60048036038101906102b79190613706565b61082f565b005b6102c6610975565b6040516102d39190613749565b60405180910390f35b6102e461097a565b6040516102f1919061378c565b60405180910390f35b61030261099b565b60405161030f919061378c565b60405180910390f35b6103206109bd565b60405161032d91906137b4565b60405180910390f35b610350600480360381019061034b91906137f7565b6109e2565b005b61035a610d58565b6040516103679190613749565b60405180910390f35b610378610d5e565b005b610382610dee565b60405161038f919061378c565b60405180910390f35b6103a0610e0f565b6040516103ad919061387d565b60405180910390f35b6103be610e34565b6040516103cb9190613749565b60405180910390f35b6103dc610e3a565b6040516103e99190613749565b60405180910390f35b6103fa610ed9565b6040516104079190613749565b60405180910390f35b61042a600480360381019061042591906137f7565b610edf565b6040516104379190613749565b60405180910390f35b610448610f8a565b60405161045591906138b0565b60405180910390f35b610466610f9f565b60405161047694939291906138c9565b60405180910390f35b610487610ffe565b604051610494919061392c565b60405180910390f35b6104a5611023565b005b6104af611036565b6040516104bc9190613749565b60405180910390f35b6104cd611047565b005b6104e960048036038101906104e49190613706565b6111ce565b6040516104f69190613749565b60405180910390f35b61051960048036038101906105149190613706565b611216565b6040516105269190613749565b60405180910390f35b6105376112ee565b6040516105449190613749565b60405180910390f35b6105556112f4565b005b61055f611384565b60405161056c919061378c565b60405180910390f35b61057d6113a6565b60405161058a91906137b4565b60405180910390f35b61059b6113cd565b6040516105a8919061387d565b60405180910390f35b6105cb60048036038101906105c69190613706565b6113f2565b6040516105d9929190613945565b60405180910390f35b6105fc60048036038101906105f791906137f7565b611412565b604051610609919061378c565b60405180910390f35b61061a611455565b604051610627919061387d565b60405180910390f35b61063861147a565b6040516106459190613749565b60405180910390f35b610656611480565b005b610672600480360381019061066d91906137f7565b6116f8565b005b61067c611a4e565b6040516106899190613749565b60405180910390f35b6106ac60048036038101906106a79190613706565b611a54565b005b6106b6611b1d565b005b6106c0611ccc565b6040516106cd919061378c565b60405180910390f35b6106f060048036038101906106eb91906137f7565b611cee565b005b6106fa611f01565b6040516107079190613749565b60405180910390f35b61072a60048036038101906107259190613996565b611f07565b6040516107379190613749565b60405180910390f35b610748611f1c565b6040516107559190613749565b60405180910390f35b610766611f40565b604051610773919061378c565b60405180910390f35b610784611f61565b6040516107919190613749565b60405180910390f35b6107a26120ab565b6040516107af91906138b0565b60405180910390f35b6107c06120bd565b6040516107cd9190613749565b60405180910390f35b6107f060048036038101906107eb9190613706565b6120e1565b005b6107fa612165565b6040516108079190613749565b60405180910390f35b610818612204565b604051610826929190613945565b60405180910390f35b610837612214565b80600d5f9054906101000a900473ffffffffffffffffffffffffffffffffffffffff1673ffffffffffffffffffffffffffffffffffffffff168173ffffffffffffffffffffffffffffffffffffffff16036108be576040517fdad2afd700000000000000000000000000000000000000000000000000000000815260040160405180910390fd5b5f8290505f8173ffffffffffffffffffffffffffffffffffffffff166370a08231306040518263ffffffff1660e01b81526004016108fc91906137b4565b602060405180830381865afa158015610917573d5f803e3d5ffd5b505050506040513d601f19601f8201168201806040525081019061093b91906139d5565b905061096f6109486113a6565b828473ffffffffffffffffffffffffffffffffffffffff1661229b9092919063ffffffff16565b50505050565b601e81565b60145f9054906101000a90046fffffffffffffffffffffffffffffffff1681565b600460109054906101000a90046fffffffffffffffffffffffffffffffff1681565b600a5f9054906101000a900473ffffffffffffffffffffffffffffffffffffffff1681565b805f8103610a1c576040517f0f43956a00000000000000000000000000000000000000000000000000000000815260040160405180910390fd5b610a2461231a565b610a2c61235b565b5f601354148015610a6c5750600460109054906101000a90046fffffffffffffffffffffffffffffffff166fffffffffffffffffffffffffffffffff1643115b15610ac9575f610a9b7f00000000000000000000000000000000000000000000000000000000000000006123a1565b9050610ac7817f0000000000000000000000000000000000000000000000000000000000000000612521565b505b5f610ad261277a565b90505f60115f8373ffffffffffffffffffffffffffffffffffffffff1673ffffffffffffffffffffffffffffffffffffffff1681526020019081526020015f206040518060400160405290815f820154815260200160018201548152505090505f610b3d8286612781565b90505f60035490505f83602001517f000000000000000000000000000000000000000000000000000000000000000083865f0151610b7b9190613a2d565b610b859190613a9b565b610b8f9190613acb565b90505f811115610be657610be53382600d5f9054906101000a900473ffffffffffffffffffffffffffffffffffffffff1673ffffffffffffffffffffffffffffffffffffffff1661229b9092919063ffffffff16565b5b5f83855f0151610bf69190613acb565b90507f00000000000000000000000000000000000000000000000000000000000000008382610c259190613a2d565b610c2f9190613a9b565b85602001818152505080855f0181815250508360085f828254610c529190613acb565b925050819055508460115f8873ffffffffffffffffffffffffffffffffffffffff1673ffffffffffffffffffffffffffffffffffffffff1681526020019081526020015f205f820151815f0155602082015181600101559050508573ffffffffffffffffffffffffffffffffffffffff167f0f5bb82176feb1b5e747e28471aa92156a04d9f3ab9f45f28e2d704232b93f7589604051610cf29190613749565b60405180910390a2610d468689600e5f9054906101000a900473ffffffffffffffffffffffffffffffffffffffff1673ffffffffffffffffffffffffffffffffffffffff1661229b9092919063ffffffff16565b505050505050610d546128fd565b5050565b60035481565b600a5f9054906101000a900473ffffffffffffffffffffffffffffffffffffffff1673ffffffffffffffffffffffffffffffffffffffff163373ffffffffffffffffffffffffffffffffffffffff1614610de4576040517fd4d7478300000000000000000000000000000000000000000000000000000000815260040160405180910390fd5b610dec612906565b565b60045f9054906101000a90046fffffffffffffffffffffffffffffffff1681565b600d5f9054906101000a900473ffffffffffffffffffffffffffffffffffffffff1681565b60075481565b5f600e5f9054906101000a900473ffffffffffffffffffffffffffffffffffffffff1673ffffffffffffffffffffffffffffffffffffffff166370a08231306040518263ffffffff1660e01b8152600401610e9591906137b4565b602060405180830381865afa158015610eb0573d5f803e3d5ffd5b505050506040513d601f19601f82011682018060405250810190610ed491906139d5565b905090565b60085481565b5f600460109054906101000a90046fffffffffffffffffffffffffffffffff166fffffffffffffffffffffffffffffffff164311610f2757610f2082612967565b9050610f6d565b5f610f30612ae7565b9050807f000000000000000000000000000000000000000000000000000000000000000084610f5f9190613a2d565b610f699190613a9b565b9150505b5f610f76610e3a565b905080821115610f84578091505b50919050565b5f60025f9054906101000a900460ff16905090565b5f805f8060045f9054906101000a90046fffffffffffffffffffffffffffffffff16600460109054906101000a90046fffffffffffffffffffffffffffffffff16610fe8612165565b610ff0611f61565b935093509350935090919293565b60105f9054906101000a900473ffffffffffffffffffffffffffffffffffffffff1681565b61102b612214565b6110345f612cab565b565b6c0c9f2c9cd04674edea4000000081565b61104f612214565b61105761235b565b5f6013541480156110975750600460109054906101000a90046fffffffffffffffffffffffffffffffff166fffffffffffffffffffffffffffffffff1643115b156110f4575f6110c67f00000000000000000000000000000000000000000000000000000000000000006123a1565b90506110f2817f0000000000000000000000000000000000000000000000000000000000000000612521565b505b5f806110fe612d6c565b9150915061115561110d6113a6565b83600e5f9054906101000a900473ffffffffffffffffffffffffffffffffffffffff1673ffffffffffffffffffffffffffffffffffffffff1661229b9092919063ffffffff16565b6111c2600a5f9054906101000a900473ffffffffffffffffffffffffffffffffffffffff1682600e5f9054906101000a900473ffffffffffffffffffffffffffffffffffffffff1673ffffffffffffffffffffffffffffffffffffffff1661229b9092919063ffffffff16565b50506111cc6128fd565b565b5f60115f8373ffffffffffffffffffffffffffffffffffffffff1673ffffffffffffffffffffffffffffffffffffffff1681526020019081526020015f205f01549050919050565b5f8060115f8473ffffffffffffffffffffffffffffffffffffffff1673ffffffffffffffffffffffffffffffffffffffff1681526020019081526020015f206040518060400160405290815f820154815260200160018201548152505090505f815f015103611288575f9150506112e9565b80602001517f00000000000000000000000000000000000000000000000000000000000000006112b6612ebc565b6003546112c39190613afe565b835f01516112d19190613a2d565b6112db9190613a9b565b6112e59190613acb565b9150505b919050565b60065481565b600a5f9054906101000a900473ffffffffffffffffffffffffffffffffffffffff1673ffffffffffffffffffffffffffffffffffffffff163373ffffffffffffffffffffffffffffffffffffffff161461137a576040517fd4d7478300000000000000000000000000000000000000000000000000000000815260040160405180910390fd5b611382613264565b565b600560109054906101000a90046fffffffffffffffffffffffffffffffff1681565b5f805f9054906101000a900473ffffffffffffffffffffffffffffffffffffffff16905090565b600f5f9054906101000a900473ffffffffffffffffffffffffffffffffffffffff1681565b6011602052805f5260405f205f91509050805f0154908060010154905082565b600c8181548110611421575f80fd5b905f5260205f209060029182820401919006601002915054906101000a90046fffffffffffffffffffffffffffffffff1681565b600e5f9054906101000a900473ffffffffffffffffffffffffffffffffffffffff1681565b60125481565b600a5f9054906101000a900473ffffffffffffffffffffffffffffffffffffffff1673ffffffffffffffffffffffffffffffffffffffff163373ffffffffffffffffffffffffffffffffffffffff1614611506576040517fd4d7478300000000000000000000000000000000000000000000000000000000815260040160405180910390fd5b600460109054906101000a90046fffffffffffffffffffffffffffffffff166fffffffffffffffffffffffffffffffff16431161156f576040517fc00b64a100000000000000000000000000000000000000000000000000000000815260040160405180910390fd5b61157761235b565b5f6013541480156115b75750600460109054906101000a90046fffffffffffffffffffffffffffffffff166fffffffffffffffffffffffffffffffff1643115b15611614575f6115e67f00000000000000000000000000000000000000000000000000000000000000006123a1565b9050611612817f0000000000000000000000000000000000000000000000000000000000000000612521565b505b60155f9054906101000a900460ff161561165a576040517fdac5eb0f00000000000000000000000000000000000000000000000000000000815260040160405180910390fd5b600160155f6101000a81548160ff0219169083151502179055505f61167d612d6c565b9150506116ed600a5f9054906101000a900473ffffffffffffffffffffffffffffffffffffffff1682600e5f9054906101000a900473ffffffffffffffffffffffffffffffffffffffff1673ffffffffffffffffffffffffffffffffffffffff1661229b9092919063ffffffff16565b506116f66128fd565b565b805f8103611732576040517f0f43956a00000000000000000000000000000000000000000000000000000000815260040160405180910390fd5b60045f9054906101000a90046fffffffffffffffffffffffffffffffff166fffffffffffffffffffffffffffffffff1643108061179e5750600460109054906101000a90046fffffffffffffffffffffffffffffffff166fffffffffffffffffffffffffffffffff1643115b156117d5576040517fa2255c1700000000000000000000000000000000000000000000000000000000815260040160405180910390fd5b6117dd61231a565b6117e561235b565b600654821115611821576040517f2b5dea7500000000000000000000000000000000000000000000000000000000815260040160405180910390fd5b5f60115f3373ffffffffffffffffffffffffffffffffffffffff1673ffffffffffffffffffffffffffffffffffffffff1681526020019081526020015f2090505f61186b846123a1565b90506118778185612521565b61187f6132c6565b5f825f0154111561192f575f82600101547f0000000000000000000000000000000000000000000000000000000000000000600354855f01546118c29190613a2d565b6118cc9190613a9b565b6118d69190613acb565b90505f81111561192d5761192c3382600d5f9054906101000a900473ffffffffffffffffffffffffffffffffffffffff1673ffffffffffffffffffffffffffffffffffffffff1661229b9092919063ffffffff16565b5b505b80825f015f8282546119419190613afe565b925050819055508060085f8282546119599190613afe565b925050819055506119ae333086600e5f9054906101000a900473ffffffffffffffffffffffffffffffffffffffff1673ffffffffffffffffffffffffffffffffffffffff166133b8909392919063ffffffff16565b7f0000000000000000000000000000000000000000000000000000000000000000600354835f01546119e09190613a2d565b6119ea9190613a9b565b82600101819055503373ffffffffffffffffffffffffffffffffffffffff167f9e71bc8eea02a63969f509818f2dafb9254532904319f9dbda79b67bd34a5f3d85604051611a389190613749565b60405180910390a25050611a4a6128fd565b5050565b60095481565b600a5f9054906101000a900473ffffffffffffffffffffffffffffffffffffffff1673ffffffffffffffffffffffffffffffffffffffff163373ffffffffffffffffffffffffffffffffffffffff1614611ada576040517fd4d7478300000000000000000000000000000000000000000000000000000000815260040160405180910390fd5b8060105f6101000a81548173ffffffffffffffffffffffffffffffffffffffff021916908373ffffffffffffffffffffffffffffffffffffffff16021790555050565b611b25612214565b600460109054906101000a90046fffffffffffffffffffffffffffffffff166fffffffffffffffffffffffffffffffff164311611b8e576040517fc00b64a100000000000000000000000000000000000000000000000000000000815260040160405180910390fd5b5f600d5f9054906101000a900473ffffffffffffffffffffffffffffffffffffffff1673ffffffffffffffffffffffffffffffffffffffff166370a08231306040518263ffffffff1660e01b8152600401611be991906137b4565b602060405180830381865afa158015611c04573d5f803e3d5ffd5b505050506040513d601f19601f82011682018060405250810190611c2891906139d5565b9050611c763382600d5f9054906101000a900473ffffffffffffffffffffffffffffffffffffffff1673ffffffffffffffffffffffffffffffffffffffff1661229b9092919063ffffffff16565b611cc9611c816113a6565b82600d5f9054906101000a900473ffffffffffffffffffffffffffffffffffffffff1673ffffffffffffffffffffffffffffffffffffffff1661229b9092919063ffffffff16565b50565b601460109054906101000a90046fffffffffffffffffffffffffffffffff1681565b805f8103611d28576040517f0f43956a00000000000000000000000000000000000000000000000000000000815260040160405180910390fd5b611d3061235b565b5f611d3961277a565b90505f60115f8373ffffffffffffffffffffffffffffffffffffffff1673ffffffffffffffffffffffffffffffffffffffff1681526020019081526020015f206040518060400160405290815f820154815260200160018201548152505090505f611da48286612781565b9050611db3825f015186612521565b611dbb6132c6565b80825f01818151611dcc9190613acb565b91508181525050600354825f0151611de49190613a2d565b8260200181815250508060085f828254611dfe9190613acb565b925050819055508160115f8573ffffffffffffffffffffffffffffffffffffffff1673ffffffffffffffffffffffffffffffffffffffff1681526020019081526020015f205f820151815f0155602082015181600101559050503373ffffffffffffffffffffffffffffffffffffffff167f0f5bb82176feb1b5e747e28471aa92156a04d9f3ab9f45f28e2d704232b93f7586604051611e9e9190613749565b60405180910390a2611ef23386600e5f9054906101000a900473ffffffffffffffffffffffffffffffffffffffff1673ffffffffffffffffffffffffffffffffffffffff1661229b9092919063ffffffff16565b505050611efd6128fd565b5050565b60135481565b600b602052805f5260405f205f915090505481565b7f000000000000000000000000000000000000000000000000000000000000000081565b60055f9054906101000a90046fffffffffffffffffffffffffffffffff1681565b5f600460109054906101000a90046fffffffffffffffffffffffffffffffff166fffffffffffffffffffffffffffffffff164310611fa1575f90506120a8565b5f4390505f80600c8054905090505f60095490505b818110156120a057600c8181548110611fd257611fd1613b31565b5b905f5260205f2090600291828204019190066010029054906101000a90046fffffffffffffffffffffffffffffffff166fffffffffffffffffffffffffffffffff1684106120a057600b5f600c838154811061203157612030613b31565b5b905f5260205f2090600291828204019190066010029054906101000a90046fffffffffffffffffffffffffffffffff166fffffffffffffffffffffffffffffffff166fffffffffffffffffffffffffffffffff1681526020019081526020015f20549250806001019050611fb6565b508193505050505b90565b60155f9054906101000a900460ff1681565b7f000000000000000000000000000000000000000000000000000000000000000081565b6120e9612214565b5f73ffffffffffffffffffffffffffffffffffffffff168173ffffffffffffffffffffffffffffffffffffffff1603612159575f6040517f1e4fbdf700000000000000000000000000000000000000000000000000000000815260040161215091906137b4565b60405180910390fd5b61216281612cab565b50565b5f600d5f9054906101000a900473ffffffffffffffffffffffffffffffffffffffff1673ffffffffffffffffffffffffffffffffffffffff166370a08231306040518263ffffffff1660e01b81526004016121c091906137b4565b602060405180830381865afa1580156121db573d5f803e3d5ffd5b505050506040513d601f19601f820116820180604052508101906121ff91906139d5565b905090565b5f80600654600754915091509091565b61221c61277a565b73ffffffffffffffffffffffffffffffffffffffff1661223a6113a6565b73ffffffffffffffffffffffffffffffffffffffff16146122995761225d61277a565b6040517f118cdaa700000000000000000000000000000000000000000000000000000000815260040161229091906137b4565b60405180910390fd5b565b612315838473ffffffffffffffffffffffffffffffffffffffff1663a9059cbb85856040516024016122ce929190613b5e565b604051602081830303815290604052915060e01b6020820180517bffffffffffffffffffffffffffffffffffffffffffffffffffffffff838183161783525050505061343a565b505050565b612322610f8a565b15612359576040517fd93c066500000000000000000000000000000000000000000000000000000000815260040160405180910390fd5b565b600260015403612397576040517f3ee5aeb500000000000000000000000000000000000000000000000000000000815260040160405180910390fd5b6002600181905550565b5f8060105f9054906101000a900473ffffffffffffffffffffffffffffffffffffffff1673ffffffffffffffffffffffffffffffffffffffff1663b2306010600f5f9054906101000a900473ffffffffffffffffffffffffffffffffffffffff166040518263ffffffff1660e01b815260040161241e91906137b4565b602060405180830381865afa158015612439573d5f803e3d5ffd5b505050506040513d601f19601f8201168201806040525081019061245d9190613bda565b90505f60105f9054906101000a900473ffffffffffffffffffffffffffffffffffffffff1673ffffffffffffffffffffffffffffffffffffffff16631443d5b0836040518263ffffffff1660e01b81526004016124ba9190613c14565b6040805180830381865afa1580156124d4573d5f803e3d5ffd5b505050506040513d601f19601f820116820180604052508101906124f89190613d06565b90508060200151815f01518561250e9190613a2d565b6125189190613a9b565b92505050919050565b5f4390505f601460109054906101000a90046fffffffffffffffffffffffffffffffff166fffffffffffffffffffffffffffffffff16826125629190613acb565b90505f8103612572575050612776565b5f600460109054906101000a90046fffffffffffffffffffffffffffffffff166fffffffffffffffffffffffffffffffff16831190505f806013541190508180156125ba5750805b156125c85750505050612776565b5f857f0000000000000000000000000000000000000000000000000000000000000000886125f69190613a2d565b6126009190613a9b565b90506012548111612615575050505050612776565b5f601254826126249190613acb565b90505f85826126339190613a9b565b90508461267b578260128190555086601460106101000a8154816fffffffffffffffffffffffffffffffff02191690836fffffffffffffffffffffffffffffffff1602179055505b60145f9054906101000a90046fffffffffffffffffffffffffffffffff166fffffffffffffffffffffffffffffffff1681600160145f9054906101000a90046fffffffffffffffffffffffffffffffff166126d69190613d31565b6fffffffffffffffffffffffffffffffff166013546126f59190613a2d565b6126ff9190613afe565b6127099190613a9b565b60138190555060145f81819054906101000a90046fffffffffffffffffffffffffffffffff1661273890613d74565b91906101000a8154816fffffffffffffffffffffffffffffffff02191690836fffffffffffffffffffffffffffffffff160217905550505050505050505b5050565b5f33905090565b5f80835f0151036127be576040517f0f43956a00000000000000000000000000000000000000000000000000000000815260040160405180910390fd5b600460109054906101000a90046fffffffffffffffffffffffffffffffff166fffffffffffffffffffffffffffffffff16431115612864575f6013540361281957612808826123a1565b90506128148183612521565b61285f565b5f612822612ae7565b90507f000000000000000000000000000000000000000000000000000000000000000081846128519190613a2d565b61285b9190613a9b565b9150505b612870565b61286d826123a1565b90505b5f61287d845f0151610edf565b9050828110156128b9576040517f3455ae2800000000000000000000000000000000000000000000000000000000815260040160405180910390fd5b81845f015110156128f6576040517f42a83c8400000000000000000000000000000000000000000000000000000000815260040160405180910390fd5b5092915050565b60018081905550565b61290e6134d5565b5f60025f6101000a81548160ff0219169083151502179055507f5db9ee0a495bf2e6ff9c91a7834c1ba4fdd244a5e8aa4e537bd38aeae4b073aa61295061277a565b60405161295d91906137b4565b60405180910390a1565b5f8060105f9054906101000a900473ffffffffffffffffffffffffffffffffffffffff1673ffffffffffffffffffffffffffffffffffffffff1663b2306010600f5f9054906101000a900473ffffffffffffffffffffffffffffffffffffffff166040518263ffffffff1660e01b81526004016129e491906137b4565b602060405180830381865afa1580156129ff573d5f803e3d5ffd5b505050506040513d601f19601f82011682018060405250810190612a239190613bda565b90505f60105f9054906101000a900473ffffffffffffffffffffffffffffffffffffffff1673ffffffffffffffffffffffffffffffffffffffff16631443d5b0836040518263ffffffff1660e01b8152600401612a809190613c14565b6040805180830381865afa158015612a9a573d5f803e3d5ffd5b505050506040513d601f19601f82011682018060405250810190612abe9190613d06565b9050805f0151816020015185612ad49190613a2d565b612ade9190613a9b565b92505050919050565b5f80601460109054906101000a90046fffffffffffffffffffffffffffffffff16600460109054906101000a90046fffffffffffffffffffffffffffffffff16612b319190613d31565b6fffffffffffffffffffffffffffffffff169050600460109054906101000a90046fffffffffffffffffffffffffffffffff166fffffffffffffffffffffffffffffffff1643118015612b8557505f601354145b15612c89575f612bb47f00000000000000000000000000000000000000000000000000000000000000006123a1565b90505f601460109054906101000a90046fffffffffffffffffffffffffffffffff166fffffffffffffffffffffffffffffffff1643612bf39190613acb565b60125483612c019190613acb565b612c0b9190613a9b565b9050601460109054906101000a90046fffffffffffffffffffffffffffffffff16600460109054906101000a90046fffffffffffffffffffffffffffffffff16612c559190613d31565b6fffffffffffffffffffffffffffffffff1681612c729190613a2d565b601254612c7f9190613afe565b9350505050612ca8565b80601354612c979190613a2d565b601254612ca49190613afe565b9150505b90565b5f805f9054906101000a900473ffffffffffffffffffffffffffffffffffffffff169050815f806101000a81548173ffffffffffffffffffffffffffffffffffffffff021916908373ffffffffffffffffffffffffffffffffffffffff1602179055508173ffffffffffffffffffffffffffffffffffffffff168173ffffffffffffffffffffffffffffffffffffffff167f8be0079c531659141344cd1fd0a4f28419497f9722a3daafe3b4186f6b6457e060405160405180910390a35050565b5f805f600e5f9054906101000a900473ffffffffffffffffffffffffffffffffffffffff1673ffffffffffffffffffffffffffffffffffffffff166370a08231306040518263ffffffff1660e01b8152600401612dc991906137b4565b602060405180830381865afa158015612de4573d5f803e3d5ffd5b505050506040513d601f19601f82011682018060405250810190612e0891906139d5565b90505f8103612e1d575f809250925050612eb8565b5f612e29600854610edf565b90505f8183612e389190613acb565b905060155f9054906101000a900460ff1615612e5c57805f94509450505050612eb8565b6064600560109054906101000a90046fffffffffffffffffffffffffffffffff166fffffffffffffffffffffffffffffffff1682612e9a9190613a2d565b612ea49190613a9b565b94508481612eb29190613acb565b93505050505b9091565b5f8060085403612ece575f9050613261565b5f4390505f60055f9054906101000a90046fffffffffffffffffffffffffffffffff1690505f80600c8054905090505f8060095490505b8281101561310757600c8181548110612f2157612f20613b31565b5b905f5260205f2090600291828204019190066010029054906101000a90046fffffffffffffffffffffffffffffffff16935085846fffffffffffffffffffffffffffffffff16101561310757846fffffffffffffffffffffffffffffffff16846fffffffffffffffffffffffffffffffff1611156130fa575f612fc8866fffffffffffffffffffffffffffffffff16866fffffffffffffffffffffffffffffffff16613515565b90505f600b5f80851461302a57600c600186612fe49190613acb565b81548110612ff557612ff4613b31565b5b905f5260205f2090600291828204019190066010029054906101000a90046fffffffffffffffffffffffffffffffff1661306f565b600c5f8154811061303e5761303d613b31565b5b905f5260205f2090600291828204019190066010029054906101000a90046fffffffffffffffffffffffffffffffff165b6fffffffffffffffffffffffffffffffff166fffffffffffffffffffffffffffffffff1681526020019081526020015f205490506008547f000000000000000000000000000000000000000000000000000000000000000083836130d39190613a2d565b6130dd9190613a2d565b6130e79190613a9b565b846130f29190613afe565b935085965050505b8080600101915050612f05565b5f613124866fffffffffffffffffffffffffffffffff1688613515565b90505f87866fffffffffffffffffffffffffffffffff1611156131cb57600b5f600c6001866131539190613acb565b8154811061316457613163613b31565b5b905f5260205f2090600291828204019190066010029054906101000a90046fffffffffffffffffffffffffffffffff166fffffffffffffffffffffffffffffffff166fffffffffffffffffffffffffffffffff1681526020019081526020015f2054613202565b600b5f876fffffffffffffffffffffffffffffffff166fffffffffffffffffffffffffffffffff1681526020019081526020015f20545b90506008547f000000000000000000000000000000000000000000000000000000000000000083836132349190613a2d565b61323e9190613a2d565b6132489190613a9b565b846132539190613afe565b935083985050505050505050505b90565b61326c61231a565b600160025f6101000a81548160ff0219169083151502179055507f62e78cea01bee320cd4e420270b5ea74000d11b0c9f74754ebdbfc544b05a2586132af61277a565b6040516132bc91906137b4565b60405180910390a1565b5f43905060055f9054906101000a90046fffffffffffffffffffffffffffffffff166fffffffffffffffffffffffffffffffff16810361330657506133b6565b5f60085403613355574360055f6101000a8154816fffffffffffffffffffffffffffffffff02191690836fffffffffffffffffffffffffffffffff16021790555061334f6135e4565b506133b6565b61335d612ebc565b60035f82825461336d9190613afe565b925050819055508060055f6101000a8154816fffffffffffffffffffffffffffffffff02191690836fffffffffffffffffffffffffffffffff1602179055506133b46135e4565b505b565b613434848573ffffffffffffffffffffffffffffffffffffffff166323b872dd8686866040516024016133ed93929190613dab565b604051602081830303815290604052915060e01b6020820180517bffffffffffffffffffffffffffffffffffffffffffffffffffffffff838183161783525050505061343a565b50505050565b5f8060205f8451602086015f885af180613459576040513d5f823e3d81fd5b3d92505f519150505f821461347257600181141561348d565b5f8473ffffffffffffffffffffffffffffffffffffffff163b145b156134cf57836040517f5274afe70000000000000000000000000000000000000000000000000000000081526004016134c691906137b4565b60405180910390fd5b50505050565b6134dd610f8a565b613513576040517f8dfc202b00000000000000000000000000000000000000000000000000000000815260040160405180910390fd5b565b5f600460109054906101000a90046fffffffffffffffffffffffffffffffff166fffffffffffffffffffffffffffffffff1682116135605782826135599190613acb565b90506135de565b600460109054906101000a90046fffffffffffffffffffffffffffffffff166fffffffffffffffffffffffffffffffff16831061359f575f90506135de565b82600460109054906101000a90046fffffffffffffffffffffffffffffffff166fffffffffffffffffffffffffffffffff166135db9190613acb565b90505b92915050565b5f600c8054905090505f60095490505b8181101561369b5760055f9054906101000a90046fffffffffffffffffffffffffffffffff166fffffffffffffffffffffffffffffffff16600c82815481106136405761363f613b31565b5b905f5260205f2090600291828204019190066010029054906101000a90046fffffffffffffffffffffffffffffffff166fffffffffffffffffffffffffffffffff161161369b578060098190555080806001019150506135f4565b5050565b5f604051905090565b5f80fd5b5f73ffffffffffffffffffffffffffffffffffffffff82169050919050565b5f6136d5826136ac565b9050919050565b6136e5816136cb565b81146136ef575f80fd5b50565b5f81359050613700816136dc565b92915050565b5f6020828403121561371b5761371a6136a8565b5b5f613728848285016136f2565b91505092915050565b5f819050919050565b61374381613731565b82525050565b5f60208201905061375c5f83018461373a565b92915050565b5f6fffffffffffffffffffffffffffffffff82169050919050565b61378681613762565b82525050565b5f60208201905061379f5f83018461377d565b92915050565b6137ae816136cb565b82525050565b5f6020820190506137c75f8301846137a5565b92915050565b6137d681613731565b81146137e0575f80fd5b50565b5f813590506137f1816137cd565b92915050565b5f6020828403121561380c5761380b6136a8565b5b5f613819848285016137e3565b91505092915050565b5f819050919050565b5f61384561384061383b846136ac565b613822565b6136ac565b9050919050565b5f6138568261382b565b9050919050565b5f6138678261384c565b9050919050565b6138778161385d565b82525050565b5f6020820190506138905f83018461386e565b92915050565b5f8115159050919050565b6138aa81613896565b82525050565b5f6020820190506138c35f8301846138a1565b92915050565b5f6080820190506138dc5f83018761377d565b6138e9602083018661377d565b6138f6604083018561373a565b613903606083018461373a565b95945050505050565b5f6139168261384c565b9050919050565b6139268161390c565b82525050565b5f60208201905061393f5f83018461391d565b92915050565b5f6040820190506139585f83018561373a565b613965602083018461373a565b9392505050565b61397581613762565b811461397f575f80fd5b50565b5f813590506139908161396c565b92915050565b5f602082840312156139ab576139aa6136a8565b5b5f6139b884828501613982565b91505092915050565b5f815190506139cf816137cd565b92915050565b5f602082840312156139ea576139e96136a8565b5b5f6139f7848285016139c1565b91505092915050565b7f4e487b71000000000000000000000000000000000000000000000000000000005f52601160045260245ffd5b5f613a3782613731565b9150613a4283613731565b9250828202613a5081613731565b91508282048414831517613a6757613a66613a00565b5b5092915050565b7f4e487b71000000000000000000000000000000000000000000000000000000005f52601260045260245ffd5b5f613aa582613731565b9150613ab083613731565b925082613ac057613abf613a6e565b5b828204905092915050565b5f613ad582613731565b9150613ae083613731565b9250828203905081811115613af857613af7613a00565b5b92915050565b5f613b0882613731565b9150613b1383613731565b9250828201905080821115613b2b57613b2a613a00565b5b92915050565b7f4e487b71000000000000000000000000000000000000000000000000000000005f52603260045260245ffd5b5f604082019050613b715f8301856137a5565b613b7e602083018461373a565b9392505050565b5f7fffff00000000000000000000000000000000000000000000000000000000000082169050919050565b613bb981613b85565b8114613bc3575f80fd5b50565b5f81519050613bd481613bb0565b92915050565b5f60208284031215613bef57613bee6136a8565b5b5f613bfc84828501613bc6565b91505092915050565b613c0e81613b85565b82525050565b5f602082019050613c275f830184613c05565b92915050565b5f80fd5b5f601f19601f8301169050919050565b7f4e487b71000000000000000000000000000000000000000000000000000000005f52604160045260245ffd5b613c7782613c31565b810181811067ffffffffffffffff82111715613c9657613c95613c41565b5b80604052505050565b5f613ca861369f565b9050613cb48282613c6e565b919050565b5f60408284031215613cce57613ccd613c2d565b5b613cd86040613c9f565b90505f613ce7848285016139c1565b5f830152506020613cfa848285016139c1565b60208301525092915050565b5f60408284031215613d1b57613d1a6136a8565b5b5f613d2884828501613cb9565b91505092915050565b5f613d3b82613762565b9150613d4683613762565b925082820390506fffffffffffffffffffffffffffffffff811115613d6e57613d6d613a00565b5b92915050565b5f613d7e82613762565b91506fffffffffffffffffffffffffffffffff8203613da057613d9f613a00565b5b600182019050919050565b5f606082019050613dbe5f8301866137a5565b613dcb60208301856137a5565b613dd8604083018461373a565b94935050505056fea264697066735822122084da6b94c5642c3ba7a79ff3152682e535e601dbdc3b7e0bbe686bef9c02118d64736f6c634300081a0033",
		"linkReferences": {}
	},
	"methodIdentifiers": {
		"BASE_PRECISION()": "72cacb70",
		"MAX_DECIMALS()": "0417cf8e",
		"ONE_VTOKEN()": "bb8afc7b",
		"SCALING_FACTOR()": "ef4cadc5",
		"acceptedNativeAsset()": "8e70fa8c",
		"acceptedVAsset()": "99dc0390",
		"avgNativeExRateGradient()": "b66a72df",
		"changeBlocks(uint256)": "976251e6",
		"claimLeftoverProjectToken()": "ab7302bb",
		"claimOwnerInterest()": "72e48cf3",
		"claimPlatformFee()": "9c8aea90",
		"cumulativeExchangeRate()": "33d8773d",
		"emissionRateChanges(uint128)": "b87a6aeb",
		"endBlock()": "083c6323",
		"getClaimableProjectToken(address)": "80729f17",
		"getEmissionRate()": "c0a77da9",
		"getPoolInfo()": "60246c88",
		"getStakerNativeAmount(address)": "7d334107",
		"getStakingRange()": "fce88e6f",
		"getTotalProjectToken()": "f73a8b5c",
		"getTotalStakedVTokens()": "534a9d00",
		"getWithdrawableVTokens(uint256)": "5bf0fa89",
		"lastNativeExRate()": "9b4f8321",
		"lastNativeExRateUpdateBlock()": "b1f0af1b",
		"lastProcessedChangeBlockIndex()": "a748afb0",
		"maxStakers()": "4f7ff503",
		"maxVAssetPerStaker()": "81cadea0",
		"nativeExRateSampleCount()": "06508ebc",
		"owner()": "8da5cb5b",
		"ownerShareOfInterest()": "84d38d48",
		"pause()": "8456cb59",
		"paused()": "5c975abb",
		"platformAdminAddress()": "129989a3",
		"platformFeeClaimed()": "d065cf8e",
		"projectToken()": "4b60ce77",
		"recoverWrongToken(address)": "018bcf5c",
		"renounceOwnership()": "715018a6",
		"setXCMOracleAddress(address)": "aac9ce5c",
		"stake(uint256)": "a694fc3a",
		"stakers(address)": "9168ae72",
		"startBlock()": "48cd4cb1",
		"tickBlock()": "bfc55b8a",
		"totalNativeStake()": "544c2d76",
		"transferOwnership(address)": "f2fde38b",
		"unpause()": "3f4ba83a",
		"unstake(uint256)": "2e17de78",
		"unstakeWithoutProjectToken(uint256)": "b64a025e",
		"xcmOracle()": "6cf56846"
	},
	"storageLayout": {
		"storage": [
			{
				"astId": 39589,
				"contract": "src/non-upgradeable/Launchpool.sol:Launchpool",
				"label": "_owner",
				"offset": 0,
				"slot": "0",
				"type": "t_address"
			},
			{
				"astId": 42204,
				"contract": "src/non-upgradeable/Launchpool.sol:Launchpool",
				"label": "_status",
				"offset": 0,
				"slot": "1",
				"type": "t_uint256"
			},
			{
				"astId": 42085,
				"contract": "src/non-upgradeable/Launchpool.sol:Launchpool",
				"label": "_paused",
				"offset": 0,
				"slot": "2",
				"type": "t_bool"
			},
			{
				"astId": 52727,
				"contract": "src/non-upgradeable/Launchpool.sol:Launchpool",
				"label": "cumulativeExchangeRate",
				"offset": 0,
				"slot": "3",
				"type": "t_uint256"
			},
			{
				"astId": 52729,
				"contract": "src/non-upgradeable/Launchpool.sol:Launchpool",
				"label": "startBlock",
				"offset": 0,
				"slot": "4",
				"type": "t_uint128"
			},
			{
				"astId": 52731,
				"contract": "src/non-upgradeable/Launchpool.sol:Launchpool",
				"label": "endBlock",
				"offset": 16,
				"slot": "4",
				"type": "t_uint128"
			},
			{
				"astId": 52733,
				"contract": "src/non-upgradeable/Launchpool.sol:Launchpool",
				"label": "tickBlock",
				"offset": 0,
				"slot": "5",
				"type": "t_uint128"
			},
			{
				"astId": 52736,
				"contract": "src/non-upgradeable/Launchpool.sol:Launchpool",
				"label": "ownerShareOfInterest",
				"offset": 16,
				"slot": "5",
				"type": "t_uint128"
			},
			{
				"astId": 52738,
				"contract": "src/non-upgradeable/Launchpool.sol:Launchpool",
				"label": "maxVAssetPerStaker",
				"offset": 0,
				"slot": "6",
				"type": "t_uint256"
			},
			{
				"astId": 52740,
				"contract": "src/non-upgradeable/Launchpool.sol:Launchpool",
				"label": "maxStakers",
				"offset": 0,
				"slot": "7",
				"type": "t_uint256"
			},
			{
				"astId": 52742,
				"contract": "src/non-upgradeable/Launchpool.sol:Launchpool",
				"label": "totalNativeStake",
				"offset": 0,
				"slot": "8",
				"type": "t_uint256"
			},
			{
				"astId": 52752,
				"contract": "src/non-upgradeable/Launchpool.sol:Launchpool",
				"label": "lastProcessedChangeBlockIndex",
				"offset": 0,
				"slot": "9",
				"type": "t_uint256"
			},
			{
				"astId": 52754,
				"contract": "src/non-upgradeable/Launchpool.sol:Launchpool",
				"label": "platformAdminAddress",
				"offset": 0,
				"slot": "10",
				"type": "t_address"
			},
			{
				"astId": 52758,
				"contract": "src/non-upgradeable/Launchpool.sol:Launchpool",
				"label": "emissionRateChanges",
				"offset": 0,
				"slot": "11",
				"type": "t_mapping(t_uint128,t_uint256)"
			},
			{
				"astId": 52761,
				"contract": "src/non-upgradeable/Launchpool.sol:Launchpool",
				"label": "changeBlocks",
				"offset": 0,
				"slot": "12",
				"type": "t_array(t_uint128)dyn_storage"
			},
			{
				"astId": 52764,
				"contract": "src/non-upgradeable/Launchpool.sol:Launchpool",
				"label": "projectToken",
				"offset": 0,
				"slot": "13",
				"type": "t_contract(IERC20)41277"
			},
			{
				"astId": 52767,
				"contract": "src/non-upgradeable/Launchpool.sol:Launchpool",
				"label": "acceptedVAsset",
				"offset": 0,
				"slot": "14",
				"type": "t_contract(IERC20)41277"
			},
			{
				"astId": 52770,
				"contract": "src/non-upgradeable/Launchpool.sol:Launchpool",
				"label": "acceptedNativeAsset",
				"offset": 0,
				"slot": "15",
				"type": "t_contract(IERC20)41277"
			},
			{
				"astId": 52773,
				"contract": "src/non-upgradeable/Launchpool.sol:Launchpool",
				"label": "xcmOracle",
				"offset": 0,
				"slot": "16",
				"type": "t_contract(IXCMOracle)52087"
			},
			{
				"astId": 52778,
				"contract": "src/non-upgradeable/Launchpool.sol:Launchpool",
				"label": "stakers",
				"offset": 0,
				"slot": "17",
				"type": "t_mapping(t_address,t_struct(Staker)52725_storage)"
			},
			{
				"astId": 52780,
				"contract": "src/non-upgradeable/Launchpool.sol:Launchpool",
				"label": "lastNativeExRate",
				"offset": 0,
				"slot": "18",
				"type": "t_uint256"
			},
			{
				"astId": 52782,
				"contract": "src/non-upgradeable/Launchpool.sol:Launchpool",
				"label": "avgNativeExRateGradient",
				"offset": 0,
				"slot": "19",
				"type": "t_uint256"
			},
			{
				"astId": 52784,
				"contract": "src/non-upgradeable/Launchpool.sol:Launchpool",
				"label": "nativeExRateSampleCount",
				"offset": 0,
				"slot": "20",
				"type": "t_uint128"
			},
			{
				"astId": 52786,
				"contract": "src/non-upgradeable/Launchpool.sol:Launchpool",
				"label": "lastNativeExRateUpdateBlock",
				"offset": 16,
				"slot": "20",
				"type": "t_uint128"
			},
			{
				"astId": 52790,
				"contract": "src/non-upgradeable/Launchpool.sol:Launchpool",
				"label": "platformFeeClaimed",
				"offset": 0,
				"slot": "21",
				"type": "t_bool"
			}
		],
		"types": {
			"t_address": {
				"encoding": "inplace",
				"label": "address",
				"numberOfBytes": "20"
			},
			"t_array(t_uint128)dyn_storage": {
				"encoding": "dynamic_array",
				"label": "uint128[]",
				"numberOfBytes": "32",
				"base": "t_uint128"
			},
			"t_bool": {
				"encoding": "inplace",
				"label": "bool",
				"numberOfBytes": "1"
			},
			"t_contract(IERC20)41277": {
				"encoding": "inplace",
				"label": "contract IERC20",
				"numberOfBytes": "20"
			},
			"t_contract(IXCMOracle)52087": {
				"encoding": "inplace",
				"label": "contract IXCMOracle",
				"numberOfBytes": "20"
			},
			"t_mapping(t_address,t_struct(Staker)52725_storage)": {
				"encoding": "mapping",
				"key": "t_address",
				"label": "mapping(address => struct Launchpool.Staker)",
				"numberOfBytes": "32",
				"value": "t_struct(Staker)52725_storage"
			},
			"t_mapping(t_uint128,t_uint256)": {
				"encoding": "mapping",
				"key": "t_uint128",
				"label": "mapping(uint128 => uint256)",
				"numberOfBytes": "32",
				"value": "t_uint256"
			},
			"t_struct(Staker)52725_storage": {
				"encoding": "inplace",
				"label": "struct Launchpool.Staker",
				"numberOfBytes": "64",
				"members": [
					{
						"astId": 52722,
						"contract": "src/non-upgradeable/Launchpool.sol:Launchpool",
						"label": "nativeAmount",
						"offset": 0,
						"slot": "0",
						"type": "t_uint256"
					},
					{
						"astId": 52724,
						"contract": "src/non-upgradeable/Launchpool.sol:Launchpool",
						"label": "claimOffset",
						"offset": 0,
						"slot": "1",
						"type": "t_uint256"
					}
				]
			},
			"t_uint128": {
				"encoding": "inplace",
				"label": "uint128",
				"numberOfBytes": "16"
			},
			"t_uint256": {
				"encoding": "inplace",
				"label": "uint256",
				"numberOfBytes": "32"
			}
		}
	},
	"id": 69
}