{
  "_format": "hh-sol-artifact-1",
  "contractName": "Launchpool",
  "sourceName": "src/non-upgradeable/Launchpool.sol",
  "abi": [
    {
      "inputs": [
        {
          "internalType": "address",
          "name": "xcmOracleAddress",
          "type": "address"
        },
        {
          "internalType": "address",
          "name": "_projectOwner",
          "type": "address"
        },
        {
          "internalType": "address",
          "name": "_projectToken",
          "type": "address"
        },
        {
          "internalType": "address",
          "name": "_acceptedVAsset",
          "type": "address"
        },
        {
          "internalType": "address",
          "name": "_acceptedNativeAsset",
          "type": "address"
        },
        {
          "internalType": "uint128",
          "name": "_startBlock",
          "type": "uint128"
        },
        {
          "internalType": "uint128",
          "name": "_endBlock",
          "type": "uint128"
        },
        {
          "internalType": "uint256",
          "name": "_maxTokenPerStaker",
          "type": "uint256"
        },
        {
          "internalType": "uint128[]",
          "name": "_changeBlocks",
          "type": "uint128[]"
        },
        {
          "internalType": "uint256[]",
          "name": "_emissionRateChanges",
          "type": "uint256[]"
        }
      ],
      "stateMutability": "nonpayable",
      "type": "constructor"
    },
    {
      "inputs": [],
      "name": "ArraysLengthMismatch",
      "type": "error"
    },
    {
      "inputs": [
        {
          "internalType": "address",
          "name": "tokenAddress",
          "type": "address"
        }
      ],
      "name": "DecimalsTooHigh",
      "type": "error"
    },
    {
      "inputs": [],
      "name": "EndBlockMustBeAfterstartBlock",
      "type": "error"
    },
    {
      "inputs": [],
      "name": "EnforcedPause",
      "type": "error"
    },
    {
      "inputs": [],
      "name": "ExceedMaxTokensPerStaker",
      "type": "error"
    },
    {
      "inputs": [],
      "name": "ExceedNativeStake",
      "type": "error"
    },
    {
      "inputs": [],
      "name": "ExceedWithdrawableVTokens",
      "type": "error"
    },
    {
      "inputs": [],
      "name": "ExpectedPause",
      "type": "error"
    },
    {
      "inputs": [],
      "name": "FailedToReadTokenDecimals",
      "type": "error"
    },
    {
      "inputs": [],
      "name": "FirstChangeBlockMustBeStartBlock",
      "type": "error"
    },
    {
      "inputs": [],
      "name": "MaxAndMinTokensPerStakerMustBeGreaterThanZero",
      "type": "error"
    },
    {
      "inputs": [],
      "name": "MustBeAfterPoolEnd",
      "type": "error"
    },
    {
      "inputs": [],
      "name": "MustBeDuringPoolTime",
      "type": "error"
    },
    {
      "inputs": [],
      "name": "NoEmissionRateChangesProvided",
      "type": "error"
    },
    {
      "inputs": [],
      "name": "NotPlatformAdmin",
      "type": "error"
    },
    {
      "inputs": [
        {
          "internalType": "address",
          "name": "owner",
          "type": "address"
        }
      ],
      "name": "OwnableInvalidOwner",
      "type": "error"
    },
    {
      "inputs": [
        {
          "internalType": "address",
          "name": "account",
          "type": "address"
        }
      ],
      "name": "OwnableUnauthorizedAccount",
      "type": "error"
    },
    {
      "inputs": [],
      "name": "PlatformFeeAlreadyClaimed",
      "type": "error"
    },
    {
      "inputs": [],
      "name": "ProjectTokenNotRecoverable",
      "type": "error"
    },
    {
      "inputs": [],
      "name": "ReentrancyGuardReentrantCall",
      "type": "error"
    },
    {
      "inputs": [
        {
          "internalType": "address",
          "name": "token",
          "type": "address"
        }
      ],
      "name": "SafeERC20FailedOperation",
      "type": "error"
    },
    {
      "inputs": [],
      "name": "StartBlockMustBeInFuture",
      "type": "error"
    },
    {
      "inputs": [],
      "name": "TotalProjectTokensMustBeGreaterThanZero",
      "type": "error"
    },
    {
      "inputs": [],
      "name": "ZeroAddress",
      "type": "error"
    },
    {
      "inputs": [],
      "name": "ZeroAmountNotAllowed",
      "type": "error"
    },
    {
      "anonymous": false,
      "inputs": [
        {
          "indexed": true,
          "internalType": "address",
          "name": "claimer",
          "type": "address"
        },
        {
          "indexed": false,
          "internalType": "uint256",
          "name": "ownerClaims",
          "type": "uint256"
        },
        {
          "indexed": false,
          "internalType": "uint256",
          "name": "platformFee",
          "type": "uint256"
        }
      ],
      "name": "OwnerInterestsClaimed",
      "type": "event"
    },
    {
      "anonymous": false,
      "inputs": [
        {
          "indexed": true,
          "internalType": "address",
          "name": "previousOwner",
          "type": "address"
        },
        {
          "indexed": true,
          "internalType": "address",
          "name": "newOwner",
          "type": "address"
        }
      ],
      "name": "OwnershipTransferred",
      "type": "event"
    },
    {
      "anonymous": false,
      "inputs": [
        {
          "indexed": false,
          "internalType": "address",
          "name": "account",
          "type": "address"
        }
      ],
      "name": "Paused",
      "type": "event"
    },
    {
      "anonymous": false,
      "inputs": [
        {
          "indexed": true,
          "internalType": "address",
          "name": "claimer",
          "type": "address"
        },
        {
          "indexed": false,
          "internalType": "uint256",
          "name": "platformFee",
          "type": "uint256"
        }
      ],
      "name": "PlatformFeeClaimed",
      "type": "event"
    },
    {
      "anonymous": false,
      "inputs": [
        {
          "indexed": true,
          "internalType": "address",
          "name": "user",
          "type": "address"
        },
        {
          "indexed": false,
          "internalType": "uint256",
          "name": "amount",
          "type": "uint256"
        }
      ],
      "name": "ProjectTokensClaimed",
      "type": "event"
    },
    {
      "anonymous": false,
      "inputs": [
        {
          "indexed": true,
          "internalType": "address",
          "name": "user",
          "type": "address"
        },
        {
          "indexed": false,
          "internalType": "uint256",
          "name": "amount",
          "type": "uint256"
        }
      ],
      "name": "Staked",
      "type": "event"
    },
    {
      "anonymous": false,
      "inputs": [
        {
          "indexed": false,
          "internalType": "address",
          "name": "account",
          "type": "address"
        }
      ],
      "name": "Unpaused",
      "type": "event"
    },
    {
      "anonymous": false,
      "inputs": [
        {
          "indexed": true,
          "internalType": "address",
          "name": "user",
          "type": "address"
        },
        {
          "indexed": false,
          "internalType": "uint256",
          "name": "amount",
          "type": "uint256"
        }
      ],
      "name": "Unstaked",
      "type": "event"
    },
    {
      "inputs": [],
      "name": "BASE_PRECISION",
      "outputs": [
        {
          "internalType": "uint256",
          "name": "",
          "type": "uint256"
        }
      ],
      "stateMutability": "view",
      "type": "function"
    },
    {
      "inputs": [],
      "name": "MAX_DECIMALS",
      "outputs": [
        {
          "internalType": "uint256",
          "name": "",
          "type": "uint256"
        }
      ],
      "stateMutability": "view",
      "type": "function"
    },
    {
      "inputs": [],
      "name": "ONE_VTOKEN",
      "outputs": [
        {
          "internalType": "uint256",
          "name": "",
          "type": "uint256"
        }
      ],
      "stateMutability": "view",
      "type": "function"
    },
    {
      "inputs": [],
      "name": "SCALING_FACTOR",
      "outputs": [
        {
          "internalType": "uint256",
          "name": "",
          "type": "uint256"
        }
      ],
      "stateMutability": "view",
      "type": "function"
    },
    {
      "inputs": [],
      "name": "acceptedNativeAsset",
      "outputs": [
        {
          "internalType": "contract IERC20",
          "name": "",
          "type": "address"
        }
      ],
      "stateMutability": "view",
      "type": "function"
    },
    {
      "inputs": [],
      "name": "acceptedVAsset",
      "outputs": [
        {
          "internalType": "contract IERC20",
          "name": "",
          "type": "address"
        }
      ],
      "stateMutability": "view",
      "type": "function"
    },
    {
      "inputs": [],
      "name": "avgNativeExRateGradient",
      "outputs": [
        {
          "internalType": "uint256",
          "name": "",
          "type": "uint256"
        }
      ],
      "stateMutability": "view",
      "type": "function"
    },
    {
      "inputs": [
        {
          "internalType": "uint256",
          "name": "",
          "type": "uint256"
        }
      ],
      "name": "changeBlocks",
      "outputs": [
        {
          "internalType": "uint128",
          "name": "",
          "type": "uint128"
        }
      ],
      "stateMutability": "view",
      "type": "function"
    },
    {
      "inputs": [],
      "name": "claimLeftoverProjectToken",
      "outputs": [],
      "stateMutability": "nonpayable",
      "type": "function"
    },
    {
      "inputs": [],
      "name": "claimOwnerInterest",
      "outputs": [],
      "stateMutability": "nonpayable",
      "type": "function"
    },
    {
      "inputs": [],
      "name": "claimPlatformFee",
      "outputs": [],
      "stateMutability": "nonpayable",
      "type": "function"
    },
    {
      "inputs": [],
      "name": "claimProjectTokens",
      "outputs": [],
      "stateMutability": "nonpayable",
      "type": "function"
    },
    {
      "inputs": [],
      "name": "cumulativeExchangeRate",
      "outputs": [
        {
          "internalType": "uint256",
          "name": "",
          "type": "uint256"
        }
      ],
      "stateMutability": "view",
      "type": "function"
    },
    {
      "inputs": [
        {
          "internalType": "uint128",
          "name": "",
          "type": "uint128"
        }
      ],
      "name": "emissionRateChanges",
      "outputs": [
        {
          "internalType": "uint256",
          "name": "",
          "type": "uint256"
        }
      ],
      "stateMutability": "view",
      "type": "function"
    },
    {
      "inputs": [],
      "name": "endBlock",
      "outputs": [
        {
          "internalType": "uint128",
          "name": "",
          "type": "uint128"
        }
      ],
      "stateMutability": "view",
      "type": "function"
    },
    {
      "inputs": [
        {
          "internalType": "address",
          "name": "_investor",
          "type": "address"
        }
      ],
      "name": "getClaimableProjectToken",
      "outputs": [
        {
          "internalType": "uint256",
          "name": "",
          "type": "uint256"
        }
      ],
      "stateMutability": "view",
      "type": "function"
    },
    {
      "inputs": [],
      "name": "getEmissionRate",
      "outputs": [
        {
          "internalType": "uint256",
          "name": "",
          "type": "uint256"
        }
      ],
      "stateMutability": "view",
      "type": "function"
    },
    {
      "inputs": [],
      "name": "getPlatformAndOwnerClaimableVAssets",
      "outputs": [
        {
          "internalType": "uint256",
          "name": "ownerClaims",
          "type": "uint256"
        },
        {
          "internalType": "uint256",
          "name": "platformFee",
          "type": "uint256"
        }
      ],
      "stateMutability": "view",
      "type": "function"
    },
    {
      "inputs": [],
      "name": "getPoolInfo",
      "outputs": [
        {
          "internalType": "uint128",
          "name": "",
          "type": "uint128"
        },
        {
          "internalType": "uint128",
          "name": "",
          "type": "uint128"
        },
        {
          "internalType": "uint256",
          "name": "",
          "type": "uint256"
        },
        {
          "internalType": "uint256",
          "name": "",
          "type": "uint256"
        }
      ],
      "stateMutability": "view",
      "type": "function"
    },
    {
      "inputs": [],
      "name": "getPoolTokenomics",
      "outputs": [
        {
          "components": [
            {
              "internalType": "uint256",
              "name": "totalNativeStake",
              "type": "uint256"
            },
            {
              "internalType": "uint256",
              "name": "totalVTokenStake",
              "type": "uint256"
            },
            {
              "internalType": "uint256",
              "name": "projectTokenReserve",
              "type": "uint256"
            },
            {
              "internalType": "uint256",
              "name": "emissionRate",
              "type": "uint256"
            },
            {
              "internalType": "uint256",
              "name": "projectTokenExchangeRate",
              "type": "uint256"
            },
            {
              "internalType": "uint256",
              "name": "nativeTokenExchangeRate",
              "type": "uint256"
            }
          ],
          "internalType": "struct Launchpool.PoolTokenomics",
          "name": "",
          "type": "tuple"
        }
      ],
      "stateMutability": "view",
      "type": "function"
    },
    {
      "inputs": [
        {
          "internalType": "address",
          "name": "_investor",
          "type": "address"
        }
      ],
      "name": "getStakerNativeAmount",
      "outputs": [
        {
          "internalType": "uint256",
          "name": "",
          "type": "uint256"
        }
      ],
      "stateMutability": "view",
      "type": "function"
    },
    {
      "inputs": [],
      "name": "getStakingRange",
      "outputs": [
        {
          "internalType": "uint256",
          "name": "",
          "type": "uint256"
        },
        {
          "internalType": "uint256",
          "name": "",
          "type": "uint256"
        }
      ],
      "stateMutability": "view",
      "type": "function"
    },
    {
      "inputs": [],
      "name": "getTotalProjectTokens",
      "outputs": [
        {
          "internalType": "uint256",
          "name": "",
          "type": "uint256"
        }
      ],
      "stateMutability": "view",
      "type": "function"
    },
    {
      "inputs": [],
      "name": "getTotalStakedVTokens",
      "outputs": [
        {
          "internalType": "uint256",
          "name": "",
          "type": "uint256"
        }
      ],
      "stateMutability": "view",
      "type": "function"
    },
    {
      "inputs": [
        {
          "internalType": "uint256",
          "name": "_withdrawnNativeTokens",
          "type": "uint256"
        }
      ],
      "name": "getWithdrawableVTokens",
      "outputs": [
        {
          "internalType": "uint256",
          "name": "withdrawableVAssets",
          "type": "uint256"
        }
      ],
      "stateMutability": "view",
      "type": "function"
    },
    {
      "inputs": [],
      "name": "lastNativeExRate",
      "outputs": [
        {
          "internalType": "uint256",
          "name": "",
          "type": "uint256"
        }
      ],
      "stateMutability": "view",
      "type": "function"
    },
    {
      "inputs": [],
      "name": "lastNativeExRateUpdateBlock",
      "outputs": [
        {
          "internalType": "uint128",
          "name": "",
          "type": "uint128"
        }
      ],
      "stateMutability": "view",
      "type": "function"
    },
    {
      "inputs": [],
      "name": "lastProcessedChangeBlockIndex",
      "outputs": [
        {
          "internalType": "uint256",
          "name": "",
          "type": "uint256"
        }
      ],
      "stateMutability": "view",
      "type": "function"
    },
    {
      "inputs": [],
      "name": "maxStakers",
      "outputs": [
        {
          "internalType": "uint256",
          "name": "",
          "type": "uint256"
        }
      ],
      "stateMutability": "view",
      "type": "function"
    },
    {
      "inputs": [],
      "name": "maxTokenPerStaker",
      "outputs": [
        {
          "internalType": "uint256",
          "name": "",
          "type": "uint256"
        }
      ],
      "stateMutability": "view",
      "type": "function"
    },
    {
      "inputs": [],
      "name": "nativeExRateSampleCount",
      "outputs": [
        {
          "internalType": "uint128",
          "name": "",
          "type": "uint128"
        }
      ],
      "stateMutability": "view",
      "type": "function"
    },
    {
      "inputs": [],
      "name": "owner",
      "outputs": [
        {
          "internalType": "address",
          "name": "",
          "type": "address"
        }
      ],
      "stateMutability": "view",
      "type": "function"
    },
    {
      "inputs": [],
      "name": "ownerShareOfInterest",
      "outputs": [
        {
          "internalType": "uint128",
          "name": "",
          "type": "uint128"
        }
      ],
      "stateMutability": "view",
      "type": "function"
    },
    {
      "inputs": [],
      "name": "pause",
      "outputs": [],
      "stateMutability": "nonpayable",
      "type": "function"
    },
    {
      "inputs": [],
      "name": "paused",
      "outputs": [
        {
          "internalType": "bool",
          "name": "",
          "type": "bool"
        }
      ],
      "stateMutability": "view",
      "type": "function"
    },
    {
      "inputs": [],
      "name": "platformAdminAddress",
      "outputs": [
        {
          "internalType": "address",
          "name": "",
          "type": "address"
        }
      ],
      "stateMutability": "view",
      "type": "function"
    },
    {
      "inputs": [],
      "name": "platformFeeClaimed",
      "outputs": [
        {
          "internalType": "bool",
          "name": "",
          "type": "bool"
        }
      ],
      "stateMutability": "view",
      "type": "function"
    },
    {
      "inputs": [],
      "name": "projectToken",
      "outputs": [
        {
          "internalType": "contract IERC20",
          "name": "",
          "type": "address"
        }
      ],
      "stateMutability": "view",
      "type": "function"
    },
    {
      "inputs": [
        {
          "internalType": "address",
          "name": "_tokenAddress",
          "type": "address"
        }
      ],
      "name": "recoverWrongToken",
      "outputs": [],
      "stateMutability": "nonpayable",
      "type": "function"
    },
    {
      "inputs": [],
      "name": "renounceOwnership",
      "outputs": [],
      "stateMutability": "nonpayable",
      "type": "function"
    },
    {
      "inputs": [
        {
          "internalType": "address",
          "name": "_xcmOracleAddress",
          "type": "address"
        }
      ],
      "name": "setXCMOracleAddress",
      "outputs": [],
      "stateMutability": "nonpayable",
      "type": "function"
    },
    {
      "inputs": [
        {
          "internalType": "uint256",
          "name": "_vTokenAmount",
          "type": "uint256"
        }
      ],
      "name": "stake",
      "outputs": [],
      "stateMutability": "nonpayable",
      "type": "function"
    },
    {
      "inputs": [
        {
          "internalType": "address",
          "name": "",
          "type": "address"
        }
      ],
      "name": "stakers",
      "outputs": [
        {
          "internalType": "uint256",
          "name": "nativeAmount",
          "type": "uint256"
        },
        {
          "internalType": "uint256",
          "name": "claimOffset",
          "type": "uint256"
        }
      ],
      "stateMutability": "view",
      "type": "function"
    },
    {
      "inputs": [],
      "name": "startBlock",
      "outputs": [
        {
          "internalType": "uint128",
          "name": "",
          "type": "uint128"
        }
      ],
      "stateMutability": "view",
      "type": "function"
    },
    {
      "inputs": [],
      "name": "tickBlock",
      "outputs": [
        {
          "internalType": "uint128",
          "name": "",
          "type": "uint128"
        }
      ],
      "stateMutability": "view",
      "type": "function"
    },
    {
      "inputs": [],
      "name": "totalNativeStake",
      "outputs": [
        {
          "internalType": "uint256",
          "name": "",
          "type": "uint256"
        }
      ],
      "stateMutability": "view",
      "type": "function"
    },
    {
      "inputs": [
        {
          "internalType": "address",
          "name": "newOwner",
          "type": "address"
        }
      ],
      "name": "transferOwnership",
      "outputs": [],
      "stateMutability": "nonpayable",
      "type": "function"
    },
    {
      "inputs": [],
      "name": "unpause",
      "outputs": [],
      "stateMutability": "nonpayable",
      "type": "function"
    },
    {
      "inputs": [
        {
          "internalType": "uint256",
          "name": "_vTokenAmount",
          "type": "uint256"
        }
      ],
      "name": "unstake",
      "outputs": [],
      "stateMutability": "nonpayable",
      "type": "function"
    },
    {
      "inputs": [
        {
          "internalType": "uint256",
          "name": "_withdrawnVTokens",
          "type": "uint256"
        }
      ],
      "name": "unstakeWithoutProjectToken",
      "outputs": [],
      "stateMutability": "nonpayable",
      "type": "function"
    },
    {
      "inputs": [],
      "name": "xcmOracle",
      "outputs": [
        {
          "internalType": "contract IXCMOracle",
          "name": "",
          "type": "address"
        }
      ],
      "stateMutability": "view",
      "type": "function"
    }
  ],
  "bytecode": "0x60c080604052346107aa576129bc803803809161001c82856107c7565b83398101610140828203126107aa57610034826107ea565b91610041602082016107ea565b9261004e604083016107ea565b9161005b606082016107ea565b94610068608083016107ea565b9161007560a082016107fe565b9161008260c083016107fe565b9560e08301519761010084015160018060401b0381116107aa5784019281601f850112156107aa578351946100b686610812565b946100c460405196876107c7565b868652602086016020819860051b830101918583116107aa57602001905b8282106107af57505050610120810151906001600160401b0382116107aa57019180601f840112156107aa57825161011981610812565b9361012760405195866107c7565b81855260208086019260051b8201019283116107aa57602001905b82821061079a575050506001600160a01b0316801561078457600080546001600160a01b03198116831782556001600160a01b0316907f8be0079c531659141344cd1fd0a4f28419497f9722a3daafe3b4186f6b6457e09080a3600180556002805460ff19169055600580546001600160801b0316602d60811b179055600a80546001600160a01b03191673fd48761638e3a8c368abaefa9859cf6baa6c3c271790556001600160a01b038216948515610773576001600160a01b038b16968715610773576001600160a01b0316978815610773578a1561076257601080546001600160a01b0319166001600160a01b03929092169190911790556001600160801b031699438b1115610751576001600160801b0389168b101561074057835192831561072f578451156107195785516001600160801b03168c900361070857838351036106f75761029f6102996102a59261084e565b9261084e565b9161083d565b9081156105e5576102c7916c0c9f2c9cd04674edea400000000460805261083d565b60a05260005b8281106106c357505060a051601054600f54604051630b23060160e41b81526001600160a01b0391821660048201529293501690602081602481855afa9081156106705760009161067c575b5060409060248251809481936301443d5b60e41b835261ffff60f01b1660048301525afa908115610670576000916105fb575b508051918281029281840414901517156105cf57602001519081156105e557046012556014546001600160801b039081169081146105cf576001016001600160801b03164360801b6001600160801b0319161760145551906001600160401b0382116105b9576801000000000000000082116105b957600c5482600c5580831061055a575b5090600c60005260206000208160011c9160005b838110610514575060011981169003806104c9575b5050600d80546001600160a01b03199081169490941790555050600e8054821692909217909155600f805490911691909117905560801b6001600160801b031990811683176004556006919091556005805490911690911790556040516120ea90816108d282396080518181816103430152818161053201528181610c35015281816111d50152611d3d015260a0518181816104090152818161096101528181610ce401528181610dc101528181611276015281816116d301528181611afa01528181611c6b0152611f860152f35b9260009360005b8181106104e5575050500155388080806103fa565b82516001600160801b03908116600783901b90811b91901b1990961695909517946020909201916001016104d0565b6000805b6002811061052d5750838201556001016103e5565b86519096916001916020916001600160801b0360078b901b81811b199092169216901b1792019601610518565b600c60005260206000206001808501811c8201920160011c019060108460041b168061059c575b505b81811061059057506103d1565b60008155600101610583565b6000198201908154906000199060200360031b1c16905538610581565b634e487b7160e01b600052604160045260246000fd5b634e487b7160e01b600052601160045260246000fd5b634e487b7160e01b600052601260045260246000fd5b6040813d604011610668575b81610614604093836107c7565b81010312610664576040805192908301906001600160401b0382118483101761065057509060209160405280518352015160208201523861034c565b634e487b7160e01b81526041600452602490fd5b5080fd5b3d9150610607565b6040513d6000823e3d90fd5b6020813d6020116106bb575b81610695602093836107c7565b810103126106645751906001600160f01b0319821682036106b857506040610319565b80fd5b3d9150610688565b806106d060019284610829565b51828060801b036106e18388610829565b5116600052600b602052604060002055016102cd565b6307e11acb60e51b60005260046000fd5b633e8b0d5360e21b60005260046000fd5b634e487b7160e01b600052603260045260246000fd5b63558f515760e11b60005260046000fd5b6389edc18d60e01b60005260046000fd5b6378818b5f60e01b60005260046000fd5b63031cb01560e31b60005260046000fd5b63d92e233d60e01b60005260046000fd5b631e4fbdf760e01b600052600060045260246000fd5b8151815260209182019101610142565b600080fd5b602080916107bc846107fe565b8152019101906100e2565b601f909101601f19168101906001600160401b038211908210176105b957604052565b51906001600160a01b03821682036107aa57565b51906001600160801b03821682036107aa57565b6001600160401b0381116105b95760051b60200190565b80518210156107195760209160051b010190565b60ff16604d81116105cf57600a0a90565b60405163313ce56760e01b815290602090829060049082906001600160a01b03165afa8091600091610895575b5090610892576306d1762b60e41b60005260046000fd5b90565b6020813d6020116108c9575b816108ae602093836107c7565b8101031261066457519060ff821682036106b857503861087b565b3d91506108a156fe6080604052600436101561001257600080fd5b60003560e01c8063018bcf5c1461133e5780630417cf8e1461132257806306508ebc146112fb578063083c6323146112da578063129989a3146112b15780632e17de781461113457806333d8773d146111165780633f4ba83a146110a3578063428d9e2214610fd857806348cd4cb114610fb15780634b60ce7714610f885780634f7ff50314610f6a578063534a9d0014610f4f578063544c2d7614610f315780635bf0fa8914610f135780635c975abb14610ef057806360246c8814610ea65780636cf5684614610e7d578063715018a614610e2457806372cacb7014610dfc57806372e48cf314610d1f5780637950ea7e14610bb45780637d33410714610b7657806380729f1714610b475780638456cb5914610ae357806384d38d4814610ac25780638da5cb5b14610a995780638e70fa8c14610a705780639168ae7214610a29578063976251e6146109e857806399dc0390146109bf5780639b4f8321146109a15780639c8aea901461089c578063a694fc3a146106ae578063a748afb014610690578063aac9ce5c1461062a578063ab7302bb146105f1578063b1f0af1b146105d0578063b64a025e146104a2578063b66a72df14610484578063b73712f314610469578063b87a6aeb1461042c578063bb8afc7b146103f1578063bfc55b8a146103ca578063c0a77da9146103a7578063d065cf8e14610384578063e154651a14610366578063ef4cadc51461032b578063f2fde38b1461029e578063f76e14f5146102775763fce88e6f1461024d57600080fd5b3461027257600036600319011261027257604060065460075482519182526020820152f35b600080fd5b34610272576000366003190112610272576040610292611825565b82519182526020820152f35b34610272576020366003190112610272576004356001600160a01b03811690819003610272576102cc6118e1565b801561031557600080546001600160a01b03198116831782556001600160a01b0316907f8be0079c531659141344cd1fd0a4f28419497f9722a3daafe3b4186f6b6457e09080a3005b631e4fbdf760e01b600052600060045260246000fd5b346102725760003660031901126102725760206040517f00000000000000000000000000000000000000000000000000000000000000008152f35b34610272576000366003190112610272576020600654604051908152f35b3461027257600036600319011261027257602060ff601554166040519015158152f35b346102725760003660031901126102725760206103c26117a4565b604051908152f35b346102725760003660031901126102725760206001600160801b0360055416604051908152f35b346102725760003660031901126102725760206040517f00000000000000000000000000000000000000000000000000000000000000008152f35b34610272576020366003190112610272576004356001600160801b03811680910361027257600052600b6020526020604060002054604051908152f35b346102725760003660031901126102725760206103c2611766565b34610272576000366003190112610272576020601354604051908152f35b346102725760203660031901126102725760043580156105bf576105b9906104c8611964565b3360005260116020526040600020600180604051926104e68461146d565b805484520154602083019081526105616105008585611bea565b61050b868651611ac2565b610513611c9f565b610557610530610524838851611526565b808852600354906114dd565b7f000000000000000000000000000000000000000000000000000000000000000090611506565b8352600854611526565b600855336000526011602052604060002092518355519101556040518181527f0f5bb82176feb1b5e747e28471aa92156a04d9f3ab9f45f28e2d704232b93f7560203392a2600e5433906001600160a01b031661190a565b60018055005b6307a1cab560e11b60005260046000fd5b3461027257600036600319011261027257602060145460801c604051908152f35b346102725760003660031901126102725761060a6118e1565b60045460801c43111561061957005b63c00b64a160e01b60005260046000fd5b34610272576020366003190112610272576004356001600160a01b0381169081900361027257600a546001600160a01b0316330361067f576bffffffffffffffffffffffff60a01b6010541617601055600080f35b63d4d7478360e01b60005260046000fd5b34610272576000366003190112610272576020600954604051908152f35b346102725760203660031901126102725760043580156105bf576004546001600160801b038116431090811561088f575b5061087e576106ec611947565b6106f4611964565b336000526011602052604060002061070b826119ce565b81548181610864575050600654811161085357610753905b61072d8482611ac2565b610735611c9f565b8254806107e4575b50610749818454611533565b8355600854611533565b600855600e546040516323b872dd60e01b60208201523360248201523060448201526064808201859052815261079c916001600160a01b03166107976084836114bb565b611fe2565b60016107af6105308354600354906114dd565b9101556040519081527f9e71bc8eea02a63969f509818f2dafb9254532904319f9dbda79b67bd34a5f3d60203392a260018055005b6107f761053061080292600354906114dd565b600185015490611526565b801561073d57600d5461082190829033906001600160a01b031661190a565b6040519081527fda8a33b1852650a10f5393ae95d54ebfcb4e7e0fc67db151fd88babe81c7d88760203392a28461073d565b631da5f2b360e11b60005260046000fd5b61086d91611533565b600654106108535761075390610723565b63a2255c1760e01b60005260046000fd5b905060801c4311826106df565b3461027257600036600319011261027257600a546001600160a01b0316330361067f5760045460801c431115610619576108d4611964565b6013541580610993575b61095c575b60155460ff811661094b576105b99060016108fc611825565b92905060ff1916176015556040518181527fb36c85b0201ed4518f6a4449c5e90313fb57d188669ce2b7e4194469811f4dcf60203392a2600e54600a546001600160a01b03908116911661190a565b63dac5eb0f60e01b60005260046000fd5b61098e7f0000000000000000000000000000000000000000000000000000000000000000610989816119ce565b611ac2565b6108e3565b5060045460801c43116108de565b34610272576000366003190112610272576020601254604051908152f35b3461027257600036600319011261027257600e546040516001600160a01b039091168152602090f35b3461027257602036600319011261027257600435600c54811015610272576001600160801b03610a19602092611416565b90549060031b1c16604051908152f35b34610272576020366003190112610272576004356001600160a01b038116908190036102725760005260116020526040806000206001815491015482519182526020820152f35b3461027257600036600319011261027257600f546040516001600160a01b039091168152602090f35b34610272576000366003190112610272576000546040516001600160a01b039091168152602090f35b3461027257600036600319011261027257602060055460801c604051908152f35b3461027257600036600319011261027257600a546001600160a01b0316330361067f57610b0e611947565b600160ff1960025416176002557f62e78cea01bee320cd4e420270b5ea74000d11b0c9f74754ebdbfc544b05a2586020604051338152a1005b34610272576020366003190112610272576004356001600160a01b0381168103610272576103c26020916116fe565b34610272576020366003190112610272576004356001600160a01b038116908190036102725760005260116020526020604060002054604051908152f35b3461027257600036600319011261027257610bcd611947565b610bd5611964565b6013541580610d11575b610cdf575b3360005260116020526040600020604051610bfe8161146d565b600182549283835201549160208201928352156105bf57610c1d611c9f565b60035491610c2c8383516114dd565b90610c63610c5b7f00000000000000000000000000000000000000000000000000000000000000008094611506565b825190611526565b9384156105bf57600192610c7b610c809286516114dd565b611506565b815233600052601160205260406000209251835551910155610cad813360018060a01b03600d541661190a565b6040519081527fda8a33b1852650a10f5393ae95d54ebfcb4e7e0fc67db151fd88babe81c7d88760203392a260018055005b610d0c7f0000000000000000000000000000000000000000000000000000000000000000610989816119ce565b610be4565b5060045460801c4311610bdf565b3461027257600036600319011261027257610d386118e1565b610d40611964565b6013541580610dee575b610dbc575b6105b9610da4610d5d611825565b91906040518181528360208201527f69d56ddf7e4c2fa07f9b0b8aec3d4381b34e868bd0284b3c03de42fe077bd86060403392a2600e5433906001600160a01b031661190a565b600e54600a546001600160a01b03908116911661190a565b610de97f0000000000000000000000000000000000000000000000000000000000000000610989816119ce565b610d4f565b5060045460801c4311610d4a565b346102725760003660031901126102725760206040516c0c9f2c9cd04674edea400000008152f35b3461027257600036600319011261027257610e3d6118e1565b600080546001600160a01b0319811682556001600160a01b03167f8be0079c531659141344cd1fd0a4f28419497f9722a3daafe3b4186f6b6457e08280a3005b34610272576000366003190112610272576010546040516001600160a01b039091168152602090f35b34610272576000366003190112610272576080600454610ec4611766565b610ecc6117a4565b90604051926001600160801b0381168452841c602084015260408301526060820152f35b3461027257600036600319011261027257602060ff600254166040519015158152f35b346102725760203660031901126102725760206103c26004356115ad565b34610272576000366003190112610272576020600854604051908152f35b346102725760003660031901126102725760206103c2611540565b34610272576000366003190112610272576020600754604051908152f35b3461027257600036600319011261027257600d546040516001600160a01b039091168152602090f35b346102725760003660031901126102725760206001600160801b0360045416604051908152f35b3461027257600036600319011261027257600060a0604051610ff98161149f565b828152826020820152826040820152826060820152826080820152015260c0600854611023611540565b61102b611766565b6110336117a4565b611047600354611041611d17565b90611533565b916012549360a060405161105a8161149f565b87815260208101928352604081019384526060810194855260808101958652019485526040519586525160208601525160408501525160608401525160808301525160a0820152f35b3461027257600036600319011261027257600a546001600160a01b0316330361067f5760025460ff8116156111055760ff19166002557f5db9ee0a495bf2e6ff9c91a7834c1ba4fdd244a5e8aa4e537bd38aeae4b073aa6020604051338152a1005b638dfc202b60e01b60005260046000fd5b34610272576000366003190112610272576020600354604051908152f35b346102725760203660031901126102725760043580156105bf576105b99061115a611947565b611162611964565b60135415806112a3575b611271575b33600052601160205260406000206001806040519261118f8461146d565b805484520154602083019081526105616111a98585611bea565b6111b4868651611ac2565b6111bc611c9f565b60035461121f6111cd8288516114dd565b6112036111fb7f00000000000000000000000000000000000000000000000000000000000000008093611506565b875190611526565b8061122b575b50610c7b611218858a51611526565b93846114dd565b84528552600854611526565b61123f81338a8060a01b03600d541661190a565b6040519081527fda8a33b1852650a10f5393ae95d54ebfcb4e7e0fc67db151fd88babe81c7d88760203392a28a611209565b61129e7f0000000000000000000000000000000000000000000000000000000000000000610989816119ce565b611171565b5060045460801c431161116c565b3461027257600036600319011261027257600a546040516001600160a01b039091168152602090f35b3461027257600036600319011261027257602060045460801c604051908152f35b346102725760003660031901126102725760206001600160801b0360145416604051908152f35b34610272576000366003190112610272576020604051601e8152f35b34610272576020366003190112610272576004356001600160a01b038116908190036102725761136c6118e1565b600d546001600160a01b03168114611405576040516370a0823160e01b815230600482015290602082602481845afa9081156113f9576000916113c3575b6000546113c193506001600160a01b03169061190a565b005b90506020823d6020116113f1575b816113de602093836114bb565b81010312610272576113c19151906113aa565b3d91506113d1565b6040513d6000823e3d90fd5b63dad2afd760e01b60005260046000fd5b90600c5482101561145757600c600052600182901c7fdf6966c971051c3d54ec59162606531493a51404a002842f56009d7e5cf4a8c7019160041b60101690565b634e487b7160e01b600052603260045260246000fd5b6040810190811067ffffffffffffffff82111761148957604052565b634e487b7160e01b600052604160045260246000fd5b60c0810190811067ffffffffffffffff82111761148957604052565b90601f8019910116810190811067ffffffffffffffff82111761148957604052565b818102929181159184041417156114f057565b634e487b7160e01b600052601160045260246000fd5b8115611510570490565b634e487b7160e01b600052601260045260246000fd5b919082039182116114f057565b919082018092116114f057565b600e546040516370a0823160e01b815230600482015290602090829060249082906001600160a01b03165afa9081156113f95760009161157e575090565b90506020813d6020116115a5575b81611599602093836114bb565b81010312610272575190565b3d915061158c565b60045460801c43116116c157601054600f54604051630b23060160e41b81526001600160a01b03918216600482015291169190602081602481865afa80156113f957604091600091611692575b5060248251809581936301443d5b60e41b835261ffff60f01b1660048301525afa9081156113f9576116459260009261165d575b50602082015161163d916114dd565b905190611506565b905b61164f611540565b8083116116595750565b9150565b61163d9192506116849060403d60401161168b575b61167c81836114bb565b8101906119a6565b919061162e565b503d611672565b6116b4915060203d6020116116ba575b6116ac81836114bb565b810190611986565b386115fa565b503d6116a2565b6116f890610c7b6116d0611f2b565b917f0000000000000000000000000000000000000000000000000000000000000000906114dd565b90611647565b60018060a01b03166000526011602052604060002060405161171f8161146d565b6020600183549384845201549101908152811561175f5761175461053061175c9361174e600354611041611d17565b906114dd565b905190611526565b90565b5050600090565b600d546040516370a0823160e01b815230600482015290602090829060249082906001600160a01b03165afa9081156113f95760009161157e575090565b60045460801c431015611820576000600c54600954905b8082106117c757505090565b90916001600160801b036117da84611416565b90549060031b1c16431061181a57506001600160801b036117fa83611416565b90549060031b1c16600052600b60205260016040600020549201906117bb565b91505090565b600090565b600e546040516370a0823160e01b815230600482015290602090829060249082906001600160a01b03165afa9081156113f9576000916118ac575b5080156118a35761187c906118766008546115ad565b90611526565b9060ff601554166118205761175c606461189b60055460801c856114dd565b048093611526565b50600090600090565b906020823d6020116118d9575b816118c6602093836114bb565b810103126118d657505138611860565b80fd5b3d91506118b9565b6000546001600160a01b031633036118f557565b63118cdaa760e01b6000523360045260246000fd5b60405163a9059cbb60e01b60208201526001600160a01b039092166024830152604480830193909352918152611945916107976064836114bb565b565b60ff6002541661195357565b63d93c066560e01b60005260046000fd5b600260015414611975576002600155565b633ee5aeb560e01b60005260046000fd5b9081602091031261027257516001600160f01b0319811681036102725790565b90816040910312610272576020604051916119c08361146d565b805183520151602082015290565b601054600f54604051630b23060160e41b81526001600160a01b03918216600482015291169190602081602481865afa80156113f957604091600091611a83575b5060248251809581936301443d5b60e41b835261ffff60f01b1660048301525afa9081156113f95761175c92600092611a5b575b50611a526020918351906114dd565b91015190611506565b6020919250611a7b611a529160403d60401161168b5761167c81836114bb565b929150611a43565b611a9c915060203d6020116116ba576116ac81836114bb565b38611a0f565b906001600160801b03809116911603906001600160801b0382116114f057565b90601454611ad38160801c43611526565b8015611be45760045460801c431193601354938580611bdb575b611bd357610c7b611b1f927f0000000000000000000000000000000000000000000000000000000000000000906114dd565b906012549081831115611bd357610c7b611b399284611526565b9315611bae575b5050601454916001600160801b038084169260001984019182116114f057611b7f92611b7a610c7b926001600160801b03879516906114dd565b611533565b6013556001600160801b0381146114f05760016001600160801b03910116906001600160801b03191617601455565b6012556001600160801b03164360801b6001600160801b031916176014553880611b40565b505050505050565b50841515611aed565b50505050565b8051156105bf5760045460801c431115611c9657601354611c5557611c0e826119ce565b91611c198184611ac2565b611c2382516115ad565b10611c445781905110611c335790565b6310aa0f2160e21b60005260046000fd5b63068ab5c560e31b60005260046000fd5b611c90611c69611c63611f2b565b846114dd565b7f000000000000000000000000000000000000000000000000000000000000000090611506565b91611c19565b611c90826119ce565b6005546001600160801b0381164314611d145760085415611cf45750611cce611cc6611d17565b600354611533565b6003556001600160801b0343166001600160801b0319600554161760055561194561203d565b6001600160801b031916436001600160801b03161760055561194561203d565b50565b600854908115611f25576001600160801b036005541691600090600c54600092600954957f0000000000000000000000000000000000000000000000000000000000000000925b808810611e11575b50611d7c6001600160801b03918243911661208a565b911695600090438811611db45750506110419291611daf610c7b9261175c9798600052600b6020526040600020546114dd565b6114dd565b9096506000198101908111611dfd5791611daf610c7b92604061175c98996001600160801b03611de76110419998611416565b90549060031b1c168152600b60205220546114dd565b634e487b7160e01b87526011600452602487fd5b96949091506001600160801b03611e2786611416565b90549060031b1c169143831015611f1d576001600160801b0381169081841115611f12575082611e569161208a565b600086611ec157506000600c5415611ead5785610c7b86611daf611ea096956001600160801b0380602088600c6110419a522054165b16600052600b6020526040600020546114dd565b93600182915b0196611d5e565b634e487b7160e01b81526032600452602490fd5b600019870190878211611efe575085610c7b86611daf611ea096956001600160801b0380611ef161104198611416565b90549060031b1c16611e8c565b634e487b7160e01b81526011600452602490fd5b919560019150611ea6565b909496611d66565b60009150565b60045460801c60145460801c6001600160801b03611f498284611aa2565b169180431180611fd8575b611f6d57505061175c90611041601254916013546114dd565b61175c9250611041906001600160801b03611fd1611faa7f00000000000000000000000000000000000000000000000000000000000000006119ce565b94611fcb611fbb6012548098611526565b611fc58343611526565b90611506565b93611aa2565b16906114dd565b5060135415611f54565b906000602091828151910182855af1156113f9576000513d61203457506001600160a01b0381163b155b6120135750565b635274afe760e01b60009081526001600160a01b0391909116600452602490fd5b6001141561200c565b600c546009545b81811061204f575050565b6001600160801b0361206082611416565b90549060031b1c166001600160801b036005541610612086578060019160095501612044565b5050565b60045460801c918281116120a25761175c9250611526565b508181101561175f5761175c9161152656fea2646970667358221220c43523e99da8643d609d19bab0bde53995d5f0932415a5f1f19d84a9746f8def64736f6c634300081a0033",
  "linkReferences": {},
  "deployedLinkReferences": {}
}