{
	"abi": [
		{
			"type": "function",
			"name": "MULTICALL_SENDER_SLOT",
			"inputs": [],
			"outputs": [
				{
					"name": "",
					"type": "bytes32",
					"internalType": "bytes32"
				}
			],
			"stateMutability": "view"
		},
		{
			"type": "function",
			"name": "createLaunchpool",
			"inputs": [
				{
					"name": "_params",
					"type": "tuple",
					"internalType": "struct LaunchpoolLibrary.LaunchpoolCreationParams",
					"components": [
						{
							"name": "projectId",
							"type": "uint64",
							"internalType": "uint64"
						},
						{
							"name": "projectTokenAmount",
							"type": "uint256",
							"internalType": "uint256"
						},
						{
							"name": "projectToken",
							"type": "address",
							"internalType": "address"
						},
						{
							"name": "vAsset",
							"type": "address",
							"internalType": "address"
						},
						{
							"name": "startBlock",
							"type": "uint128",
							"internalType": "uint128"
						},
						{
							"name": "endBlock",
							"type": "uint128",
							"internalType": "uint128"
						},
						{
							"name": "maxVTokensPerStaker",
							"type": "uint256",
							"internalType": "uint256"
						},
						{
							"name": "changeBlocks",
							"type": "uint128[]",
							"internalType": "uint128[]"
						},
						{
							"name": "emissionRateChanges",
							"type": "uint256[]",
							"internalType": "uint256[]"
						}
					]
				}
			],
			"outputs": [
				{
					"name": "",
					"type": "uint64",
					"internalType": "uint64"
				}
			],
			"stateMutability": "nonpayable"
		},
		{
			"type": "function",
			"name": "createProject",
			"inputs": [],
			"outputs": [],
			"stateMutability": "nonpayable"
		},
		{
			"type": "function",
			"name": "initialize",
			"inputs": [
				{
					"name": "_initialOwner",
					"type": "address",
					"internalType": "address"
				},
				{
					"name": "_initialVAssets",
					"type": "address[]",
					"internalType": "address[]"
				},
				{
					"name": "_initialNativeAssets",
					"type": "address[]",
					"internalType": "address[]"
				}
			],
			"outputs": [],
			"stateMutability": "nonpayable"
		},
		{
			"type": "function",
			"name": "nextPoolId",
			"inputs": [],
			"outputs": [
				{
					"name": "",
					"type": "uint64",
					"internalType": "uint64"
				}
			],
			"stateMutability": "view"
		},
		{
			"type": "function",
			"name": "nextProjectId",
			"inputs": [],
			"outputs": [
				{
					"name": "",
					"type": "uint64",
					"internalType": "uint64"
				}
			],
			"stateMutability": "view"
		},
		{
			"type": "function",
			"name": "owner",
			"inputs": [],
			"outputs": [
				{
					"name": "",
					"type": "address",
					"internalType": "address"
				}
			],
			"stateMutability": "view"
		},
		{
			"type": "function",
			"name": "pools",
			"inputs": [
				{
					"name": "",
					"type": "uint64",
					"internalType": "uint64"
				}
			],
			"outputs": [
				{
					"name": "poolId",
					"type": "uint64",
					"internalType": "uint64"
				},
				{
					"name": "poolType",
					"type": "uint8",
					"internalType": "enum PoolTypeLib.PoolType"
				},
				{
					"name": "poolAddress",
					"type": "address",
					"internalType": "address"
				},
				{
					"name": "projectId",
					"type": "uint64",
					"internalType": "uint64"
				}
			],
			"stateMutability": "view"
		},
		{
			"type": "function",
			"name": "projects",
			"inputs": [
				{
					"name": "",
					"type": "uint64",
					"internalType": "uint64"
				}
			],
			"outputs": [
				{
					"name": "projectId",
					"type": "uint64",
					"internalType": "uint64"
				},
				{
					"name": "projectOwner",
					"type": "address",
					"internalType": "address"
				}
			],
			"stateMutability": "view"
		},
		{
			"type": "function",
			"name": "removeVAssetSupport",
			"inputs": [
				{
					"name": "_vAsset",
					"type": "address",
					"internalType": "address"
				}
			],
			"outputs": [],
			"stateMutability": "nonpayable"
		},
		{
			"type": "function",
			"name": "renounceOwnership",
			"inputs": [],
			"outputs": [],
			"stateMutability": "nonpayable"
		},
		{
			"type": "function",
			"name": "selfMultiCall",
			"inputs": [
				{
					"name": "callPayloadBatch",
					"type": "bytes[]",
					"internalType": "bytes[]"
				}
			],
			"outputs": [
				{
					"name": "allReturnData",
					"type": "bytes[]",
					"internalType": "bytes[]"
				}
			],
			"stateMutability": "nonpayable"
		},
		{
			"type": "function",
			"name": "setNativeAssetForVAsset",
			"inputs": [
				{
					"name": "_vAsset",
					"type": "address",
					"internalType": "address"
				},
				{
					"name": "_nativeAsset",
					"type": "address",
					"internalType": "address"
				}
			],
			"outputs": [],
			"stateMutability": "nonpayable"
		},
		{
			"type": "function",
			"name": "transferOwnership",
			"inputs": [
				{
					"name": "newOwner",
					"type": "address",
					"internalType": "address"
				}
			],
			"outputs": [],
			"stateMutability": "nonpayable"
		},
		{
			"type": "function",
			"name": "vAssetToNativeAsset",
			"inputs": [
				{
					"name": "",
					"type": "address",
					"internalType": "address"
				}
			],
			"outputs": [
				{
					"name": "",
					"type": "address",
					"internalType": "address"
				}
			],
			"stateMutability": "view"
		},
		{
			"type": "event",
			"name": "Initialized",
			"inputs": [
				{
					"name": "version",
					"type": "uint64",
					"indexed": false,
					"internalType": "uint64"
				}
			],
			"anonymous": false
		},
		{
			"type": "event",
			"name": "OwnershipTransferred",
			"inputs": [
				{
					"name": "previousOwner",
					"type": "address",
					"indexed": true,
					"internalType": "address"
				},
				{
					"name": "newOwner",
					"type": "address",
					"indexed": true,
					"internalType": "address"
				}
			],
			"anonymous": false
		},
		{
			"type": "event",
			"name": "VAssetMappingUpdated",
			"inputs": [
				{
					"name": "vAsset",
					"type": "address",
					"indexed": true,
					"internalType": "address"
				},
				{
					"name": "nativeAsset",
					"type": "address",
					"indexed": true,
					"internalType": "address"
				}
			],
			"anonymous": false
		},
		{
			"type": "error",
			"name": "AddressZero",
			"inputs": []
		},
		{
			"type": "error",
			"name": "InvalidInitialization",
			"inputs": []
		},
		{
			"type": "error",
			"name": "MultiCallFailed",
			"inputs": [
				{
					"name": "callIndex",
					"type": "uint256",
					"internalType": "uint256"
				},
				{
					"name": "callPayload",
					"type": "bytes",
					"internalType": "bytes"
				},
				{
					"name": "errorPayload",
					"type": "bytes",
					"internalType": "bytes"
				}
			]
		},
		{
			"type": "error",
			"name": "NotAcceptedVAsset",
			"inputs": []
		},
		{
			"type": "error",
			"name": "NotInitializing",
			"inputs": []
		},
		{
			"type": "error",
			"name": "OwnableInvalidOwner",
			"inputs": [
				{
					"name": "owner",
					"type": "address",
					"internalType": "address"
				}
			]
		},
		{
			"type": "error",
			"name": "OwnableUnauthorizedAccount",
			"inputs": [
				{
					"name": "account",
					"type": "address",
					"internalType": "address"
				}
			]
		},
		{
			"type": "error",
			"name": "TokensArraysLengthMismatch",
			"inputs": []
		}
	],
	"bytecode": {
		"object": "0x608060405234601c57600e6020565b6120bc61002b82396120bc90f35b6026565b60405190565b5f80fdfe60806040526004361015610013575b610b08565b61001d5f3561010c565b806318e56131146101075780632ee63c261461010257806343a342a9146100fd5780634a200fa5146100f85780634aa3a56d146100f357806352ebac8f146100ee5780636254eceb146100e95780637007ff24146100e4578063715018a6146100df57806389a5f084146100da5780638da5cb5b146100d5578063c7b96dba146100d0578063e935b7b1146100cb578063f2fde38b146100c65763fade8dba0361000e57610ad2565b610932565b6108fd565b6108bb565b610886565b61084d565b6106f2565b6106bd565b61063b565b6105b2565b6104de565b610385565b61029c565b61024a565b6101a5565b60e01c90565b60405190565b5f80fd5b5f80fd5b5f91031261012a57565b61011c565b1c90565b67ffffffffffffffff1690565b610150906008610155930261012f565b610133565b90565b906101639154610140565b90565b6101736003600890610158565b90565b67ffffffffffffffff1690565b61018c90610176565b9052565b91906101a3905f60208501940190610183565b565b346101d5576101b5366004610120565b6101d16101c0610166565b6101c8610112565b91829182610190565b0390f35b610118565b5f80fd5b60018060a01b031690565b6101f2906101de565b90565b6101fe816101e9565b0361020557565b5f80fd5b90503590610216826101f5565b565b9190604083820312610240578061023461023d925f8601610209565b93602001610209565b90565b61011c565b5f0190565b346102795761026361025d366004610218565b90610c7f565b61026b610112565b8061027581610245565b0390f35b610118565b9060208282031261029757610294915f01610209565b90565b61011c565b346102ca576102b46102af36600461027e565b610db6565b6102bc610112565b806102c681610245565b0390f35b610118565b5f80fd5b5f80fd5b5f80fd5b909182601f830112156103155781359167ffffffffffffffff831161031057602001926020830284011161030b57565b6102d7565b6102d3565b6102cf565b60608183031261038057610330825f8301610209565b92602082013567ffffffffffffffff811161037b57836103519184016102db565b929093604082013567ffffffffffffffff81116103765761037292016102db565b9091565b6101da565b6101da565b61011c565b346103b7576103a161039836600461031a565b939290926111ef565b6103a9610112565b806103b381610245565b0390f35b610118565b6103c581610176565b036103cc57565b5f80fd5b905035906103dd826103bc565b565b906020828203126103f8576103f5915f016103d0565b90565b61011c565b90565b61041461040f61041992610176565b6103fd565b610176565b90565b9061042690610400565b5f5260205260405f2090565b5f1c90565b61044361044891610432565b610133565b90565b6104559054610437565b90565b60401c90565b60018060a01b031690565b61047561047a91610458565b61045e565b90565b6104879054610469565b90565b610494905f61041c565b906104ab5f6104a481850161044b565b930161047d565b90565b6104b7906101e9565b9052565b9160206104dc9294936104d560408201965f830190610183565b01906104ae565b565b3461050f576104f66104f13660046103df565b61048a565b9061050b610502610112565b928392836104bb565b0390f35b610118565b61052861052361052d926101de565b6103fd565b6101de565b90565b61053990610514565b90565b61054590610530565b90565b906105529061053c565b5f5260205260405f2090565b61056e906008610573930261012f565b61045e565b90565b90610581915461055e565b90565b61059a906105956002915f92610548565b610576565b90565b91906105b0905f602085019401906104ae565b565b346105e2576105de6105cd6105c836600461027e565b610584565b6105d5610112565b9182918261059d565b0390f35b610118565b7f6d48e2e19ddc29298fe904f8ddae212da0a0f29f496020e87edda79b010bcfec90565b6106136105e7565b90565b90565b61062290610616565b9052565b9190610639905f60208501940190610619565b565b3461066b5761064b366004610120565b61066761065661060b565b61065e610112565b91829182610626565b0390f35b610118565b5f80fd5b90816101209103126106835790565b610670565b906020828203126106b8575f82013567ffffffffffffffff81116106b3576106b09201610674565b90565b6101da565b61011c565b346106ed576106e96106d86106d3366004610688565b6116e0565b6106e0610112565b91829182610190565b0390f35b610118565b3461072057610702366004610120565b61070a6118d3565b610712610112565b8061071c81610245565b0390f35b610118565b9061072f90610400565b5f5260205260405f2090565b60ff1690565b61074d61075291610458565b61073b565b90565b61075f9054610741565b90565b60481c90565b61077461077991610762565b61045e565b90565b6107869054610768565b90565b610794906001610725565b906107a05f830161044b565b916107ac5f8201610755565b916107c460016107bd5f850161077c565b930161044b565b90565b634e487b7160e01b5f52602160045260245ffd5b600411156107e557565b6107c7565b906107f4826107db565b565b6107ff906107ea565b90565b61080b906107f6565b9052565b61084461084b9461083a606094989795610830608086019a5f870190610183565b6020850190610802565b60408301906104ae565b0190610183565b565b346108815761087d6108686108633660046103df565b610789565b90610874949294610112565b9485948561080f565b0390f35b610118565b346108b657610896366004610120565b6108b26108a16118dd565b6108a9610112565b9182918261059d565b0390f35b610118565b346108e9576108cb366004610120565b6108d3611928565b6108db610112565b806108e581610245565b0390f35b610118565b6108fa60035f90610158565b90565b3461092d5761090d366004610120565b6109296109186108ee565b610920610112565b91829182610190565b0390f35b610118565b346109605761094a61094536600461027e565b611a41565b610952610112565b8061095c81610245565b0390f35b610118565b909182601f8301121561099f5781359167ffffffffffffffff831161099a57602001926020830284011161099557565b6102d7565b6102d3565b6102cf565b906020828203126109d5575f82013567ffffffffffffffff81116109d0576109cc9201610965565b9091565b6101da565b61011c565b5190565b60209181520190565b60200190565b5190565b60209181520190565b90825f9392825e0152565b601f801991011690565b610a2e610a37602093610a3c93610a25816109ed565b938480936109f1565b958691016109fa565b610a05565b0190565b90610a4a91610a0f565b90565b60200190565b90610a67610a60836109da565b80926109de565b9081610a78602083028401946109e7565b925f915b838310610a8b57505050505090565b90919293946020610aad610aa783856001950387528951610a40565b97610a4d565b9301930191939290610a7c565b610acf9160208201915f818403910152610a53565b90565b34610b0357610aff610aee610ae83660046109a4565b90611cd5565b610af6610112565b91829182610aba565b0390f35b610118565b5f80fd5b90565b610b23610b1e610b2892610b0c565b6103fd565b6101de565b90565b610b3490610b0f565b90565b9081610b53610b4d610b485f610b2b565b6101e9565b916101e9565b14610b6357610b6191610b7f565b565b5f639fabe1c160e01b815280610b7b60048201610245565b0390fd5b9080610b9b610b95610b905f610b2b565b6101e9565b916101e9565b14610bab57610ba991610bc7565b565b5f639fabe1c160e01b815280610bc360048201610245565b0390fd5b90610bd991610bd4611e23565b610c1e565b565b5f1b90565b90610bf160018060a01b0391610bdb565b9181191691161790565b90565b90610c13610c0e610c1a9261053c565b610bfb565b8254610be0565b9055565b610c3382610c2e60028490610548565b610bfe565b90610c67610c617f53b4841fe6b1c42ef57b78111df1f77f065ec7a60dd0bfb84c43159919ba0c3e9361053c565b9161053c565b91610c70610112565b80610c7a81610245565b0390a3565b90610c8991610b37565b565b80610ca6610ca0610c9b5f610b2b565b6101e9565b916101e9565b14610cb657610cb490610cd2565b565b5f639fabe1c160e01b815280610cce60048201610245565b0390fd5b610ce390610cde611e23565b610d4d565b565b1b90565b91906008610d09910291610d0360018060a01b0384610ce5565b92610ce5565b9181191691161790565b9190610d29610d24610d319361053c565b610bfb565b908354610ce9565b9055565b5f90565b610d4b91610d45610d35565b91610d13565b565b610d625f610d5d60028490610548565b610d39565b610d6b5f610b2b565b610d9e610d987f53b4841fe6b1c42ef57b78111df1f77f065ec7a60dd0bfb84c43159919ba0c3e9361053c565b9161053c565b91610da7610112565b80610db181610245565b0390a3565b610dbf90610c8b565b565b60ff1690565b610dd3610dd891610458565b610dc1565b90565b610de59054610dc7565b90565b151590565b610e01610dfc610e0692610b0c565b6103fd565b610176565b90565b90565b610e20610e1b610e2592610e09565b6103fd565b610176565b90565b610e3190610530565b90565b90565b610e4b610e46610e5092610b0c565b6103fd565b610e34565b90565b90610e6667ffffffffffffffff91610bdb565b9181191691161790565b90565b90610e88610e83610e8f92610400565b610e70565b8254610e53565b9055565b60401b90565b90610ead68ff000000000000000091610e93565b9181191691161790565b610ec090610de8565b90565b90565b90610edb610ed6610ee292610eb7565b610ec3565b8254610e99565b9055565b610eef90610e0c565b9052565b9190610f06905f60208501940190610ee6565b565b91939092610f14611e71565b94610f29610f235f8801610ddb565b15610de8565b94610f355f880161044b565b80610f48610f425f610ded565b91610176565b1480611062575b90610f63610f5d6001610e0c565b91610176565b148061103a575b610f75909115610de8565b9081611029575b5061100d57610fa594610f9a610f926001610e0c565b5f8a01610e73565b86610ffb575b6110f7565b610fad575b50565b610fba905f809101610ec6565b6001610ff27fc7f505b2f371ae2175ee4913f4499e1f2633a7b5936321eed1cdaeb6115181d291610fe9610112565b91829182610ef3565b0390a15f610faa565b61100860015f8a01610ec6565b610fa0565b5f63f92ee8a960e01b81528061102560048201610245565b0390fd5b611034915015610de8565b5f610f7c565b50610f7561104730610e28565b3b61105a6110545f610e37565b91610e34565b149050610f6a565b5086610f4f565b5090565b60016110799101610e34565b90565b634e487b7160e01b5f52603260045260245ffd5b91908110156110a0576020020190565b61107c565b356110af816101f5565b90565b906110cd6fffffffffffffffff000000000000000091610e93565b9181191691161790565b906110ec6110e76110f392610400565b610e70565b82546110b2565b9055565b6111079095949295939193611eb3565b611112838690611069565b938461113061112a611125858790611069565b610e34565b91610e34565b036111d35761113e5f610e37565b5b8061115261114c88610e34565b91610e34565b10156111a25761119d9061119861117361116e86888591611090565b6110a5565b611193600261118d6111888d8c908891611090565b6110a5565b90610548565b610bfe565b61106d565b61113f565b509450505050506111bd6111b66001610e0c565b6003610e73565b6111d16111ca6001610e0c565b60036110d7565b565b5f63d0ca837f60e01b8152806111eb60048201610245565b0390fd5b906111fc94939291610f08565b565b5f90565b61120e61121391610432565b61045e565b90565b6112209054611202565b90565b90565b35611230816103bc565b90565b5f80fd5b634e487b7160e01b5f52604160045260245ffd5b9061125590610a05565b810190811067ffffffffffffffff82111761126f57604052565b611237565b60e01b90565b5f91031261128457565b61011c565b9052565b61129690610176565b9052565b6112a3906101e9565b9052565b6040906112d06112d794969593966112c660608401985f850190611289565b602083019061128d565b019061129a565b565b6112e1610112565b3d5f823e3d90fd5b90565b6112f86112fd91610458565b610133565b90565b61130a90546112ec565b90565b9050519061131a826103bc565b565b90505190611329826101f5565b565b90916060828403126113605761135d611346845f850161130d565b93611354816020860161130d565b9360400161131c565b90565b61011c565b9052565b506113789060208101906103d0565b90565b61138490610176565b9052565b61139181610e34565b0361139857565b5f80fd5b905035906113a982611388565b565b506113ba90602081019061139c565b90565b6113c690610e34565b9052565b506113d9906020810190610209565b90565b6113e5906101e9565b9052565b6fffffffffffffffffffffffffffffffff1690565b611407816113e9565b0361140e57565b5f80fd5b9050359061141f826113fe565b565b50611430906020810190611412565b90565b61143c906113e9565b9052565b5f80fd5b5f80fd5b5f80fd5b903560016020038236030381121561148d57016020813591019167ffffffffffffffff821161148857602082023603831361148357565b611444565b611440565b611448565b60209181520190565b90565b906114ab81602093611433565b0190565b60200190565b916114c3826114c992611492565b9261149b565b90815f905b8282106114dc575050505090565b909192936114fe6114f86001926114f38886611421565b61149e565b956114af565b9201909291926114ce565b903560016020038236030381121561154a57016020813591019167ffffffffffffffff821161154557602082023603831361154057565b611444565b611440565b611448565b60209181520190565b5f80fd5b9037565b90918261156c9161154f565b9160018060fb1b03811161158f578291602061158b920293849161155c565b0190565b611558565b61168d9161167e61167261012083016115bb6115b25f870187611369565b5f86019061137b565b6115d56115cb60208701876113ab565b60208601906113bd565b6115ef6115e560408701876113ca565b60408601906113dc565b6116096115ff60608701876113ca565b60608601906113dc565b6116236116196080870187611421565b6080860190611433565b61163d61163360a0870187611421565b60a0860190611433565b61165761164d60c08701876113ab565b60c08601906113bd565b61166460e086018661144c565b9085830360e08701526114b5565b92610100810190611509565b91610100818503910152611560565b90565b6116de946116c9829897956116bf6080966116b56116d6975f60a08901980190611365565b60208c019061128d565b60408a019061129a565b8782036060890152611594565b94019061129a565b565b6116e86111fe565b5061170861170360026116fd606085016110a5565b90610548565b611216565b908161172461171e6117195f610b2b565b6101e9565b916101e9565b1461189257611731611ebe565b61174e73__$b2f3c1f6b8919fd7ebe9cd758bfba438f1$__611223565b91639f9cabb65f6117605f8401611226565b9484813b1561188d575f936117916117869261177a610112565b998a9687958695611274565b8552600485016112a7565b03915af49283156118885760609361185c575b506117f46117c573__$c21ad995a892872ea7830f503e2b84667f$__6112e9565b916117ff630aeea4d5916001956117dc6003611300565b989190916117e8610112565b998a9889978897611274565b875260048701611690565b03915af48015611857575f80929091611823575b50611820909160036110d7565b90565b6118209250611849915060603d8111611850575b611841818361124b565b81019061132b565b5091611813565b503d611837565b6112d9565b61187b905f3d8111611881575b611873818361124b565b81019061127a565b5f6117a4565b503d611869565b6112d9565b611233565b5f633fe7c39560e21b8152806118aa60048201610245565b0390fd5b6118b6611e23565b6118be6118c0565b565b6118d16118cc5f610b2b565b611f04565b565b6118db6118ae565b565b6118e5610d35565b506118f85f6118f2611f70565b01611216565b90565b91906040838203126119235780611917611920925f860161130d565b9360200161130d565b90565b61011c565b61194573__$b2f3c1f6b8919fd7ebe9cd758bfba438f1$__611223565b6040637338f60e915f9061197c61195c600361044b565b94611987611968611ebe565b611970610112565b97889687958695611274565b8552600485016112a7565b03915af480156119d7576119a7915f809290506119a9575b506003610e73565b565b6119ca915060403d81116119d0575b6119c2818361124b565b8101906118fb565b9061199f565b503d6119b8565b6112d9565b6119ed906119e8611e23565b6119ef565b565b80611a0a611a046119ff5f610b2b565b6101e9565b916101e9565b14611a1a57611a1890611f04565b565b611a3d611a265f610b2b565b5f918291631e4fbdf760e01b83526004830161059d565b0390fd5b611a4a906119dc565b565b606090565b5090565b90611a68611a61610112565b928361124b565b565b67ffffffffffffffff8111611a825760208091020190565b611237565b90611a99611a9483611a6a565b611a55565b918252565b606090565b5f5b828110611ab157505050565b602090611abc611a9e565b8184015201611aa5565b90611aeb611ad383611a87565b92602080611ae18693611a6a565b9201910390611aa3565b565b5f90565b611afa90610530565b90565b5f80fd5b5f80fd5b5f80fd5b903590600160200381360303821215611b4b570180359067ffffffffffffffff8211611b4657602001916001820236038313611b4157565b611b05565b611b01565b611afd565b90821015611b6b576020611b679202810190611b09565b9091565b61107c565b905090565b90825f939282370152565b909182611b9081611b9793611b70565b8093611b75565b0190565b9091611ba692611b80565b90565b67ffffffffffffffff8111611bc757611bc3602091610a05565b0190565b611237565b90611bde611bd983611ba9565b611a55565b918252565b606090565b3d5f14611c0357611bf83d611bcc565b903d5f602084013e5b565b611c0b611be3565b90611c01565b611c1a90610e34565b9052565b60209181520190565b9190611c4181611c3a81611c4695611c1e565b8095611b75565b610a05565b0190565b611c69611c72602093611c7793611c60816109ed565b93848093611c1e565b958691016109fa565b610a05565b0190565b9290611ca491611cb29593611c9760608701935f880190611c11565b8583036020870152611c27565b916040818403910152611c4a565b90565b90611cbf826109da565b811015611cd0576020809102010190565b61107c565b9091611cdf611a4c565b50611ceb828490611a51565b9182611cff611cf95f610e37565b91610e34565b14611e0b57611d0d83611ac6565b91611d1733611f94565b611d1f611aed565b5b80611d33611d2d87610e34565b91610e34565b1015611df1575f80611d4430611af1565b81611d51878b8791611b50565b9190611d67611d5e610112565b93849283611b9b565b03925af1611d7d611d76611be8565b9115610de8565b611da85790611d9c611da392868391611d968383611cb5565b52611cb5565b515061106d565b611d20565b83611ded611dcc8985611dc2611dbd5f610b2b565b611f94565b8094919091611b50565b909390611dd7610112565b948594631f1c325760e11b865260048601611c7b565b0390fd5b509350509050611e08611e035f610b2b565b611f94565b90565b50915050611e20611e1b5f610e37565b611ac6565b90565b611e2b6118dd565b611e44611e3e611e39611ebe565b6101e9565b916101e9565b03611e4b57565b611e6d611e56611ebe565b5f91829163118cdaa760e01b83526004830161059d565b0390fd5b7ff0c57e16840df040f15088dc2f81fe391c3923bec73e23a9662efc9c229c6a0090565b611ea690611ea1611f9f565b611ea8565b565b611eb190612037565b565b611ebc90611e95565b565b611ec6610d35565b50611ecf612042565b80611eea611ee4611edf5f610b2b565b6101e9565b916101e9565b14155f14611ef6575b90565b50611eff612057565b611ef3565b611f0c611f70565b611f24611f1a5f8301611216565b915f849101610bfe565b90611f58611f527f8be0079c531659141344cd1fd0a4f28419497f9722a3daafe3b4186f6b6457e09361053c565b9161053c565b91611f61610112565b80611f6b81610245565b0390a3565b7f9016d09d72d40fdae2fd8ceac6b6234c7706214fd39c1cd1e609a0528c19930090565b611f9c6105e7565b55565b611fb0611faa612068565b15610de8565b611fb657565b5f631afcd79f60e31b815280611fce60048201610245565b0390fd5b611fe390611fde611f9f565b611fe5565b565b80612000611ffa611ff55f610b2b565b6101e9565b916101e9565b146120105761200e90611f04565b565b61203361201c5f610b2b565b5f918291631e4fbdf760e01b83526004830161059d565b0390fd5b61204090611fd2565b565b61204a610d35565b506120536105e7565b5490565b61205f610d35565b503390565b5f90565b612070612064565b506120835f61207d611e71565b01610ddb565b9056fea2646970667358221220d1bdaa91da03e0f5e043d8921012a36672515cad05705c630929bceb95614f3b64736f6c634300081a0033",
		"linkReferences": {
			"src/upgradeable/v1/ProjectHubUpgradeable.sol": {
				"LaunchpoolLibrary": [
					{
						"start": 6104,
						"length": 20
					}
				],
				"ProjectLibrary": [
					{
						"start": 5985,
						"length": 20
					},
					{
						"start": 6488,
						"length": 20
					}
				]
			}
		}
	},
	"methodIdentifiers": {
		"MULTICALL_SENDER_SLOT()": "6254eceb",
		"createLaunchpool((uint64,uint256,address,address,uint128,uint128,uint256,uint128[],uint256[]))": "7007ff24",
		"createProject()": "c7b96dba",
		"initialize(address,address[],address[])": "4a200fa5",
		"nextPoolId()": "18e56131",
		"nextProjectId()": "e935b7b1",
		"owner()": "8da5cb5b",
		"pools(uint64)": "89a5f084",
		"projects(uint64)": "4aa3a56d",
		"removeVAssetSupport(address)": "43a342a9",
		"renounceOwnership()": "715018a6",
		"selfMultiCall(bytes[])": "fade8dba",
		"setNativeAssetForVAsset(address,address)": "2ee63c26",
		"transferOwnership(address)": "f2fde38b",
		"vAssetToNativeAsset(address)": "52ebac8f"
	},
	"storageLayout": {
		"storage": [
			{
				"astId": 54900,
				"contract": "src/upgradeable/v1/ProjectHubUpgradeable.sol:ProjectHubUpgradeable",
				"label": "projects",
				"offset": 0,
				"slot": "0",
				"type": "t_mapping(t_uint64,t_struct(Project)54595_storage)"
			},
			{
				"astId": 54905,
				"contract": "src/upgradeable/v1/ProjectHubUpgradeable.sol:ProjectHubUpgradeable",
				"label": "pools",
				"offset": 0,
				"slot": "1",
				"type": "t_mapping(t_uint64,t_struct(Pool)54713_storage)"
			},
			{
				"astId": 54909,
				"contract": "src/upgradeable/v1/ProjectHubUpgradeable.sol:ProjectHubUpgradeable",
				"label": "vAssetToNativeAsset",
				"offset": 0,
				"slot": "2",
				"type": "t_mapping(t_address,t_address)"
			},
			{
				"astId": 54911,
				"contract": "src/upgradeable/v1/ProjectHubUpgradeable.sol:ProjectHubUpgradeable",
				"label": "nextProjectId",
				"offset": 0,
				"slot": "3",
				"type": "t_uint64"
			},
			{
				"astId": 54913,
				"contract": "src/upgradeable/v1/ProjectHubUpgradeable.sol:ProjectHubUpgradeable",
				"label": "nextPoolId",
				"offset": 8,
				"slot": "3",
				"type": "t_uint64"
			}
		],
		"types": {
			"t_address": {
				"encoding": "inplace",
				"label": "address",
				"numberOfBytes": "20"
			},
			"t_enum(PoolType)54588": {
				"encoding": "inplace",
				"label": "enum PoolTypeLib.PoolType",
				"numberOfBytes": "1"
			},
			"t_mapping(t_address,t_address)": {
				"encoding": "mapping",
				"key": "t_address",
				"label": "mapping(address => address)",
				"numberOfBytes": "32",
				"value": "t_address"
			},
			"t_mapping(t_uint64,t_struct(Pool)54713_storage)": {
				"encoding": "mapping",
				"key": "t_uint64",
				"label": "mapping(uint64 => struct LaunchpoolLibrary.Pool)",
				"numberOfBytes": "32",
				"value": "t_struct(Pool)54713_storage"
			},
			"t_mapping(t_uint64,t_struct(Project)54595_storage)": {
				"encoding": "mapping",
				"key": "t_uint64",
				"label": "mapping(uint64 => struct ProjectLibrary.Project)",
				"numberOfBytes": "32",
				"value": "t_struct(Project)54595_storage"
			},
			"t_struct(Pool)54713_storage": {
				"encoding": "inplace",
				"label": "struct LaunchpoolLibrary.Pool",
				"numberOfBytes": "64",
				"members": [
					{
						"astId": 54705,
						"contract": "src/upgradeable/v1/ProjectHubUpgradeable.sol:ProjectHubUpgradeable",
						"label": "poolId",
						"offset": 0,
						"slot": "0",
						"type": "t_uint64"
					},
					{
						"astId": 54708,
						"contract": "src/upgradeable/v1/ProjectHubUpgradeable.sol:ProjectHubUpgradeable",
						"label": "poolType",
						"offset": 8,
						"slot": "0",
						"type": "t_enum(PoolType)54588"
					},
					{
						"astId": 54710,
						"contract": "src/upgradeable/v1/ProjectHubUpgradeable.sol:ProjectHubUpgradeable",
						"label": "poolAddress",
						"offset": 9,
						"slot": "0",
						"type": "t_address"
					},
					{
						"astId": 54712,
						"contract": "src/upgradeable/v1/ProjectHubUpgradeable.sol:ProjectHubUpgradeable",
						"label": "projectId",
						"offset": 0,
						"slot": "1",
						"type": "t_uint64"
					}
				]
			},
			"t_struct(Project)54595_storage": {
				"encoding": "inplace",
				"label": "struct ProjectLibrary.Project",
				"numberOfBytes": "32",
				"members": [
					{
						"astId": 54592,
						"contract": "src/upgradeable/v1/ProjectHubUpgradeable.sol:ProjectHubUpgradeable",
						"label": "projectId",
						"offset": 0,
						"slot": "0",
						"type": "t_uint64"
					},
					{
						"astId": 54594,
						"contract": "src/upgradeable/v1/ProjectHubUpgradeable.sol:ProjectHubUpgradeable",
						"label": "projectOwner",
						"offset": 8,
						"slot": "0",
						"type": "t_address"
					}
				]
			},
			"t_uint64": {
				"encoding": "inplace",
				"label": "uint64",
				"numberOfBytes": "8"
			}
		}
	},
	"id": 70
}