{
	"abi": [
		{
			"type": "function",
			"name": "MULTICALL_SENDER_SLOT",
			"inputs": [],
			"outputs": [
				{
					"name": "",
					"type": "bytes32",
					"internalType": "bytes32"
				}
			],
			"stateMutability": "view"
		},
		{
			"type": "function",
			"name": "createLaunchpool",
			"inputs": [
				{
					"name": "_params",
					"type": "tuple",
					"internalType": "struct LaunchpoolLibrary.LaunchpoolCreationParams",
					"components": [
						{
							"name": "projectId",
							"type": "uint64",
							"internalType": "uint64"
						},
						{
							"name": "projectTokenAmount",
							"type": "uint256",
							"internalType": "uint256"
						},
						{
							"name": "projectToken",
							"type": "address",
							"internalType": "address"
						},
						{
							"name": "vAsset",
							"type": "address",
							"internalType": "address"
						},
						{
							"name": "startBlock",
							"type": "uint128",
							"internalType": "uint128"
						},
						{
							"name": "endBlock",
							"type": "uint128",
							"internalType": "uint128"
						},
						{
							"name": "maxVTokensPerStaker",
							"type": "uint256",
							"internalType": "uint256"
						},
						{
							"name": "changeBlocks",
							"type": "uint128[]",
							"internalType": "uint128[]"
						},
						{
							"name": "emissionRateChanges",
							"type": "uint256[]",
							"internalType": "uint256[]"
						},
						{
							"name": "isListed",
							"type": "bool",
							"internalType": "bool"
						}
					]
				}
			],
			"outputs": [
				{
					"name": "",
					"type": "uint64",
					"internalType": "uint64"
				}
			],
			"stateMutability": "nonpayable"
		},
		{
			"type": "function",
			"name": "createProject",
			"inputs": [],
			"outputs": [],
			"stateMutability": "nonpayable"
		},
		{
			"type": "function",
			"name": "initialize",
			"inputs": [
				{
					"name": "_initialOwner",
					"type": "address",
					"internalType": "address"
				},
				{
					"name": "_initialVAssets",
					"type": "address[]",
					"internalType": "address[]"
				},
				{
					"name": "_initialNativeAssets",
					"type": "address[]",
					"internalType": "address[]"
				}
			],
			"outputs": [],
			"stateMutability": "nonpayable"
		},
		{
			"type": "function",
			"name": "nextPoolId",
			"inputs": [],
			"outputs": [
				{
					"name": "",
					"type": "uint64",
					"internalType": "uint64"
				}
			],
			"stateMutability": "view"
		},
		{
			"type": "function",
			"name": "nextProjectId",
			"inputs": [],
			"outputs": [
				{
					"name": "",
					"type": "uint64",
					"internalType": "uint64"
				}
			],
			"stateMutability": "view"
		},
		{
			"type": "function",
			"name": "owner",
			"inputs": [],
			"outputs": [
				{
					"name": "",
					"type": "address",
					"internalType": "address"
				}
			],
			"stateMutability": "view"
		},
		{
			"type": "function",
			"name": "pools",
			"inputs": [
				{
					"name": "",
					"type": "uint64",
					"internalType": "uint64"
				}
			],
			"outputs": [
				{
					"name": "poolId",
					"type": "uint64",
					"internalType": "uint64"
				},
				{
					"name": "poolType",
					"type": "uint8",
					"internalType": "enum PoolTypeLib.PoolType"
				},
				{
					"name": "poolAddress",
					"type": "address",
					"internalType": "address"
				},
				{
					"name": "projectId",
					"type": "uint64",
					"internalType": "uint64"
				},
				{
					"name": "isListed",
					"type": "bool",
					"internalType": "bool"
				}
			],
			"stateMutability": "view"
		},
		{
			"type": "function",
			"name": "projects",
			"inputs": [
				{
					"name": "",
					"type": "uint64",
					"internalType": "uint64"
				}
			],
			"outputs": [
				{
					"name": "projectId",
					"type": "uint64",
					"internalType": "uint64"
				},
				{
					"name": "projectOwner",
					"type": "address",
					"internalType": "address"
				}
			],
			"stateMutability": "view"
		},
		{
			"type": "function",
			"name": "removeVAssetSupport",
			"inputs": [
				{
					"name": "_vAsset",
					"type": "address",
					"internalType": "address"
				}
			],
			"outputs": [],
			"stateMutability": "nonpayable"
		},
		{
			"type": "function",
			"name": "renounceOwnership",
			"inputs": [],
			"outputs": [],
			"stateMutability": "nonpayable"
		},
		{
			"type": "function",
			"name": "selfMultiCall",
			"inputs": [
				{
					"name": "callPayloadBatch",
					"type": "bytes[]",
					"internalType": "bytes[]"
				}
			],
			"outputs": [
				{
					"name": "allReturnData",
					"type": "bytes[]",
					"internalType": "bytes[]"
				}
			],
			"stateMutability": "nonpayable"
		},
		{
			"type": "function",
			"name": "setNativeAssetForVAsset",
			"inputs": [
				{
					"name": "_vAsset",
					"type": "address",
					"internalType": "address"
				},
				{
					"name": "_nativeAsset",
					"type": "address",
					"internalType": "address"
				}
			],
			"outputs": [],
			"stateMutability": "nonpayable"
		},
		{
			"type": "function",
			"name": "transferOwnership",
			"inputs": [
				{
					"name": "newOwner",
					"type": "address",
					"internalType": "address"
				}
			],
			"outputs": [],
			"stateMutability": "nonpayable"
		},
		{
			"type": "function",
			"name": "vAssetToNativeAsset",
			"inputs": [
				{
					"name": "",
					"type": "address",
					"internalType": "address"
				}
			],
			"outputs": [
				{
					"name": "",
					"type": "address",
					"internalType": "address"
				}
			],
			"stateMutability": "view"
		},
		{
			"type": "event",
			"name": "Initialized",
			"inputs": [
				{
					"name": "version",
					"type": "uint64",
					"indexed": false,
					"internalType": "uint64"
				}
			],
			"anonymous": false
		},
		{
			"type": "event",
			"name": "OwnershipTransferred",
			"inputs": [
				{
					"name": "previousOwner",
					"type": "address",
					"indexed": true,
					"internalType": "address"
				},
				{
					"name": "newOwner",
					"type": "address",
					"indexed": true,
					"internalType": "address"
				}
			],
			"anonymous": false
		},
		{
			"type": "event",
			"name": "VAssetMappingUpdated",
			"inputs": [
				{
					"name": "vAsset",
					"type": "address",
					"indexed": true,
					"internalType": "address"
				},
				{
					"name": "nativeAsset",
					"type": "address",
					"indexed": true,
					"internalType": "address"
				}
			],
			"anonymous": false
		},
		{
			"type": "error",
			"name": "AddressZero",
			"inputs": []
		},
		{
			"type": "error",
			"name": "InvalidInitialization",
			"inputs": []
		},
		{
			"type": "error",
			"name": "MultiCallFailed",
			"inputs": [
				{
					"name": "callIndex",
					"type": "uint256",
					"internalType": "uint256"
				},
				{
					"name": "callPayload",
					"type": "bytes",
					"internalType": "bytes"
				},
				{
					"name": "errorPayload",
					"type": "bytes",
					"internalType": "bytes"
				}
			]
		},
		{
			"type": "error",
			"name": "NotAcceptedVAsset",
			"inputs": []
		},
		{
			"type": "error",
			"name": "NotInitializing",
			"inputs": []
		},
		{
			"type": "error",
			"name": "OwnableInvalidOwner",
			"inputs": [
				{
					"name": "owner",
					"type": "address",
					"internalType": "address"
				}
			]
		},
		{
			"type": "error",
			"name": "OwnableUnauthorizedAccount",
			"inputs": [
				{
					"name": "account",
					"type": "address",
					"internalType": "address"
				}
			]
		},
		{
			"type": "error",
			"name": "TokensArraysLengthMismatch",
			"inputs": []
		}
	],
	"bytecode": {
		"object": "0x608060405234601c57600e6020565b61214061002b823961214090f35b6026565b60405190565b5f80fdfe60806040526004361015610013575b610b5b565b61001d5f3561010c565b806318e56131146101075780632ee63c261461010257806343a342a9146100fd5780634a200fa5146100f85780634aa3a56d146100f357806352ebac8f146100ee5780636254eceb146100e9578063715018a6146100e457806389a5f084146100df5780638da5cb5b146100da578063b7bf962b146100d5578063c7b96dba146100d0578063e935b7b1146100cb578063f2fde38b146100c65763fade8dba0361000e57610b25565b610985565b610950565b61090e565b6108d9565b610857565b61081e565b610670565b61063b565b6105b2565b6104de565b610385565b61029c565b61024a565b6101a5565b60e01c90565b60405190565b5f80fd5b5f80fd5b5f91031261012a57565b61011c565b1c90565b67ffffffffffffffff1690565b610150906008610155930261012f565b610133565b90565b906101639154610140565b90565b6101736003600890610158565b90565b67ffffffffffffffff1690565b61018c90610176565b9052565b91906101a3905f60208501940190610183565b565b346101d5576101b5366004610120565b6101d16101c0610166565b6101c8610112565b91829182610190565b0390f35b610118565b5f80fd5b60018060a01b031690565b6101f2906101de565b90565b6101fe816101e9565b0361020557565b5f80fd5b90503590610216826101f5565b565b9190604083820312610240578061023461023d925f8601610209565b93602001610209565b90565b61011c565b5f0190565b346102795761026361025d366004610218565b90610cd2565b61026b610112565b8061027581610245565b0390f35b610118565b9060208282031261029757610294915f01610209565b90565b61011c565b346102ca576102b46102af36600461027e565b610e09565b6102bc610112565b806102c681610245565b0390f35b610118565b5f80fd5b5f80fd5b5f80fd5b909182601f830112156103155781359167ffffffffffffffff831161031057602001926020830284011161030b57565b6102d7565b6102d3565b6102cf565b60608183031261038057610330825f8301610209565b92602082013567ffffffffffffffff811161037b57836103519184016102db565b929093604082013567ffffffffffffffff81116103765761037292016102db565b9091565b6101da565b6101da565b61011c565b346103b7576103a161039836600461031a565b93929092611216565b6103a9610112565b806103b381610245565b0390f35b610118565b6103c581610176565b036103cc57565b5f80fd5b905035906103dd826103bc565b565b906020828203126103f8576103f5915f016103d0565b90565b61011c565b90565b61041461040f61041992610176565b6103fd565b610176565b90565b9061042690610400565b5f5260205260405f2090565b5f1c90565b61044361044891610432565b610133565b90565b6104559054610437565b90565b60401c90565b60018060a01b031690565b61047561047a91610458565b61045e565b90565b6104879054610469565b90565b610494905f61041c565b906104ab5f6104a481850161044b565b930161047d565b90565b6104b7906101e9565b9052565b9160206104dc9294936104d560408201965f830190610183565b01906104ae565b565b3461050f576104f66104f13660046103df565b61048a565b9061050b610502610112565b928392836104bb565b0390f35b610118565b61052861052361052d926101de565b6103fd565b6101de565b90565b61053990610514565b90565b61054590610530565b90565b906105529061053c565b5f5260205260405f2090565b61056e906008610573930261012f565b61045e565b90565b90610581915461055e565b90565b61059a906105956002915f92610548565b610576565b90565b91906105b0905f602085019401906104ae565b565b346105e2576105de6105cd6105c836600461027e565b610584565b6105d5610112565b9182918261059d565b0390f35b610118565b7f6d48e2e19ddc29298fe904f8ddae212da0a0f29f496020e87edda79b010bcfec90565b6106136105e7565b90565b90565b61062290610616565b9052565b9190610639905f60208501940190610619565b565b3461066b5761064b366004610120565b61066761065661060b565b61065e610112565b91829182610626565b0390f35b610118565b3461069e57610680366004610120565b61068861124a565b610690610112565b8061069a81610245565b0390f35b610118565b906106ad90610400565b5f5260205260405f2090565b60ff1690565b6106cb6106d091610458565b6106b9565b90565b6106dd90546106bf565b90565b60481c90565b6106f26106f7916106e0565b61045e565b90565b61070490546106e6565b90565b60ff1690565b61071961071e91610458565b610707565b90565b61072b905461070d565b90565b6107399060016106a3565b6107445f820161044b565b916107505f83016106d3565b9161075c5f82016106fa565b91610774600161076d81850161044b565b9301610721565b90565b634e487b7160e01b5f52602160045260245ffd5b6004111561079557565b610777565b906107a48261078b565b565b6107af9061079a565b90565b6107bb906107a6565b9052565b151590565b6107cd906107bf565b9052565b9095949261081c9461080b610815926108016080966107f760a088019c5f890190610183565b60208701906107b2565b60408501906104ae565b6060830190610183565b01906107c4565b565b346108525761084e6108396108343660046103df565b61072e565b91610845959395610112565b958695866107d1565b0390f35b610118565b3461088757610867366004610120565b610883610872611275565b61087a610112565b9182918261059d565b0390f35b610118565b5f80fd5b908161014091031261089f5790565b61088c565b906020828203126108d4575f82013567ffffffffffffffff81116108cf576108cc9201610890565b90565b6101da565b61011c565b34610909576109056108f46108ef3660046108a4565b6117b1565b6108fc610112565b91829182610190565b0390f35b610118565b3461093c5761091e366004610120565b6109266119ac565b61092e610112565b8061093881610245565b0390f35b610118565b61094d60035f90610158565b90565b3461098057610960366004610120565b61097c61096b610941565b610973610112565b91829182610190565b0390f35b610118565b346109b35761099d61099836600461027e565b611ac5565b6109a5610112565b806109af81610245565b0390f35b610118565b909182601f830112156109f25781359167ffffffffffffffff83116109ed5760200192602083028401116109e857565b6102d7565b6102d3565b6102cf565b90602082820312610a28575f82013567ffffffffffffffff8111610a2357610a1f92016109b8565b9091565b6101da565b61011c565b5190565b60209181520190565b60200190565b5190565b60209181520190565b90825f9392825e0152565b601f801991011690565b610a81610a8a602093610a8f93610a7881610a40565b93848093610a44565b95869101610a4d565b610a58565b0190565b90610a9d91610a62565b90565b60200190565b90610aba610ab383610a2d565b8092610a31565b9081610acb60208302840194610a3a565b925f915b838310610ade57505050505090565b90919293946020610b00610afa83856001950387528951610a93565b97610aa0565b9301930191939290610acf565b610b229160208201915f818403910152610aa6565b90565b34610b5657610b52610b41610b3b3660046109f7565b90611d59565b610b49610112565b91829182610b0d565b0390f35b610118565b5f80fd5b90565b610b76610b71610b7b92610b5f565b6103fd565b6101de565b90565b610b8790610b62565b90565b9081610ba6610ba0610b9b5f610b7e565b6101e9565b916101e9565b14610bb657610bb491610bd2565b565b5f639fabe1c160e01b815280610bce60048201610245565b0390fd5b9080610bee610be8610be35f610b7e565b6101e9565b916101e9565b14610bfe57610bfc91610c1a565b565b5f639fabe1c160e01b815280610c1660048201610245565b0390fd5b90610c2c91610c27611ea7565b610c71565b565b5f1b90565b90610c4460018060a01b0391610c2e565b9181191691161790565b90565b90610c66610c61610c6d9261053c565b610c4e565b8254610c33565b9055565b610c8682610c8160028490610548565b610c51565b90610cba610cb47f53b4841fe6b1c42ef57b78111df1f77f065ec7a60dd0bfb84c43159919ba0c3e9361053c565b9161053c565b91610cc3610112565b80610ccd81610245565b0390a3565b90610cdc91610b8a565b565b80610cf9610cf3610cee5f610b7e565b6101e9565b916101e9565b14610d0957610d0790610d25565b565b5f639fabe1c160e01b815280610d2160048201610245565b0390fd5b610d3690610d31611ea7565b610da0565b565b1b90565b91906008610d5c910291610d5660018060a01b0384610d38565b92610d38565b9181191691161790565b9190610d7c610d77610d849361053c565b610c4e565b908354610d3c565b9055565b5f90565b610d9e91610d98610d88565b91610d66565b565b610db55f610db060028490610548565b610d8c565b610dbe5f610b7e565b610df1610deb7f53b4841fe6b1c42ef57b78111df1f77f065ec7a60dd0bfb84c43159919ba0c3e9361053c565b9161053c565b91610dfa610112565b80610e0481610245565b0390a3565b610e1290610cde565b565b610e28610e23610e2d92610b5f565b6103fd565b610176565b90565b90565b610e47610e42610e4c92610e30565b6103fd565b610176565b90565b610e5890610530565b90565b90565b610e72610e6d610e7792610b5f565b6103fd565b610e5b565b90565b90610e8d67ffffffffffffffff91610c2e565b9181191691161790565b90565b90610eaf610eaa610eb692610400565b610e97565b8254610e7a565b9055565b60401b90565b90610ed468ff000000000000000091610eba565b9181191691161790565b610ee7906107bf565b90565b90565b90610f02610efd610f0992610ede565b610eea565b8254610ec0565b9055565b610f1690610e33565b9052565b9190610f2d905f60208501940190610f0d565b565b91939092610f3b611ef5565b94610f50610f4a5f8801610721565b156107bf565b94610f5c5f880161044b565b80610f6f610f695f610e14565b91610176565b1480611089575b90610f8a610f846001610e33565b91610176565b1480611061575b610f9c9091156107bf565b9081611050575b5061103457610fcc94610fc1610fb96001610e33565b5f8a01610e9a565b86611022575b61111e565b610fd4575b50565b610fe1905f809101610eed565b60016110197fc7f505b2f371ae2175ee4913f4499e1f2633a7b5936321eed1cdaeb6115181d291611010610112565b91829182610f1a565b0390a15f610fd1565b61102f60015f8a01610eed565b610fc7565b5f63f92ee8a960e01b81528061104c60048201610245565b0390fd5b61105b9150156107bf565b5f610fa3565b50610f9c61106e30610e4f565b3b61108161107b5f610e5e565b91610e5b565b149050610f91565b5086610f76565b5090565b60016110a09101610e5b565b90565b634e487b7160e01b5f52603260045260245ffd5b91908110156110c7576020020190565b6110a3565b356110d6816101f5565b90565b906110f46fffffffffffffffff000000000000000091610eba565b9181191691161790565b9061111361110e61111a92610400565b610e97565b82546110d9565b9055565b61112e9095949295939193611f37565b611139838690611090565b938461115761115161114c858790611090565b610e5b565b91610e5b565b036111fa576111655f610e5e565b5b8061117961117388610e5b565b91610e5b565b10156111c9576111c4906111bf61119a611195868885916110b7565b6110cc565b6111ba60026111b46111af8d8c9088916110b7565b6110cc565b90610548565b610c51565b611094565b611166565b509450505050506111e46111dd6001610e33565b6003610e9a565b6111f86111f16001610e33565b60036110fe565b565b5f63d0ca837f60e01b81528061121260048201610245565b0390fd5b9061122394939291610f2f565b565b61122d611ea7565b611235611237565b565b6112486112435f610b7e565b611f42565b565b611252611225565b565b61126061126591610432565b61045e565b90565b6112729054611254565b90565b61127d610d88565b506112905f61128a611fae565b01611268565b90565b5f90565b90565b356112a4816103bc565b90565b5f80fd5b634e487b7160e01b5f52604160045260245ffd5b906112c990610a58565b810190811067ffffffffffffffff8211176112e357604052565b6112ab565b60e01b90565b5f9103126112f857565b61011c565b9052565b61130a90610176565b9052565b611317906101e9565b9052565b60409061134461134b949695939661133a60608401985f8501906112fd565b6020830190611301565b019061130e565b565b611355610112565b3d5f823e3d90fd5b90565b61136c61137191610458565b610133565b90565b61137e9054611360565b90565b9050519061138e826103bc565b565b9050519061139d826101f5565b565b90916060828403126113d4576113d16113ba845f8501611381565b936113c88160208601611381565b93604001611390565b90565b61011c565b9052565b506113ec9060208101906103d0565b90565b6113f890610176565b9052565b61140581610e5b565b0361140c57565b5f80fd5b9050359061141d826113fc565b565b5061142e906020810190611410565b90565b61143a90610e5b565b9052565b5061144d906020810190610209565b90565b611459906101e9565b9052565b6fffffffffffffffffffffffffffffffff1690565b61147b8161145d565b0361148257565b5f80fd5b9050359061149382611472565b565b506114a4906020810190611486565b90565b6114b09061145d565b9052565b5f80fd5b5f80fd5b5f80fd5b903560016020038236030381121561150157016020813591019167ffffffffffffffff82116114fc5760208202360383136114f757565b6114b8565b6114b4565b6114bc565b60209181520190565b90565b9061151f816020936114a7565b0190565b60200190565b916115378261153d92611506565b9261150f565b90815f905b828210611550575050505090565b9091929361157261156c6001926115678886611495565b611512565b95611523565b920190929192611542565b90356001602003823603038112156115be57016020813591019167ffffffffffffffff82116115b95760208202360383136115b457565b6114b8565b6114b4565b6114bc565b60209181520190565b5f80fd5b9037565b9091826115e0916115c3565b9160018060fb1b03811161160357829160206115ff92029384916115d0565b0190565b6115cc565b611611816107bf565b0361161857565b5f80fd5b9050359061162982611608565b565b5061163a90602081019061161c565b90565b611646906107bf565b9052565b9061175e9061012061175661174c61172f610140850161167861166f5f8a018a6113dd565b5f8801906113ef565b61169261168860208a018a61141f565b6020880190611431565b6116ac6116a260408a018a61143e565b6040880190611450565b6116c66116bc60608a018a61143e565b6060880190611450565b6116e06116d660808a018a611495565b60808801906114a7565b6116fa6116f060a08a018a611495565b60a08801906114a7565b61171461170a60c08a018a61141f565b60c0880190611431565b61172160e08901896114c0565b9087830360e0890152611529565b61173d61010088018861157d565b908683036101008801526115d4565b948281019061162b565b91019061163d565b90565b6117af9461179a829897956117906080966117866117a7975f60a089019801906113d9565b60208c0190611301565b60408a019061130e565b878203606089015261164a565b94019061130e565b565b6117b9611293565b506117d96117d460026117ce606085016110cc565b90610548565b611268565b90816117f56117ef6117ea5f610b7e565b6101e9565b916101e9565b1461196357611802611fd2565b61181f73__$b2f3c1f6b8919fd7ebe9cd758bfba438f1$__611297565b91639f9cabb65f6118315f840161129a565b9484813b1561195e575f936118626118579261184b610112565b998a96879586956112e8565b85526004850161131b565b03915af49283156119595760609361192d575b506118c561189673__$c21ad995a892872ea7830f503e2b84667f$__61135d565b916118d0630aeea4d5916001956118ad6003611374565b989190916118b9610112565b998a98899788976112e8565b875260048701611761565b03915af48015611928575f809290916118f4575b506118f1909160036110fe565b90565b6118f1925061191a915060603d8111611921575b61191281836112bf565b81019061139f565b50916118e4565b503d611908565b61134d565b61194c905f3d8111611952575b61194481836112bf565b8101906112ee565b5f611875565b503d61193a565b61134d565b6112a7565b5f633fe7c39560e21b81528061197b60048201610245565b0390fd5b91906040838203126119a7578061199b6119a4925f8601611381565b93602001611381565b90565b61011c565b6119c973__$b2f3c1f6b8919fd7ebe9cd758bfba438f1$__611297565b6040637338f60e915f90611a006119e0600361044b565b94611a0b6119ec611fd2565b6119f4610112565b978896879586956112e8565b85526004850161131b565b03915af48015611a5b57611a2b915f80929050611a2d575b506003610e9a565b565b611a4e915060403d8111611a54575b611a4681836112bf565b81019061197f565b90611a23565b503d611a3c565b61134d565b611a7190611a6c611ea7565b611a73565b565b80611a8e611a88611a835f610b7e565b6101e9565b916101e9565b14611a9e57611a9c90611f42565b565b611ac1611aaa5f610b7e565b5f918291631e4fbdf760e01b83526004830161059d565b0390fd5b611ace90611a60565b565b606090565b5090565b90611aec611ae5610112565b92836112bf565b565b67ffffffffffffffff8111611b065760208091020190565b6112ab565b90611b1d611b1883611aee565b611ad9565b918252565b606090565b5f5b828110611b3557505050565b602090611b40611b22565b8184015201611b29565b90611b6f611b5783611b0b565b92602080611b658693611aee565b9201910390611b27565b565b5f90565b611b7e90610530565b90565b5f80fd5b5f80fd5b5f80fd5b903590600160200381360303821215611bcf570180359067ffffffffffffffff8211611bca57602001916001820236038313611bc557565b611b89565b611b85565b611b81565b90821015611bef576020611beb9202810190611b8d565b9091565b6110a3565b905090565b90825f939282370152565b909182611c1481611c1b93611bf4565b8093611bf9565b0190565b9091611c2a92611c04565b90565b67ffffffffffffffff8111611c4b57611c47602091610a58565b0190565b6112ab565b90611c62611c5d83611c2d565b611ad9565b918252565b606090565b3d5f14611c8757611c7c3d611c50565b903d5f602084013e5b565b611c8f611c67565b90611c85565b611c9e90610e5b565b9052565b60209181520190565b9190611cc581611cbe81611cca95611ca2565b8095611bf9565b610a58565b0190565b611ced611cf6602093611cfb93611ce481610a40565b93848093611ca2565b95869101610a4d565b610a58565b0190565b9290611d2891611d369593611d1b60608701935f880190611c95565b8583036020870152611cab565b916040818403910152611cce565b90565b90611d4382610a2d565b811015611d54576020809102010190565b6110a3565b9091611d63611ad0565b50611d6f828490611ad5565b9182611d83611d7d5f610e5e565b91610e5b565b14611e8f57611d9183611b4a565b91611d9b33612018565b611da3611b71565b5b80611db7611db187610e5b565b91610e5b565b1015611e75575f80611dc830611b75565b81611dd5878b8791611bd4565b9190611deb611de2610112565b93849283611c1f565b03925af1611e01611dfa611c6c565b91156107bf565b611e2c5790611e20611e2792868391611e1a8383611d39565b52611d39565b5150611094565b611da4565b83611e71611e508985611e46611e415f610b7e565b612018565b8094919091611bd4565b909390611e5b610112565b948594631f1c325760e11b865260048601611cff565b0390fd5b509350509050611e8c611e875f610b7e565b612018565b90565b50915050611ea4611e9f5f610e5e565b611b4a565b90565b611eaf611275565b611ec8611ec2611ebd611fd2565b6101e9565b916101e9565b03611ecf57565b611ef1611eda611fd2565b5f91829163118cdaa760e01b83526004830161059d565b0390fd5b7ff0c57e16840df040f15088dc2f81fe391c3923bec73e23a9662efc9c229c6a0090565b611f2a90611f25612023565b611f2c565b565b611f35906120bb565b565b611f4090611f19565b565b611f4a611fae565b611f62611f585f8301611268565b915f849101610c51565b90611f96611f907f8be0079c531659141344cd1fd0a4f28419497f9722a3daafe3b4186f6b6457e09361053c565b9161053c565b91611f9f610112565b80611fa981610245565b0390a3565b7f9016d09d72d40fdae2fd8ceac6b6234c7706214fd39c1cd1e609a0528c19930090565b611fda610d88565b50611fe36120c6565b80611ffe611ff8611ff35f610b7e565b6101e9565b916101e9565b14155f1461200a575b90565b506120136120db565b612007565b6120206105e7565b55565b61203461202e6120ec565b156107bf565b61203a57565b5f631afcd79f60e31b81528061205260048201610245565b0390fd5b61206790612062612023565b612069565b565b8061208461207e6120795f610b7e565b6101e9565b916101e9565b146120945761209290611f42565b565b6120b76120a05f610b7e565b5f918291631e4fbdf760e01b83526004830161059d565b0390fd5b6120c490612056565b565b6120ce610d88565b506120d76105e7565b5490565b6120e3610d88565b503390565b5f90565b6120f46120e8565b506121075f612101611ef5565b01610721565b9056fea2646970667358221220085cd643bee4dba80342978268afa2c57de21de539e213eb41b19e62ca18b51264736f6c634300081a0033",
		"linkReferences": {
			"src/upgradeable/v1/ProjectHubUpgradeable.sol": {
				"LaunchpoolLibrary": [
					{
						"start": 6313,
						"length": 20
					}
				],
				"ProjectLibrary": [
					{
						"start": 6194,
						"length": 20
					},
					{
						"start": 6620,
						"length": 20
					}
				]
			}
		}
	},
	"methodIdentifiers": {
		"MULTICALL_SENDER_SLOT()": "6254eceb",
		"createLaunchpool((uint64,uint256,address,address,uint128,uint128,uint256,uint128[],uint256[],bool))": "b7bf962b",
		"createProject()": "c7b96dba",
		"initialize(address,address[],address[])": "4a200fa5",
		"nextPoolId()": "18e56131",
		"nextProjectId()": "e935b7b1",
		"owner()": "8da5cb5b",
		"pools(uint64)": "89a5f084",
		"projects(uint64)": "4aa3a56d",
		"removeVAssetSupport(address)": "43a342a9",
		"renounceOwnership()": "715018a6",
		"selfMultiCall(bytes[])": "fade8dba",
		"setNativeAssetForVAsset(address,address)": "2ee63c26",
		"transferOwnership(address)": "f2fde38b",
		"vAssetToNativeAsset(address)": "52ebac8f"
	},
	"storageLayout": {
		"storage": [
			{
				"astId": 54949,
				"contract": "src/upgradeable/v1/ProjectHubUpgradeable.sol:ProjectHubUpgradeable",
				"label": "projects",
				"offset": 0,
				"slot": "0",
				"type": "t_mapping(t_uint64,t_struct(Project)54598_storage)"
			},
			{
				"astId": 54954,
				"contract": "src/upgradeable/v1/ProjectHubUpgradeable.sol:ProjectHubUpgradeable",
				"label": "pools",
				"offset": 0,
				"slot": "1",
				"type": "t_mapping(t_uint64,t_struct(Pool)54718_storage)"
			},
			{
				"astId": 54958,
				"contract": "src/upgradeable/v1/ProjectHubUpgradeable.sol:ProjectHubUpgradeable",
				"label": "vAssetToNativeAsset",
				"offset": 0,
				"slot": "2",
				"type": "t_mapping(t_address,t_address)"
			},
			{
				"astId": 54960,
				"contract": "src/upgradeable/v1/ProjectHubUpgradeable.sol:ProjectHubUpgradeable",
				"label": "nextProjectId",
				"offset": 0,
				"slot": "3",
				"type": "t_uint64"
			},
			{
				"astId": 54962,
				"contract": "src/upgradeable/v1/ProjectHubUpgradeable.sol:ProjectHubUpgradeable",
				"label": "nextPoolId",
				"offset": 8,
				"slot": "3",
				"type": "t_uint64"
			}
		],
		"types": {
			"t_address": {
				"encoding": "inplace",
				"label": "address",
				"numberOfBytes": "20"
			},
			"t_bool": {
				"encoding": "inplace",
				"label": "bool",
				"numberOfBytes": "1"
			},
			"t_enum(PoolType)54591": {
				"encoding": "inplace",
				"label": "enum PoolTypeLib.PoolType",
				"numberOfBytes": "1"
			},
			"t_mapping(t_address,t_address)": {
				"encoding": "mapping",
				"key": "t_address",
				"label": "mapping(address => address)",
				"numberOfBytes": "32",
				"value": "t_address"
			},
			"t_mapping(t_uint64,t_struct(Pool)54718_storage)": {
				"encoding": "mapping",
				"key": "t_uint64",
				"label": "mapping(uint64 => struct LaunchpoolLibrary.Pool)",
				"numberOfBytes": "32",
				"value": "t_struct(Pool)54718_storage"
			},
			"t_mapping(t_uint64,t_struct(Project)54598_storage)": {
				"encoding": "mapping",
				"key": "t_uint64",
				"label": "mapping(uint64 => struct ProjectLibrary.Project)",
				"numberOfBytes": "32",
				"value": "t_struct(Project)54598_storage"
			},
			"t_struct(Pool)54718_storage": {
				"encoding": "inplace",
				"label": "struct LaunchpoolLibrary.Pool",
				"numberOfBytes": "64",
				"members": [
					{
						"astId": 54708,
						"contract": "src/upgradeable/v1/ProjectHubUpgradeable.sol:ProjectHubUpgradeable",
						"label": "poolId",
						"offset": 0,
						"slot": "0",
						"type": "t_uint64"
					},
					{
						"astId": 54711,
						"contract": "src/upgradeable/v1/ProjectHubUpgradeable.sol:ProjectHubUpgradeable",
						"label": "poolType",
						"offset": 8,
						"slot": "0",
						"type": "t_enum(PoolType)54591"
					},
					{
						"astId": 54713,
						"contract": "src/upgradeable/v1/ProjectHubUpgradeable.sol:ProjectHubUpgradeable",
						"label": "poolAddress",
						"offset": 9,
						"slot": "0",
						"type": "t_address"
					},
					{
						"astId": 54715,
						"contract": "src/upgradeable/v1/ProjectHubUpgradeable.sol:ProjectHubUpgradeable",
						"label": "projectId",
						"offset": 0,
						"slot": "1",
						"type": "t_uint64"
					},
					{
						"astId": 54717,
						"contract": "src/upgradeable/v1/ProjectHubUpgradeable.sol:ProjectHubUpgradeable",
						"label": "isListed",
						"offset": 8,
						"slot": "1",
						"type": "t_bool"
					}
				]
			},
			"t_struct(Project)54598_storage": {
				"encoding": "inplace",
				"label": "struct ProjectLibrary.Project",
				"numberOfBytes": "32",
				"members": [
					{
						"astId": 54595,
						"contract": "src/upgradeable/v1/ProjectHubUpgradeable.sol:ProjectHubUpgradeable",
						"label": "projectId",
						"offset": 0,
						"slot": "0",
						"type": "t_uint64"
					},
					{
						"astId": 54597,
						"contract": "src/upgradeable/v1/ProjectHubUpgradeable.sol:ProjectHubUpgradeable",
						"label": "projectOwner",
						"offset": 8,
						"slot": "0",
						"type": "t_address"
					}
				]
			},
			"t_uint64": {
				"encoding": "inplace",
				"label": "uint64",
				"numberOfBytes": "8"
			}
		}
	},
	"id": 70
}